{
  "_format": "hh-sol-artifact-1",
  "contractName": "Coin",
  "sourceName": "contracts/Coin.sol",
  "abi": [
    {
      "inputs": [
        {
          "internalType": "string",
          "name": "_name",
          "type": "string"
        },
        {
          "internalType": "string",
          "name": "_symbol",
          "type": "string"
        },
        {
          "internalType": "address",
          "name": "_config",
          "type": "address"
        }
      ],
      "stateMutability": "nonpayable",
      "type": "constructor"
    },
    {
      "inputs": [
        {
          "internalType": "address",
          "name": "spender",
          "type": "address"
        },
        {
          "internalType": "uint256",
          "name": "allowance",
          "type": "uint256"
        },
        {
          "internalType": "uint256",
          "name": "needed",
          "type": "uint256"
        }
      ],
      "name": "ERC20InsufficientAllowance",
      "type": "error"
    },
    {
      "inputs": [
        {
          "internalType": "address",
          "name": "sender",
          "type": "address"
        },
        {
          "internalType": "uint256",
          "name": "balance",
          "type": "uint256"
        },
        {
          "internalType": "uint256",
          "name": "needed",
          "type": "uint256"
        }
      ],
      "name": "ERC20InsufficientBalance",
      "type": "error"
    },
    {
      "inputs": [
        {
          "internalType": "address",
          "name": "approver",
          "type": "address"
        }
      ],
      "name": "ERC20InvalidApprover",
      "type": "error"
    },
    {
      "inputs": [
        {
          "internalType": "address",
          "name": "receiver",
          "type": "address"
        }
      ],
      "name": "ERC20InvalidReceiver",
      "type": "error"
    },
    {
      "inputs": [
        {
          "internalType": "address",
          "name": "sender",
          "type": "address"
        }
      ],
      "name": "ERC20InvalidSender",
      "type": "error"
    },
    {
      "inputs": [
        {
          "internalType": "address",
          "name": "spender",
          "type": "address"
        }
      ],
      "name": "ERC20InvalidSpender",
      "type": "error"
    },
    {
      "anonymous": false,
      "inputs": [
        {
          "indexed": true,
          "internalType": "address",
          "name": "owner",
          "type": "address"
        },
        {
          "indexed": true,
          "internalType": "address",
          "name": "spender",
          "type": "address"
        },
        {
          "indexed": false,
          "internalType": "uint256",
          "name": "value",
          "type": "uint256"
        }
      ],
      "name": "Approval",
      "type": "event"
    },
    {
      "anonymous": false,
      "inputs": [
        {
          "indexed": true,
          "internalType": "address",
          "name": "from",
          "type": "address"
        },
        {
          "indexed": true,
          "internalType": "address",
          "name": "to",
          "type": "address"
        },
        {
          "indexed": false,
          "internalType": "uint256",
          "name": "value",
          "type": "uint256"
        }
      ],
      "name": "Transfer",
      "type": "event"
    },
    {
      "inputs": [],
      "name": "CONFIG",
      "outputs": [
        {
          "internalType": "contract Config",
          "name": "",
          "type": "address"
        }
      ],
      "stateMutability": "view",
      "type": "function"
    },
    {
      "inputs": [
        {
          "internalType": "address",
          "name": "owner",
          "type": "address"
        },
        {
          "internalType": "address",
          "name": "spender",
          "type": "address"
        }
      ],
      "name": "allowance",
      "outputs": [
        {
          "internalType": "uint256",
          "name": "",
          "type": "uint256"
        }
      ],
      "stateMutability": "view",
      "type": "function"
    },
    {
      "inputs": [
        {
          "internalType": "address",
          "name": "spender",
          "type": "address"
        },
        {
          "internalType": "uint256",
          "name": "value",
          "type": "uint256"
        }
      ],
      "name": "approve",
      "outputs": [
        {
          "internalType": "bool",
          "name": "",
          "type": "bool"
        }
      ],
      "stateMutability": "nonpayable",
      "type": "function"
    },
    {
      "inputs": [
        {
          "internalType": "address",
          "name": "user",
          "type": "address"
        },
        {
          "internalType": "address",
          "name": "spender",
          "type": "address"
        },
        {
          "internalType": "uint256",
          "name": "amount",
          "type": "uint256"
        }
      ],
      "name": "approveByDelegator",
      "outputs": [],
      "stateMutability": "nonpayable",
      "type": "function"
    },
    {
      "inputs": [
        {
          "internalType": "address",
          "name": "account",
          "type": "address"
        }
      ],
      "name": "balanceOf",
      "outputs": [
        {
          "internalType": "uint256",
          "name": "",
          "type": "uint256"
        }
      ],
      "stateMutability": "view",
      "type": "function"
    },
    {
      "inputs": [
        {
          "internalType": "uint256",
          "name": "amount",
          "type": "uint256"
        }
      ],
      "name": "burn",
      "outputs": [],
      "stateMutability": "nonpayable",
      "type": "function"
    },
    {
      "inputs": [],
      "name": "decimals",
      "outputs": [
        {
          "internalType": "uint8",
          "name": "",
          "type": "uint8"
        }
      ],
      "stateMutability": "view",
      "type": "function"
    },
    {
      "inputs": [
        {
          "internalType": "address",
          "name": "to",
          "type": "address"
        },
        {
          "internalType": "uint256",
          "name": "amount",
          "type": "uint256"
        }
      ],
      "name": "mint",
      "outputs": [],
      "stateMutability": "nonpayable",
      "type": "function"
    },
    {
      "inputs": [],
      "name": "name",
      "outputs": [
        {
          "internalType": "string",
          "name": "",
          "type": "string"
        }
      ],
      "stateMutability": "view",
      "type": "function"
    },
    {
      "inputs": [],
      "name": "symbol",
      "outputs": [
        {
          "internalType": "string",
          "name": "",
          "type": "string"
        }
      ],
      "stateMutability": "view",
      "type": "function"
    },
    {
      "inputs": [],
      "name": "totalSupply",
      "outputs": [
        {
          "internalType": "uint256",
          "name": "",
          "type": "uint256"
        }
      ],
      "stateMutability": "view",
      "type": "function"
    },
    {
      "inputs": [
        {
          "internalType": "address",
          "name": "to",
          "type": "address"
        },
        {
          "internalType": "uint256",
          "name": "value",
          "type": "uint256"
        }
      ],
      "name": "transfer",
      "outputs": [
        {
          "internalType": "bool",
          "name": "",
          "type": "bool"
        }
      ],
      "stateMutability": "nonpayable",
      "type": "function"
    },
    {
      "inputs": [
        {
          "internalType": "address",
          "name": "from",
          "type": "address"
        },
        {
          "internalType": "address",
          "name": "to",
          "type": "address"
        },
        {
          "internalType": "uint256",
          "name": "value",
          "type": "uint256"
        }
      ],
      "name": "transferFrom",
      "outputs": [
        {
          "internalType": "bool",
          "name": "",
          "type": "bool"
        }
      ],
      "stateMutability": "nonpayable",
      "type": "function"
    }
  ],
  "bytecode": "0x60806040523480156200001157600080fd5b5060405162001b9638038062001b968339818101604052810190620000379190620002a7565b828282828281600390816200004d91906200058c565b5080600490816200005f91906200058c565b50505080600560006101000a81548173ffffffffffffffffffffffffffffffffffffffff021916908373ffffffffffffffffffffffffffffffffffffffff16021790555050505050505062000673565b6000604051905090565b600080fd5b600080fd5b600080fd5b600080fd5b6000601f19601f8301169050919050565b7f4e487b7100000000000000000000000000000000000000000000000000000000600052604160045260246000fd5b6200011882620000cd565b810181811067ffffffffffffffff821117156200013a5762000139620000de565b5b80604052505050565b60006200014f620000af565b90506200015d82826200010d565b919050565b600067ffffffffffffffff82111562000180576200017f620000de565b5b6200018b82620000cd565b9050602081019050919050565b60005b83811015620001b85780820151818401526020810190506200019b565b60008484015250505050565b6000620001db620001d58462000162565b62000143565b905082815260208101848484011115620001fa57620001f9620000c8565b5b6200020784828562000198565b509392505050565b600082601f830112620002275762000226620000c3565b5b815162000239848260208601620001c4565b91505092915050565b600073ffffffffffffffffffffffffffffffffffffffff82169050919050565b60006200026f8262000242565b9050919050565b620002818162000262565b81146200028d57600080fd5b50565b600081519050620002a18162000276565b92915050565b600080600060608486031215620002c357620002c2620000b9565b5b600084015167ffffffffffffffff811115620002e457620002e3620000be565b5b620002f2868287016200020f565b935050602084015167ffffffffffffffff811115620003165762000315620000be565b5b62000324868287016200020f565b9250506040620003378682870162000290565b9150509250925092565b600081519050919050565b7f4e487b7100000000000000000000000000000000000000000000000000000000600052602260045260246000fd5b600060028204905060018216806200039457607f821691505b602082108103620003aa57620003a96200034c565b5b50919050565b60008190508160005260206000209050919050565b60006020601f8301049050919050565b600082821b905092915050565b600060088302620004147fffffffffffffffffffffffffffffffffffffffffffffffffffffffffffffffff82620003d5565b620004208683620003d5565b95508019841693508086168417925050509392505050565b6000819050919050565b6000819050919050565b60006200046d62000467620004618462000438565b62000442565b62000438565b9050919050565b6000819050919050565b62000489836200044c565b620004a1620004988262000474565b848454620003e2565b825550505050565b600090565b620004b8620004a9565b620004c58184846200047e565b505050565b5b81811015620004ed57620004e1600082620004ae565b600181019050620004cb565b5050565b601f8211156200053c576200050681620003b0565b6200051184620003c5565b8101602085101562000521578190505b620005396200053085620003c5565b830182620004ca565b50505b505050565b600082821c905092915050565b6000620005616000198460080262000541565b1980831691505092915050565b60006200057c83836200054e565b9150826002028217905092915050565b620005978262000341565b67ffffffffffffffff811115620005b357620005b2620000de565b5b620005bf82546200037b565b620005cc828285620004f1565b600060209050601f831160018114620006045760008415620005ef578287015190505b620005fb85826200056e565b8655506200066b565b601f1984166200061486620003b0565b60005b828110156200063e5784890151825560018201915060208501945060208101905062000617565b868310156200065e57848901516200065a601f8916826200054e565b8355505b6001600288020188555050505b505050505050565b61151380620006836000396000f3fe608060405234801561001057600080fd5b50600436106100cf5760003560e01c806342966c681161008c57806395d89b411161006657806395d89b4114610212578063a9059cbb14610230578063d92e82e414610260578063dd62ed3e1461027e576100cf565b806342966c68146101aa5780634c5d8e43146101c657806370a08231146101e2576100cf565b806306fdde03146100d4578063095ea7b3146100f257806318160ddd1461012257806323b872dd14610140578063313ce5671461017057806340c10f191461018e575b600080fd5b6100dc6102ae565b6040516100e99190610fa6565b60405180910390f35b61010c60048036038101906101079190611061565b610340565b60405161011991906110bc565b60405180910390f35b61012a610363565b60405161013791906110e6565b60405180910390f35b61015a60048036038101906101559190611101565b61036d565b60405161016791906110bc565b60405180910390f35b61017861039c565b6040516101859190611170565b60405180910390f35b6101a860048036038101906101a39190611061565b6103a5565b005b6101c460048036038101906101bf919061118b565b6104b1565b005b6101e060048036038101906101db9190611101565b6105bc565b005b6101fc60048036038101906101f791906111b8565b6106ca565b60405161020991906110e6565b60405180910390f35b61021a610712565b6040516102279190610fa6565b60405180910390f35b61024a60048036038101906102459190611061565b6107a4565b60405161025791906110bc565b60405180910390f35b6102686107c7565b6040516102759190611244565b60405180910390f35b6102986004803603810190610293919061125f565b6107ed565b6040516102a591906110e6565b60405180910390f35b6060600380546102bd906112ce565b80601f01602080910402602001604051908101604052809291908181526020018280546102e9906112ce565b80156103365780601f1061030b57610100808354040283529160200191610336565b820191906000526020600020905b81548152906001019060200180831161031957829003601f168201915b5050505050905090565b60008061034b610874565b905061035881858561087c565b600191505092915050565b6000600254905090565b600080610378610874565b905061038585828561088e565b610390858585610922565b60019150509392505050565b60006012905090565b600560009054906101000a900473ffffffffffffffffffffffffffffffffffffffff1673ffffffffffffffffffffffffffffffffffffffff16638da5cb5b6040518163ffffffff1660e01b8152600401602060405180830381865afa158015610412573d6000803e3d6000fd5b505050506040513d601f19601f820116820180604052508101906104369190611314565b73ffffffffffffffffffffffffffffffffffffffff163373ffffffffffffffffffffffffffffffffffffffff16146104a3576040517f08c379a000000000000000000000000000000000000000000000000000000000815260040161049a9061138d565b60405180910390fd5b6104ad8282610a16565b5050565b600560009054906101000a900473ffffffffffffffffffffffffffffffffffffffff1673ffffffffffffffffffffffffffffffffffffffff16638da5cb5b6040518163ffffffff1660e01b8152600401602060405180830381865afa15801561051e573d6000803e3d6000fd5b505050506040513d601f19601f820116820180604052508101906105429190611314565b73ffffffffffffffffffffffffffffffffffffffff163373ffffffffffffffffffffffffffffffffffffffff16146105af576040517f08c379a00000000000000000000000000000000000000000000000000000000081526004016105a69061138d565b60405180910390fd5b6105b93382610a98565b50565b600560009054906101000a900473ffffffffffffffffffffffffffffffffffffffff1673ffffffffffffffffffffffffffffffffffffffff1663248804d86040518163ffffffff1660e01b8152600401602060405180830381865afa158015610629573d6000803e3d6000fd5b505050506040513d601f19601f8201168201806040525081019061064d9190611314565b73ffffffffffffffffffffffffffffffffffffffff163373ffffffffffffffffffffffffffffffffffffffff16146106ba576040517f08c379a00000000000000000000000000000000000000000000000000000000081526004016106b1906113f9565b60405180910390fd5b6106c583838361087c565b505050565b60008060008373ffffffffffffffffffffffffffffffffffffffff1673ffffffffffffffffffffffffffffffffffffffff168152602001908152602001600020549050919050565b606060048054610721906112ce565b80601f016020809104026020016040519081016040528092919081815260200182805461074d906112ce565b801561079a5780601f1061076f5761010080835404028352916020019161079a565b820191906000526020600020905b81548152906001019060200180831161077d57829003601f168201915b5050505050905090565b6000806107af610874565b90506107bc818585610922565b600191505092915050565b600560009054906101000a900473ffffffffffffffffffffffffffffffffffffffff1681565b6000600160008473ffffffffffffffffffffffffffffffffffffffff1673ffffffffffffffffffffffffffffffffffffffff16815260200190815260200160002060008373ffffffffffffffffffffffffffffffffffffffff1673ffffffffffffffffffffffffffffffffffffffff16815260200190815260200160002054905092915050565b600033905090565b6108898383836001610b1a565b505050565b600061089a84846107ed565b90507fffffffffffffffffffffffffffffffffffffffffffffffffffffffffffffffff811461091c578181101561090c578281836040517ffb8f41b200000000000000000000000000000000000000000000000000000000815260040161090393929190611428565b60405180910390fd5b61091b84848484036000610b1a565b5b50505050565b600073ffffffffffffffffffffffffffffffffffffffff168373ffffffffffffffffffffffffffffffffffffffff16036109945760006040517f96c6fd1e00000000000000000000000000000000000000000000000000000000815260040161098b919061145f565b60405180910390fd5b600073ffffffffffffffffffffffffffffffffffffffff168273ffffffffffffffffffffffffffffffffffffffff1603610a065760006040517fec442f050000000000000000000000000000000000000000000000000000000081526004016109fd919061145f565b60405180910390fd5b610a11838383610cf1565b505050565b600073ffffffffffffffffffffffffffffffffffffffff168273ffffffffffffffffffffffffffffffffffffffff1603610a885760006040517fec442f05000000000000000000000000000000000000000000000000000000008152600401610a7f919061145f565b60405180910390fd5b610a9460008383610cf1565b5050565b600073ffffffffffffffffffffffffffffffffffffffff168273ffffffffffffffffffffffffffffffffffffffff1603610b0a5760006040517f96c6fd1e000000000000000000000000000000000000000000000000000000008152600401610b01919061145f565b60405180910390fd5b610b1682600083610cf1565b5050565b600073ffffffffffffffffffffffffffffffffffffffff168473ffffffffffffffffffffffffffffffffffffffff1603610b8c5760006040517fe602df05000000000000000000000000000000000000000000000000000000008152600401610b83919061145f565b60405180910390fd5b600073ffffffffffffffffffffffffffffffffffffffff168373ffffffffffffffffffffffffffffffffffffffff1603610bfe5760006040517f94280d62000000000000000000000000000000000000000000000000000000008152600401610bf5919061145f565b60405180910390fd5b81600160008673ffffffffffffffffffffffffffffffffffffffff1673ffffffffffffffffffffffffffffffffffffffff16815260200190815260200160002060008573ffffffffffffffffffffffffffffffffffffffff1673ffffffffffffffffffffffffffffffffffffffff168152602001908152602001600020819055508015610ceb578273ffffffffffffffffffffffffffffffffffffffff168473ffffffffffffffffffffffffffffffffffffffff167f8c5be1e5ebec7d5bd14f71427d1e84f3dd0314c0f7b2291e5b200ac8c7c3b92584604051610ce291906110e6565b60405180910390a35b50505050565b600073ffffffffffffffffffffffffffffffffffffffff168373ffffffffffffffffffffffffffffffffffffffff1603610d43578060026000828254610d3791906114a9565b92505081905550610e16565b60008060008573ffffffffffffffffffffffffffffffffffffffff1673ffffffffffffffffffffffffffffffffffffffff16815260200190815260200160002054905081811015610dcf578381836040517fe450d38c000000000000000000000000000000000000000000000000000000008152600401610dc693929190611428565b60405180910390fd5b8181036000808673ffffffffffffffffffffffffffffffffffffffff1673ffffffffffffffffffffffffffffffffffffffff16815260200190815260200160002081905550505b600073ffffffffffffffffffffffffffffffffffffffff168273ffffffffffffffffffffffffffffffffffffffff1603610e5f5780600260008282540392505081905550610eac565b806000808473ffffffffffffffffffffffffffffffffffffffff1673ffffffffffffffffffffffffffffffffffffffff168152602001908152602001600020600082825401925050819055505b8173ffffffffffffffffffffffffffffffffffffffff168373ffffffffffffffffffffffffffffffffffffffff167fddf252ad1be2c89b69c2b068fc378daa952ba7f163c4a11628f55a4df523b3ef83604051610f0991906110e6565b60405180910390a3505050565b600081519050919050565b600082825260208201905092915050565b60005b83811015610f50578082015181840152602081019050610f35565b60008484015250505050565b6000601f19601f8301169050919050565b6000610f7882610f16565b610f828185610f21565b9350610f92818560208601610f32565b610f9b81610f5c565b840191505092915050565b60006020820190508181036000830152610fc08184610f6d565b905092915050565b600080fd5b600073ffffffffffffffffffffffffffffffffffffffff82169050919050565b6000610ff882610fcd565b9050919050565b61100881610fed565b811461101357600080fd5b50565b60008135905061102581610fff565b92915050565b6000819050919050565b61103e8161102b565b811461104957600080fd5b50565b60008135905061105b81611035565b92915050565b6000806040838503121561107857611077610fc8565b5b600061108685828601611016565b92505060206110978582860161104c565b9150509250929050565b60008115159050919050565b6110b6816110a1565b82525050565b60006020820190506110d160008301846110ad565b92915050565b6110e08161102b565b82525050565b60006020820190506110fb60008301846110d7565b92915050565b60008060006060848603121561111a57611119610fc8565b5b600061112886828701611016565b935050602061113986828701611016565b925050604061114a8682870161104c565b9150509250925092565b600060ff82169050919050565b61116a81611154565b82525050565b60006020820190506111856000830184611161565b92915050565b6000602082840312156111a1576111a0610fc8565b5b60006111af8482850161104c565b91505092915050565b6000602082840312156111ce576111cd610fc8565b5b60006111dc84828501611016565b91505092915050565b6000819050919050565b600061120a61120561120084610fcd565b6111e5565b610fcd565b9050919050565b600061121c826111ef565b9050919050565b600061122e82611211565b9050919050565b61123e81611223565b82525050565b60006020820190506112596000830184611235565b92915050565b6000806040838503121561127657611275610fc8565b5b600061128485828601611016565b925050602061129585828601611016565b9150509250929050565b7f4e487b7100000000000000000000000000000000000000000000000000000000600052602260045260246000fd5b600060028204905060018216806112e657607f821691505b6020821081036112f9576112f861129f565b5b50919050565b60008151905061130e81610fff565b92915050565b60006020828403121561132a57611329610fc8565b5b6000611338848285016112ff565b91505092915050565b7f6163636573732064656e69656400000000000000000000000000000000000000600082015250565b6000611377600d83610f21565b915061138282611341565b602082019050919050565b600060208201905081810360008301526113a68161136a565b9050919050565b7f696e76616c69642064656c656761746f72000000000000000000000000000000600082015250565b60006113e3601183610f21565b91506113ee826113ad565b602082019050919050565b60006020820190508181036000830152611412816113d6565b9050919050565b61142281610fed565b82525050565b600060608201905061143d6000830186611419565b61144a60208301856110d7565b61145760408301846110d7565b949350505050565b60006020820190506114746000830184611419565b92915050565b7f4e487b7100000000000000000000000000000000000000000000000000000000600052601160045260246000fd5b60006114b48261102b565b91506114bf8361102b565b92508282019050808211156114d7576114d661147a565b5b9291505056fea26469706673582212206f52a2efdaab40043055c3ab6ceba82ae39c41ec571a83869a66889d095e94ef64736f6c63430008140033",
  "linkReferences": {},
  "deployedLinkReferences": {}
}