{
  "_format": "hh-sol-artifact-1",
  "contractName": "Coin",
  "sourceName": "contracts/Coin.sol",
  "abi": [
    {
      "inputs": [
        {
          "internalType": "string",
          "name": "_name",
          "type": "string"
        },
        {
          "internalType": "string",
          "name": "_symbol",
          "type": "string"
        },
        {
          "internalType": "address",
          "name": "_config",
          "type": "address"
        }
      ],
      "stateMutability": "nonpayable",
      "type": "constructor"
    },
    {
      "inputs": [
        {
          "internalType": "address",
          "name": "spender",
          "type": "address"
        },
        {
          "internalType": "uint256",
          "name": "allowance",
          "type": "uint256"
        },
        {
          "internalType": "uint256",
          "name": "needed",
          "type": "uint256"
        }
      ],
      "name": "ERC20InsufficientAllowance",
      "type": "error"
    },
    {
      "inputs": [
        {
          "internalType": "address",
          "name": "sender",
          "type": "address"
        },
        {
          "internalType": "uint256",
          "name": "balance",
          "type": "uint256"
        },
        {
          "internalType": "uint256",
          "name": "needed",
          "type": "uint256"
        }
      ],
      "name": "ERC20InsufficientBalance",
      "type": "error"
    },
    {
      "inputs": [
        {
          "internalType": "address",
          "name": "approver",
          "type": "address"
        }
      ],
      "name": "ERC20InvalidApprover",
      "type": "error"
    },
    {
      "inputs": [
        {
          "internalType": "address",
          "name": "receiver",
          "type": "address"
        }
      ],
      "name": "ERC20InvalidReceiver",
      "type": "error"
    },
    {
      "inputs": [
        {
          "internalType": "address",
          "name": "sender",
          "type": "address"
        }
      ],
      "name": "ERC20InvalidSender",
      "type": "error"
    },
    {
      "inputs": [
        {
          "internalType": "address",
          "name": "spender",
          "type": "address"
        }
      ],
      "name": "ERC20InvalidSpender",
      "type": "error"
    },
    {
      "inputs": [],
      "name": "InvalidShortString",
      "type": "error"
    },
    {
      "inputs": [
        {
          "internalType": "string",
          "name": "str",
          "type": "string"
        }
      ],
      "name": "StringTooLong",
      "type": "error"
    },
    {
      "anonymous": false,
      "inputs": [
        {
          "indexed": true,
          "internalType": "address",
          "name": "owner",
          "type": "address"
        },
        {
          "indexed": true,
          "internalType": "address",
          "name": "spender",
          "type": "address"
        },
        {
          "indexed": false,
          "internalType": "uint256",
          "name": "value",
          "type": "uint256"
        }
      ],
      "name": "Approval",
      "type": "event"
    },
    {
      "anonymous": false,
      "inputs": [],
      "name": "EIP712DomainChanged",
      "type": "event"
    },
    {
      "anonymous": false,
      "inputs": [
        {
          "indexed": true,
          "internalType": "address",
          "name": "from",
          "type": "address"
        },
        {
          "indexed": true,
          "internalType": "address",
          "name": "to",
          "type": "address"
        },
        {
          "indexed": false,
          "internalType": "uint256",
          "name": "value",
          "type": "uint256"
        }
      ],
      "name": "Transfer",
      "type": "event"
    },
    {
      "inputs": [],
      "name": "CONFIG",
      "outputs": [
        {
          "internalType": "contract Config",
          "name": "",
          "type": "address"
        }
      ],
      "stateMutability": "view",
      "type": "function"
    },
    {
      "inputs": [
        {
          "internalType": "address",
          "name": "owner",
          "type": "address"
        },
        {
          "internalType": "address",
          "name": "spender",
          "type": "address"
        }
      ],
      "name": "allowance",
      "outputs": [
        {
          "internalType": "uint256",
          "name": "",
          "type": "uint256"
        }
      ],
      "stateMutability": "view",
      "type": "function"
    },
    {
      "inputs": [
        {
          "internalType": "address",
          "name": "spender",
          "type": "address"
        },
        {
          "internalType": "uint256",
          "name": "value",
          "type": "uint256"
        }
      ],
      "name": "approve",
      "outputs": [
        {
          "internalType": "bool",
          "name": "",
          "type": "bool"
        }
      ],
      "stateMutability": "nonpayable",
      "type": "function"
    },
    {
      "inputs": [
        {
          "internalType": "address",
          "name": "user",
          "type": "address"
        },
        {
          "internalType": "address",
          "name": "spender",
          "type": "address"
        },
        {
          "internalType": "uint256",
          "name": "amount",
          "type": "uint256"
        }
      ],
      "name": "approveByDelegator",
      "outputs": [],
      "stateMutability": "nonpayable",
      "type": "function"
    },
    {
      "inputs": [
        {
          "internalType": "address",
          "name": "account",
          "type": "address"
        }
      ],
      "name": "balanceOf",
      "outputs": [
        {
          "internalType": "uint256",
          "name": "",
          "type": "uint256"
        }
      ],
      "stateMutability": "view",
      "type": "function"
    },
    {
      "inputs": [
        {
          "internalType": "uint256",
          "name": "amount",
          "type": "uint256"
        }
      ],
      "name": "burn",
      "outputs": [],
      "stateMutability": "nonpayable",
      "type": "function"
    },
    {
      "inputs": [],
      "name": "decimals",
      "outputs": [
        {
          "internalType": "uint8",
          "name": "",
          "type": "uint8"
        }
      ],
      "stateMutability": "view",
      "type": "function"
    },
    {
      "inputs": [],
      "name": "eip712Domain",
      "outputs": [
        {
          "internalType": "bytes1",
          "name": "fields",
          "type": "bytes1"
        },
        {
          "internalType": "string",
          "name": "name",
          "type": "string"
        },
        {
          "internalType": "string",
          "name": "version",
          "type": "string"
        },
        {
          "internalType": "uint256",
          "name": "chainId",
          "type": "uint256"
        },
        {
          "internalType": "address",
          "name": "verifyingContract",
          "type": "address"
        },
        {
          "internalType": "bytes32",
          "name": "salt",
          "type": "bytes32"
        },
        {
          "internalType": "uint256[]",
          "name": "extensions",
          "type": "uint256[]"
        }
      ],
      "stateMutability": "view",
      "type": "function"
    },
    {
      "inputs": [
        {
          "internalType": "address",
          "name": "to",
          "type": "address"
        },
        {
          "internalType": "uint256",
          "name": "amount",
          "type": "uint256"
        }
      ],
      "name": "mint",
      "outputs": [],
      "stateMutability": "nonpayable",
      "type": "function"
    },
    {
      "inputs": [],
      "name": "name",
      "outputs": [
        {
          "internalType": "string",
          "name": "",
          "type": "string"
        }
      ],
      "stateMutability": "view",
      "type": "function"
    },
    {
      "inputs": [],
      "name": "symbol",
      "outputs": [
        {
          "internalType": "string",
          "name": "",
          "type": "string"
        }
      ],
      "stateMutability": "view",
      "type": "function"
    },
    {
      "inputs": [],
      "name": "totalSupply",
      "outputs": [
        {
          "internalType": "uint256",
          "name": "",
          "type": "uint256"
        }
      ],
      "stateMutability": "view",
      "type": "function"
    },
    {
      "inputs": [
        {
          "internalType": "address",
          "name": "to",
          "type": "address"
        },
        {
          "internalType": "uint256",
          "name": "value",
          "type": "uint256"
        }
      ],
      "name": "transfer",
      "outputs": [
        {
          "internalType": "bool",
          "name": "",
          "type": "bool"
        }
      ],
      "stateMutability": "nonpayable",
      "type": "function"
    },
    {
      "inputs": [
        {
          "internalType": "address",
          "name": "from",
          "type": "address"
        },
        {
          "internalType": "address",
          "name": "to",
          "type": "address"
        },
        {
          "internalType": "uint256",
          "name": "value",
          "type": "uint256"
        }
      ],
      "name": "transferFrom",
      "outputs": [
        {
          "internalType": "bool",
          "name": "",
          "type": "bool"
        }
      ],
      "stateMutability": "nonpayable",
      "type": "function"
    }
  ],
  "bytecode": "0x6101606040523480156200001257600080fd5b5060405162002430380380620024308339818101604052810190620000389190620004bb565b826040518060400160405280600181526020017f310000000000000000000000000000000000000000000000000000000000000081525084848482828160039081620000859190620007a0565b508060049081620000979190620007a0565b50505080600560006101000a81548173ffffffffffffffffffffffffffffffffffffffff021916908373ffffffffffffffffffffffffffffffffffffffff160217905550505050620000f46006836200019760201b90919060201c565b6101208181525050620001126007826200019760201b90919060201c565b6101408181525050818051906020012060e08181525050808051906020012061010081815250504660a0818152505062000151620001ef60201b60201c565b608081815250503073ffffffffffffffffffffffffffffffffffffffff1660c08173ffffffffffffffffffffffffffffffffffffffff1681525050505050505062000a39565b6000602083511015620001bd57620001b5836200024c60201b60201c565b9050620001e9565b82620001cf83620002b960201b60201c565b6000019081620001e09190620007a0565b5060ff60001b90505b92915050565b60007f8b73c3c69bb8fe3d512ecc4cf759cc79239f7b179b0ffacaa9a75d522b39400f60e05161010051463060405160200162000231959493929190620008c4565b60405160208183030381529060405280519060200120905090565b600080829050601f815111156200029c57826040517f305a27a900000000000000000000000000000000000000000000000000000000815260040162000293919062000973565b60405180910390fd5b805181620002aa90620009c9565b60001c1760001b915050919050565b6000819050919050565b6000604051905090565b600080fd5b600080fd5b600080fd5b600080fd5b6000601f19601f8301169050919050565b7f4e487b7100000000000000000000000000000000000000000000000000000000600052604160045260246000fd5b6200032c82620002e1565b810181811067ffffffffffffffff821117156200034e576200034d620002f2565b5b80604052505050565b600062000363620002c3565b905062000371828262000321565b919050565b600067ffffffffffffffff821115620003945762000393620002f2565b5b6200039f82620002e1565b9050602081019050919050565b60005b83811015620003cc578082015181840152602081019050620003af565b60008484015250505050565b6000620003ef620003e98462000376565b62000357565b9050828152602081018484840111156200040e576200040d620002dc565b5b6200041b848285620003ac565b509392505050565b600082601f8301126200043b576200043a620002d7565b5b81516200044d848260208601620003d8565b91505092915050565b600073ffffffffffffffffffffffffffffffffffffffff82169050919050565b6000620004838262000456565b9050919050565b620004958162000476565b8114620004a157600080fd5b50565b600081519050620004b5816200048a565b92915050565b600080600060608486031215620004d757620004d6620002cd565b5b600084015167ffffffffffffffff811115620004f857620004f7620002d2565b5b620005068682870162000423565b935050602084015167ffffffffffffffff8111156200052a5762000529620002d2565b5b620005388682870162000423565b92505060406200054b86828701620004a4565b9150509250925092565b600081519050919050565b7f4e487b7100000000000000000000000000000000000000000000000000000000600052602260045260246000fd5b60006002820490506001821680620005a857607f821691505b602082108103620005be57620005bd62000560565b5b50919050565b60008190508160005260206000209050919050565b60006020601f8301049050919050565b600082821b905092915050565b600060088302620006287fffffffffffffffffffffffffffffffffffffffffffffffffffffffffffffffff82620005e9565b620006348683620005e9565b95508019841693508086168417925050509392505050565b6000819050919050565b6000819050919050565b6000620006816200067b62000675846200064c565b62000656565b6200064c565b9050919050565b6000819050919050565b6200069d8362000660565b620006b5620006ac8262000688565b848454620005f6565b825550505050565b600090565b620006cc620006bd565b620006d981848462000692565b505050565b5b818110156200070157620006f5600082620006c2565b600181019050620006df565b5050565b601f82111562000750576200071a81620005c4565b6200072584620005d9565b8101602085101562000735578190505b6200074d6200074485620005d9565b830182620006de565b50505b505050565b600082821c905092915050565b6000620007756000198460080262000755565b1980831691505092915050565b600062000790838362000762565b9150826002028217905092915050565b620007ab8262000555565b67ffffffffffffffff811115620007c757620007c6620002f2565b5b620007d382546200058f565b620007e082828562000705565b600060209050601f83116001811462000818576000841562000803578287015190505b6200080f858262000782565b8655506200087f565b601f1984166200082886620005c4565b60005b8281101562000852578489015182556001820191506020850194506020810190506200082b565b868310156200087257848901516200086e601f89168262000762565b8355505b6001600288020188555050505b505050505050565b6000819050919050565b6200089c8162000887565b82525050565b620008ad816200064c565b82525050565b620008be8162000476565b82525050565b600060a082019050620008db600083018862000891565b620008ea602083018762000891565b620008f9604083018662000891565b620009086060830185620008a2565b620009176080830184620008b3565b9695505050505050565b600082825260208201905092915050565b60006200093f8262000555565b6200094b818562000921565b93506200095d818560208601620003ac565b6200096881620002e1565b840191505092915050565b600060208201905081810360008301526200098f818462000932565b905092915050565b600081519050919050565b6000819050602082019050919050565b6000620009c0825162000887565b80915050919050565b6000620009d68262000997565b82620009e284620009a2565b9050620009ef81620009b2565b9250602082101562000a325762000a2d7fffffffffffffffffffffffffffffffffffffffffffffffffffffffffffffffff83602003600802620005e9565b831692505b5050919050565b60805160a05160c05160e0516101005161012051610140516119ab62000a856000396000610c4701526000610c0c015260005050600050506000505060005050600050506119ab6000f3fe608060405234801561001057600080fd5b50600436106100ea5760003560e01c80634c5d8e431161008c57806395d89b411161006657806395d89b4114610251578063a9059cbb1461026f578063d92e82e41461029f578063dd62ed3e146102bd576100ea565b80634c5d8e43146101e157806370a08231146101fd57806384b0196e1461022d576100ea565b806323b872dd116100c857806323b872dd1461015b578063313ce5671461018b57806340c10f19146101a957806342966c68146101c5576100ea565b806306fdde03146100ef578063095ea7b31461010d57806318160ddd1461013d575b600080fd5b6100f76102ed565b6040516101049190611279565b60405180910390f35b61012760048036038101906101229190611334565b61037f565b604051610134919061138f565b60405180910390f35b6101456103a2565b60405161015291906113b9565b60405180910390f35b610175600480360381019061017091906113d4565b6103ac565b604051610182919061138f565b60405180910390f35b6101936103db565b6040516101a09190611443565b60405180910390f35b6101c360048036038101906101be9190611334565b6103e4565b005b6101df60048036038101906101da919061145e565b6104f0565b005b6101fb60048036038101906101f691906113d4565b6105fb565b005b6102176004803603810190610212919061148b565b610709565b60405161022491906113b9565b60405180910390f35b610235610751565b60405161024897969594939291906115d9565b60405180910390f35b6102596107fb565b6040516102669190611279565b60405180910390f35b61028960048036038101906102849190611334565b61088d565b604051610296919061138f565b60405180910390f35b6102a76108b0565b6040516102b491906116bc565b60405180910390f35b6102d760048036038101906102d291906116d7565b6108d6565b6040516102e491906113b9565b60405180910390f35b6060600380546102fc90611746565b80601f016020809104026020016040519081016040528092919081815260200182805461032890611746565b80156103755780601f1061034a57610100808354040283529160200191610375565b820191906000526020600020905b81548152906001019060200180831161035857829003601f168201915b5050505050905090565b60008061038a61095d565b9050610397818585610965565b600191505092915050565b6000600254905090565b6000806103b761095d565b90506103c4858285610977565b6103cf858585610a0b565b60019150509392505050565b60006012905090565b600560009054906101000a900473ffffffffffffffffffffffffffffffffffffffff1673ffffffffffffffffffffffffffffffffffffffff16638da5cb5b6040518163ffffffff1660e01b8152600401602060405180830381865afa158015610451573d6000803e3d6000fd5b505050506040513d601f19601f82011682018060405250810190610475919061178c565b73ffffffffffffffffffffffffffffffffffffffff163373ffffffffffffffffffffffffffffffffffffffff16146104e2576040517f08c379a00000000000000000000000000000000000000000000000000000000081526004016104d990611805565b60405180910390fd5b6104ec8282610aff565b5050565b600560009054906101000a900473ffffffffffffffffffffffffffffffffffffffff1673ffffffffffffffffffffffffffffffffffffffff16638da5cb5b6040518163ffffffff1660e01b8152600401602060405180830381865afa15801561055d573d6000803e3d6000fd5b505050506040513d601f19601f82011682018060405250810190610581919061178c565b73ffffffffffffffffffffffffffffffffffffffff163373ffffffffffffffffffffffffffffffffffffffff16146105ee576040517f08c379a00000000000000000000000000000000000000000000000000000000081526004016105e590611805565b60405180910390fd5b6105f83382610b81565b50565b600560009054906101000a900473ffffffffffffffffffffffffffffffffffffffff1673ffffffffffffffffffffffffffffffffffffffff1663248804d86040518163ffffffff1660e01b8152600401602060405180830381865afa158015610668573d6000803e3d6000fd5b505050506040513d601f19601f8201168201806040525081019061068c919061178c565b73ffffffffffffffffffffffffffffffffffffffff163373ffffffffffffffffffffffffffffffffffffffff16146106f9576040517f08c379a00000000000000000000000000000000000000000000000000000000081526004016106f090611871565b60405180910390fd5b610704838383610965565b505050565b60008060008373ffffffffffffffffffffffffffffffffffffffff1673ffffffffffffffffffffffffffffffffffffffff168152602001908152602001600020549050919050565b600060608060008060006060610765610c03565b61076d610c3e565b46306000801b600067ffffffffffffffff81111561078e5761078d611891565b5b6040519080825280602002602001820160405280156107bc5781602001602082028036833780820191505090505b507f0f00000000000000000000000000000000000000000000000000000000000000959493929190965096509650965096509650965090919293949596565b60606004805461080a90611746565b80601f016020809104026020016040519081016040528092919081815260200182805461083690611746565b80156108835780601f1061085857610100808354040283529160200191610883565b820191906000526020600020905b81548152906001019060200180831161086657829003601f168201915b5050505050905090565b60008061089861095d565b90506108a5818585610a0b565b600191505092915050565b600560009054906101000a900473ffffffffffffffffffffffffffffffffffffffff1681565b6000600160008473ffffffffffffffffffffffffffffffffffffffff1673ffffffffffffffffffffffffffffffffffffffff16815260200190815260200160002060008373ffffffffffffffffffffffffffffffffffffffff1673ffffffffffffffffffffffffffffffffffffffff16815260200190815260200160002054905092915050565b600033905090565b6109728383836001610c79565b505050565b600061098384846108d6565b90507fffffffffffffffffffffffffffffffffffffffffffffffffffffffffffffffff8114610a0557818110156109f5578281836040517ffb8f41b20000000000000000000000000000000000000000000000000000000081526004016109ec939291906118c0565b60405180910390fd5b610a0484848484036000610c79565b5b50505050565b600073ffffffffffffffffffffffffffffffffffffffff168373ffffffffffffffffffffffffffffffffffffffff1603610a7d5760006040517f96c6fd1e000000000000000000000000000000000000000000000000000000008152600401610a7491906118f7565b60405180910390fd5b600073ffffffffffffffffffffffffffffffffffffffff168273ffffffffffffffffffffffffffffffffffffffff1603610aef5760006040517fec442f05000000000000000000000000000000000000000000000000000000008152600401610ae691906118f7565b60405180910390fd5b610afa838383610e50565b505050565b600073ffffffffffffffffffffffffffffffffffffffff168273ffffffffffffffffffffffffffffffffffffffff1603610b715760006040517fec442f05000000000000000000000000000000000000000000000000000000008152600401610b6891906118f7565b60405180910390fd5b610b7d60008383610e50565b5050565b600073ffffffffffffffffffffffffffffffffffffffff168273ffffffffffffffffffffffffffffffffffffffff1603610bf35760006040517f96c6fd1e000000000000000000000000000000000000000000000000000000008152600401610bea91906118f7565b60405180910390fd5b610bff82600083610e50565b5050565b6060610c3960067f000000000000000000000000000000000000000000000000000000000000000061107590919063ffffffff16565b905090565b6060610c7460077f000000000000000000000000000000000000000000000000000000000000000061107590919063ffffffff16565b905090565b600073ffffffffffffffffffffffffffffffffffffffff168473ffffffffffffffffffffffffffffffffffffffff1603610ceb5760006040517fe602df05000000000000000000000000000000000000000000000000000000008152600401610ce291906118f7565b60405180910390fd5b600073ffffffffffffffffffffffffffffffffffffffff168373ffffffffffffffffffffffffffffffffffffffff1603610d5d5760006040517f94280d62000000000000000000000000000000000000000000000000000000008152600401610d5491906118f7565b60405180910390fd5b81600160008673ffffffffffffffffffffffffffffffffffffffff1673ffffffffffffffffffffffffffffffffffffffff16815260200190815260200160002060008573ffffffffffffffffffffffffffffffffffffffff1673ffffffffffffffffffffffffffffffffffffffff168152602001908152602001600020819055508015610e4a578273ffffffffffffffffffffffffffffffffffffffff168473ffffffffffffffffffffffffffffffffffffffff167f8c5be1e5ebec7d5bd14f71427d1e84f3dd0314c0f7b2291e5b200ac8c7c3b92584604051610e4191906113b9565b60405180910390a35b50505050565b600073ffffffffffffffffffffffffffffffffffffffff168373ffffffffffffffffffffffffffffffffffffffff1603610ea2578060026000828254610e969190611941565b92505081905550610f75565b60008060008573ffffffffffffffffffffffffffffffffffffffff1673ffffffffffffffffffffffffffffffffffffffff16815260200190815260200160002054905081811015610f2e578381836040517fe450d38c000000000000000000000000000000000000000000000000000000008152600401610f25939291906118c0565b60405180910390fd5b8181036000808673ffffffffffffffffffffffffffffffffffffffff1673ffffffffffffffffffffffffffffffffffffffff16815260200190815260200160002081905550505b600073ffffffffffffffffffffffffffffffffffffffff168273ffffffffffffffffffffffffffffffffffffffff1603610fbe578060026000828254039250508190555061100b565b806000808473ffffffffffffffffffffffffffffffffffffffff1673ffffffffffffffffffffffffffffffffffffffff168152602001908152602001600020600082825401925050819055505b8173ffffffffffffffffffffffffffffffffffffffff168373ffffffffffffffffffffffffffffffffffffffff167fddf252ad1be2c89b69c2b068fc378daa952ba7f163c4a11628f55a4df523b3ef8360405161106891906113b9565b60405180910390a3505050565b606060ff60001b83146110925761108b83611125565b905061111f565b81805461109e90611746565b80601f01602080910402602001604051908101604052809291908181526020018280546110ca90611746565b80156111175780601f106110ec57610100808354040283529160200191611117565b820191906000526020600020905b8154815290600101906020018083116110fa57829003601f168201915b505050505090505b92915050565b6060600061113283611199565b90506000602067ffffffffffffffff81111561115157611150611891565b5b6040519080825280601f01601f1916602001820160405280156111835781602001600182028036833780820191505090505b5090508181528360208201528092505050919050565b60008060ff8360001c169050601f8111156111e0576040517fb3512b0c00000000000000000000000000000000000000000000000000000000815260040160405180910390fd5b80915050919050565b600081519050919050565b600082825260208201905092915050565b60005b83811015611223578082015181840152602081019050611208565b60008484015250505050565b6000601f19601f8301169050919050565b600061124b826111e9565b61125581856111f4565b9350611265818560208601611205565b61126e8161122f565b840191505092915050565b600060208201905081810360008301526112938184611240565b905092915050565b600080fd5b600073ffffffffffffffffffffffffffffffffffffffff82169050919050565b60006112cb826112a0565b9050919050565b6112db816112c0565b81146112e657600080fd5b50565b6000813590506112f8816112d2565b92915050565b6000819050919050565b611311816112fe565b811461131c57600080fd5b50565b60008135905061132e81611308565b92915050565b6000806040838503121561134b5761134a61129b565b5b6000611359858286016112e9565b925050602061136a8582860161131f565b9150509250929050565b60008115159050919050565b61138981611374565b82525050565b60006020820190506113a46000830184611380565b92915050565b6113b3816112fe565b82525050565b60006020820190506113ce60008301846113aa565b92915050565b6000806000606084860312156113ed576113ec61129b565b5b60006113fb868287016112e9565b935050602061140c868287016112e9565b925050604061141d8682870161131f565b9150509250925092565b600060ff82169050919050565b61143d81611427565b82525050565b60006020820190506114586000830184611434565b92915050565b6000602082840312156114745761147361129b565b5b60006114828482850161131f565b91505092915050565b6000602082840312156114a1576114a061129b565b5b60006114af848285016112e9565b91505092915050565b60007fff0000000000000000000000000000000000000000000000000000000000000082169050919050565b6114ed816114b8565b82525050565b6114fc816112c0565b82525050565b6000819050919050565b61151581611502565b82525050565b600081519050919050565b600082825260208201905092915050565b6000819050602082019050919050565b611550816112fe565b82525050565b60006115628383611547565b60208301905092915050565b6000602082019050919050565b60006115868261151b565b6115908185611526565b935061159b83611537565b8060005b838110156115cc5781516115b38882611556565b97506115be8361156e565b92505060018101905061159f565b5085935050505092915050565b600060e0820190506115ee600083018a6114e4565b81810360208301526116008189611240565b905081810360408301526116148188611240565b905061162360608301876113aa565b61163060808301866114f3565b61163d60a083018561150c565b81810360c083015261164f818461157b565b905098975050505050505050565b6000819050919050565b600061168261167d611678846112a0565b61165d565b6112a0565b9050919050565b600061169482611667565b9050919050565b60006116a682611689565b9050919050565b6116b68161169b565b82525050565b60006020820190506116d160008301846116ad565b92915050565b600080604083850312156116ee576116ed61129b565b5b60006116fc858286016112e9565b925050602061170d858286016112e9565b9150509250929050565b7f4e487b7100000000000000000000000000000000000000000000000000000000600052602260045260246000fd5b6000600282049050600182168061175e57607f821691505b60208210810361177157611770611717565b5b50919050565b600081519050611786816112d2565b92915050565b6000602082840312156117a2576117a161129b565b5b60006117b084828501611777565b91505092915050565b7f6163636573732064656e69656400000000000000000000000000000000000000600082015250565b60006117ef600d836111f4565b91506117fa826117b9565b602082019050919050565b6000602082019050818103600083015261181e816117e2565b9050919050565b7f696e76616c69642064656c656761746f72000000000000000000000000000000600082015250565b600061185b6011836111f4565b915061186682611825565b602082019050919050565b6000602082019050818103600083015261188a8161184e565b9050919050565b7f4e487b7100000000000000000000000000000000000000000000000000000000600052604160045260246000fd5b60006060820190506118d560008301866114f3565b6118e260208301856113aa565b6118ef60408301846113aa565b949350505050565b600060208201905061190c60008301846114f3565b92915050565b7f4e487b7100000000000000000000000000000000000000000000000000000000600052601160045260246000fd5b600061194c826112fe565b9150611957836112fe565b925082820190508082111561196f5761196e611912565b5b9291505056fea26469706673582212204f103752933a268bb5b82e897b23f24af0fb61b26af020a0396b9173b958f72364736f6c63430008140033",
  "linkReferences": {},
  "deployedLinkReferences": {}
}