{
  "_format": "hh-sol-artifact-1",
  "contractName": "DAO",
  "sourceName": "contracts/DAO.sol",
  "abi": [
    {
      "inputs": [
        {
          "internalType": "address",
          "name": "_cfg",
          "type": "address"
        }
      ],
      "stateMutability": "nonpayable",
      "type": "constructor"
    },
    {
      "anonymous": false,
      "inputs": [
        {
          "indexed": false,
          "internalType": "uint256",
          "name": "_ts",
          "type": "uint256"
        },
        {
          "indexed": false,
          "internalType": "uint256",
          "name": "_price",
          "type": "uint256"
        }
      ],
      "name": "PriceUpdate",
      "type": "event"
    },
    {
      "inputs": [],
      "name": "CONFIG",
      "outputs": [
        {
          "internalType": "contract Config",
          "name": "",
          "type": "address"
        }
      ],
      "stateMutability": "view",
      "type": "function"
    },
    {
      "inputs": [
        {
          "internalType": "uint256",
          "name": "amountCoin",
          "type": "uint256"
        },
        {
          "internalType": "address",
          "name": "receiver",
          "type": "address"
        }
      ],
      "name": "borrowCollateral",
      "outputs": [],
      "stateMutability": "nonpayable",
      "type": "function"
    },
    {
      "inputs": [],
      "name": "borrowedCoin",
      "outputs": [
        {
          "internalType": "uint256",
          "name": "",
          "type": "uint256"
        }
      ],
      "stateMutability": "view",
      "type": "function"
    },
    {
      "inputs": [
        {
          "internalType": "address",
          "name": "user",
          "type": "address"
        },
        {
          "internalType": "uint256",
          "name": "amountCoin",
          "type": "uint256"
        }
      ],
      "name": "coinToToken",
      "outputs": [
        {
          "internalType": "uint256",
          "name": "",
          "type": "uint256"
        },
        {
          "internalType": "uint256",
          "name": "",
          "type": "uint256"
        }
      ],
      "stateMutability": "view",
      "type": "function"
    },
    {
      "inputs": [],
      "name": "getBasePrice",
      "outputs": [
        {
          "internalType": "uint256",
          "name": "realPrice",
          "type": "uint256"
        },
        {
          "internalType": "uint256",
          "name": "maxPrice",
          "type": "uint256"
        },
        {
          "internalType": "uint256",
          "name": "basePrice",
          "type": "uint256"
        }
      ],
      "stateMutability": "view",
      "type": "function"
    },
    {
      "inputs": [],
      "name": "lastPrice",
      "outputs": [
        {
          "internalType": "uint256",
          "name": "",
          "type": "uint256"
        }
      ],
      "stateMutability": "view",
      "type": "function"
    },
    {
      "inputs": [
        {
          "internalType": "uint256",
          "name": "amountCoin",
          "type": "uint256"
        }
      ],
      "name": "returnCollateral",
      "outputs": [],
      "stateMutability": "nonpayable",
      "type": "function"
    },
    {
      "inputs": [],
      "name": "startTime",
      "outputs": [
        {
          "internalType": "uint256",
          "name": "",
          "type": "uint256"
        }
      ],
      "stateMutability": "view",
      "type": "function"
    },
    {
      "inputs": [
        {
          "internalType": "uint256",
          "name": "amountCoin",
          "type": "uint256"
        },
        {
          "internalType": "uint256",
          "name": "resultMinimum",
          "type": "uint256"
        }
      ],
      "name": "swapCoinToToken",
      "outputs": [
        {
          "internalType": "uint256",
          "name": "",
          "type": "uint256"
        }
      ],
      "stateMutability": "nonpayable",
      "type": "function"
    },
    {
      "inputs": [
        {
          "internalType": "address",
          "name": "user",
          "type": "address"
        },
        {
          "internalType": "uint256",
          "name": "amountCoin",
          "type": "uint256"
        },
        {
          "internalType": "uint256",
          "name": "resultMinimum",
          "type": "uint256"
        }
      ],
      "name": "swapCoinToTokenByDelegator",
      "outputs": [
        {
          "internalType": "uint256",
          "name": "",
          "type": "uint256"
        }
      ],
      "stateMutability": "nonpayable",
      "type": "function"
    },
    {
      "inputs": [
        {
          "internalType": "uint256",
          "name": "amountToken",
          "type": "uint256"
        },
        {
          "internalType": "uint256",
          "name": "resultMinimum",
          "type": "uint256"
        }
      ],
      "name": "swapTokenToCoin",
      "outputs": [
        {
          "internalType": "uint256",
          "name": "",
          "type": "uint256"
        }
      ],
      "stateMutability": "nonpayable",
      "type": "function"
    },
    {
      "inputs": [
        {
          "internalType": "address",
          "name": "user",
          "type": "address"
        },
        {
          "internalType": "uint256",
          "name": "amountToken",
          "type": "uint256"
        },
        {
          "internalType": "uint256",
          "name": "resultMinimum",
          "type": "uint256"
        }
      ],
      "name": "swapTokenToCoinByDelegator",
      "outputs": [
        {
          "internalType": "uint256",
          "name": "",
          "type": "uint256"
        }
      ],
      "stateMutability": "nonpayable",
      "type": "function"
    },
    {
      "inputs": [
        {
          "internalType": "address",
          "name": "user",
          "type": "address"
        },
        {
          "internalType": "uint256",
          "name": "amountToken",
          "type": "uint256"
        }
      ],
      "name": "tokenToCoin",
      "outputs": [
        {
          "internalType": "uint256",
          "name": "",
          "type": "uint256"
        },
        {
          "internalType": "uint256",
          "name": "",
          "type": "uint256"
        }
      ],
      "stateMutability": "view",
      "type": "function"
    }
  ],
  "bytecode": "0x60806040523480156200001157600080fd5b5060405162001ea838038062001ea88339818101604052810190620000379190620000f7565b670de0b6b3a7640000600181905550806000806101000a81548173ffffffffffffffffffffffffffffffffffffffff021916908373ffffffffffffffffffffffffffffffffffffffff1602179055505062000129565b600080fd5b600073ffffffffffffffffffffffffffffffffffffffff82169050919050565b6000620000bf8262000092565b9050919050565b620000d181620000b2565b8114620000dd57600080fd5b50565b600081519050620000f181620000c6565b92915050565b60006020828403121562000110576200010f6200008d565b5b60006200012084828501620000e0565b91505092915050565b611d6f80620001396000396000f3fe608060405234801561001057600080fd5b50600436106100cf5760003560e01c806375efd1df1161008c578063afb2557e11610066578063afb2557e14610227578063b49f4afd14610257578063b66dca1514610277578063d92e82e4146102a8576100cf565b806375efd1df146101cf57806378e97925146101ed57806394fb89ab1461020b576100cf565b806302fa7acb146100d4578063053f14da14610104578063411df6f31461012257806344e02dbc1461015257806364c42d031461016e5780636b6c041e1461019e575b600080fd5b6100ee60048036038101906100e991906116b4565b6102c6565b6040516100fb9190611716565b60405180910390f35b61010c610421565b6040516101199190611716565b60405180910390f35b61013c60048036038101906101379190611731565b610427565b6040516101499190611716565b60405180910390f35b61016c60048036038101906101679190611771565b610483565b005b610188600480360381019061018391906116b4565b6106a5565b6040516101959190611716565b60405180910390f35b6101b860048036038101906101b3919061179e565b610800565b6040516101c69291906117de565b60405180910390f35b6101d7610907565b6040516101e49190611716565b60405180910390f35b6101f561090d565b6040516102029190611716565b60405180910390f35b61022560048036038101906102209190611807565b610913565b005b610241600480360381019061023c9190611731565b610b34565b60405161024e9190611716565b60405180910390f35b61025f610b90565b60405161026e93929190611847565b60405180910390f35b610291600480360381019061028c919061179e565b610fb2565b60405161029f9291906117de565b60405180910390f35b6102b06110b9565b6040516102bd91906118dd565b60405180910390f35b60008060009054906101000a900473ffffffffffffffffffffffffffffffffffffffff1673ffffffffffffffffffffffffffffffffffffffff1663248804d86040518163ffffffff1660e01b8152600401602060405180830381865afa158015610334573d6000803e3d6000fd5b505050506040513d601f19601f82011682018060405250810190610358919061190d565b73ffffffffffffffffffffffffffffffffffffffff163373ffffffffffffffffffffffffffffffffffffffff16146103c5576040517f08c379a00000000000000000000000000000000000000000000000000000000081526004016103bc90611997565b60405180910390fd5b60006103d185856110dd565b905082811015610416576040517f08c379a000000000000000000000000000000000000000000000000000000000815260040161040d90611a03565b60405180910390fd5b809150509392505050565b60015481565b60008061043433856110dd565b905082811015610479576040517f08c379a000000000000000000000000000000000000000000000000000000000815260040161047090611a03565b60405180910390fd5b8091505092915050565b60008054906101000a900473ffffffffffffffffffffffffffffffffffffffff1673ffffffffffffffffffffffffffffffffffffffff16638bcf4b3b6040518163ffffffff1660e01b8152600401602060405180830381865afa1580156104ee573d6000803e3d6000fd5b505050506040513d601f19601f82011682018060405250810190610512919061190d565b73ffffffffffffffffffffffffffffffffffffffff163373ffffffffffffffffffffffffffffffffffffffff161461057f576040517f08c379a000000000000000000000000000000000000000000000000000000000815260040161057690611a6f565b60405180910390fd5b60008054906101000a900473ffffffffffffffffffffffffffffffffffffffff1673ffffffffffffffffffffffffffffffffffffffff1663165310c56040518163ffffffff1660e01b8152600401602060405180830381865afa1580156105ea573d6000803e3d6000fd5b505050506040513d601f19601f8201168201806040525081019061060e919061190d565b73ffffffffffffffffffffffffffffffffffffffff166323b872dd3330846040518463ffffffff1660e01b815260040161064a93929190611a9e565b6020604051808303816000875af1158015610669573d6000803e3d6000fd5b505050506040513d601f19601f8201168201806040525081019061068d9190611b0d565b508060035461069c9190611b69565b60038190555050565b60008060009054906101000a900473ffffffffffffffffffffffffffffffffffffffff1673ffffffffffffffffffffffffffffffffffffffff1663248804d86040518163ffffffff1660e01b8152600401602060405180830381865afa158015610713573d6000803e3d6000fd5b505050506040513d601f19601f82011682018060405250810190610737919061190d565b73ffffffffffffffffffffffffffffffffffffffff163373ffffffffffffffffffffffffffffffffffffffff16146107a4576040517f08c379a000000000000000000000000000000000000000000000000000000000815260040161079b90611997565b60405180910390fd5b60006107b08585611373565b9050828110156107f5576040517f08c379a00000000000000000000000000000000000000000000000000000000081526004016107ec90611a03565b60405180910390fd5b809150509392505050565b60008060008060009054906101000a900473ffffffffffffffffffffffffffffffffffffffff1673ffffffffffffffffffffffffffffffffffffffff1663a9d637e1866040518263ffffffff1660e01b815260040161085f9190611b9d565b6040805180830381865afa15801561087b573d6000803e3d6000fd5b505050506040513d601f19601f8201168201806040525081019061089f9190611bcd565b509050600081905060006108b1610b90565b9250505060006103e883836108c69190611c0d565b6108d09190611c7e565b90506000670de0b6b3a764000082896108e99190611c0d565b6108f39190611c7e565b905080829650965050505050509250929050565b60035481565b60025481565b60008054906101000a900473ffffffffffffffffffffffffffffffffffffffff1673ffffffffffffffffffffffffffffffffffffffff16638bcf4b3b6040518163ffffffff1660e01b8152600401602060405180830381865afa15801561097e573d6000803e3d6000fd5b505050506040513d601f19601f820116820180604052508101906109a2919061190d565b73ffffffffffffffffffffffffffffffffffffffff163373ffffffffffffffffffffffffffffffffffffffff1614610a0f576040517f08c379a0000000000000000000000000000000000000000000000000000000008152600401610a0690611a6f565b60405180910390fd5b81600354610a1d9190611caf565b60038190555060008054906101000a900473ffffffffffffffffffffffffffffffffffffffff1673ffffffffffffffffffffffffffffffffffffffff1663165310c56040518163ffffffff1660e01b8152600401602060405180830381865afa158015610a8e573d6000803e3d6000fd5b505050506040513d601f19601f82011682018060405250810190610ab2919061190d565b73ffffffffffffffffffffffffffffffffffffffff1663a9059cbb82846040518363ffffffff1660e01b8152600401610aec929190611ce3565b6020604051808303816000875af1158015610b0b573d6000803e3d6000fd5b505050506040513d601f19601f82011682018060405250810190610b2f9190611b0d565b505050565b600080610b413385611373565b905082811015610b86576040517f08c379a0000000000000000000000000000000000000000000000000000000008152600401610b7d90611a03565b60405180910390fd5b8091505092915050565b60008060008060008054906101000a900473ffffffffffffffffffffffffffffffffffffffff1673ffffffffffffffffffffffffffffffffffffffff1663b9cfe2a86040518163ffffffff1660e01b8152600401602060405180830381865afa158015610c01573d6000803e3d6000fd5b505050506040513d601f19601f82011682018060405250810190610c25919061190d565b73ffffffffffffffffffffffffffffffffffffffff166318160ddd6040518163ffffffff1660e01b8152600401602060405180830381865afa158015610c6f573d6000803e3d6000fd5b505050506040513d601f19601f82011682018060405250810190610c939190611d0c565b905060008060009054906101000a900473ffffffffffffffffffffffffffffffffffffffff1673ffffffffffffffffffffffffffffffffffffffff1663b9cfe2a86040518163ffffffff1660e01b8152600401602060405180830381865afa158015610d03573d6000803e3d6000fd5b505050506040513d601f19601f82011682018060405250810190610d27919061190d565b73ffffffffffffffffffffffffffffffffffffffff166370a08231306040518263ffffffff1660e01b8152600401610d5f9190611b9d565b602060405180830381865afa158015610d7c573d6000803e3d6000fd5b505050506040513d601f19601f82011682018060405250810190610da09190611d0c565b905060008183610db09190611b69565b9050600060035460008054906101000a900473ffffffffffffffffffffffffffffffffffffffff1673ffffffffffffffffffffffffffffffffffffffff1663165310c56040518163ffffffff1660e01b8152600401602060405180830381865afa158015610e22573d6000803e3d6000fd5b505050506040513d601f19601f82011682018060405250810190610e46919061190d565b73ffffffffffffffffffffffffffffffffffffffff166370a08231306040518263ffffffff1660e01b8152600401610e7e9190611b9d565b602060405180830381865afa158015610e9b573d6000803e3d6000fd5b505050506040513d601f19601f82011682018060405250810190610ebf9190611d0c565b610ec99190611caf565b90506001549450600081118015610ee05750600082115b15610f075781670de0b6b3a764000082610efa9190611c0d565b610f049190611c7e565b94505b84965084955060006002541115610fa9576000670de0b6b3a7640000905060006201518082610f369190611c7e565b9050600060025442610f489190611b69565b905060008282610f589190611c0d565b68056bc75e2d63100000610f6c9190611caf565b905068056bc75e2d6310000081670de0b6b3a7640000610f8c9190611c0d565b610f969190611c7e565b995089891115610fa4578998505b505050505b50505050909192565b60008060008060009054906101000a900473ffffffffffffffffffffffffffffffffffffffff1673ffffffffffffffffffffffffffffffffffffffff1663a9d637e1866040518263ffffffff1660e01b81526004016110119190611b9d565b6040805180830381865afa15801561102d573d6000803e3d6000fd5b505050506040513d601f19601f820116820180604052508101906110519190611bcd565b91505060008190506000611063610b90565b9250505060006103e883836110789190611c0d565b6110829190611c7e565b9050600081670de0b6b3a76400008961109b9190611c0d565b6110a59190611c7e565b905080829650965050505050509250929050565b60008054906101000a900473ffffffffffffffffffffffffffffffffffffffff1681565b60008082116110eb57600080fd5b6000806110f88585610800565b9150915060008054906101000a900473ffffffffffffffffffffffffffffffffffffffff1673ffffffffffffffffffffffffffffffffffffffff1663b9cfe2a86040518163ffffffff1660e01b8152600401602060405180830381865afa158015611167573d6000803e3d6000fd5b505050506040513d601f19601f8201168201806040525081019061118b919061190d565b73ffffffffffffffffffffffffffffffffffffffff166323b872dd8630876040518463ffffffff1660e01b81526004016111c793929190611a9e565b6020604051808303816000875af11580156111e6573d6000803e3d6000fd5b505050506040513d601f19601f8201168201806040525081019061120a9190611b0d565b5060008054906101000a900473ffffffffffffffffffffffffffffffffffffffff1673ffffffffffffffffffffffffffffffffffffffff1663165310c56040518163ffffffff1660e01b8152600401602060405180830381865afa158015611276573d6000803e3d6000fd5b505050506040513d601f19601f8201168201806040525081019061129a919061190d565b73ffffffffffffffffffffffffffffffffffffffff1663a9059cbb86846040518363ffffffff1660e01b81526004016112d4929190611ce3565b6020604051808303816000875af11580156112f3573d6000803e3d6000fd5b505050506040513d601f19601f820116820180604052508101906113179190611b0d565b50611320610b90565b9091509050600160008291905055507f92664190cca12aca9cd5309d87194bdda75bb51362d71c06e1a6f75c7c76571142826040516113609291906117de565b60405180910390a1819250505092915050565b600080821161138157600080fd5b60008061138e8585610fb2565b9150915060008054906101000a900473ffffffffffffffffffffffffffffffffffffffff1673ffffffffffffffffffffffffffffffffffffffff1663165310c56040518163ffffffff1660e01b8152600401602060405180830381865afa1580156113fd573d6000803e3d6000fd5b505050506040513d601f19601f82011682018060405250810190611421919061190d565b73ffffffffffffffffffffffffffffffffffffffff166323b872dd8630876040518463ffffffff1660e01b815260040161145d93929190611a9e565b6020604051808303816000875af115801561147c573d6000803e3d6000fd5b505050506040513d601f19601f820116820180604052508101906114a09190611b0d565b5060008054906101000a900473ffffffffffffffffffffffffffffffffffffffff1673ffffffffffffffffffffffffffffffffffffffff1663b9cfe2a86040518163ffffffff1660e01b8152600401602060405180830381865afa15801561150c573d6000803e3d6000fd5b505050506040513d601f19601f82011682018060405250810190611530919061190d565b73ffffffffffffffffffffffffffffffffffffffff1663a9059cbb86846040518363ffffffff1660e01b815260040161156a929190611ce3565b6020604051808303816000875af1158015611589573d6000803e3d6000fd5b505050506040513d601f19601f820116820180604052508101906115ad9190611b0d565b506115b6610b90565b9091509050600160008291905055507f92664190cca12aca9cd5309d87194bdda75bb51362d71c06e1a6f75c7c76571142826040516115f69291906117de565b60405180910390a160006002540361161057426002819055505b819250505092915050565b600080fd5b600073ffffffffffffffffffffffffffffffffffffffff82169050919050565b600061164b82611620565b9050919050565b61165b81611640565b811461166657600080fd5b50565b60008135905061167881611652565b92915050565b6000819050919050565b6116918161167e565b811461169c57600080fd5b50565b6000813590506116ae81611688565b92915050565b6000806000606084860312156116cd576116cc61161b565b5b60006116db86828701611669565b93505060206116ec8682870161169f565b92505060406116fd8682870161169f565b9150509250925092565b6117108161167e565b82525050565b600060208201905061172b6000830184611707565b92915050565b600080604083850312156117485761174761161b565b5b60006117568582860161169f565b92505060206117678582860161169f565b9150509250929050565b6000602082840312156117875761178661161b565b5b60006117958482850161169f565b91505092915050565b600080604083850312156117b5576117b461161b565b5b60006117c385828601611669565b92505060206117d48582860161169f565b9150509250929050565b60006040820190506117f36000830185611707565b6118006020830184611707565b9392505050565b6000806040838503121561181e5761181d61161b565b5b600061182c8582860161169f565b925050602061183d85828601611669565b9150509250929050565b600060608201905061185c6000830186611707565b6118696020830185611707565b6118766040830184611707565b949350505050565b6000819050919050565b60006118a361189e61189984611620565b61187e565b611620565b9050919050565b60006118b582611888565b9050919050565b60006118c7826118aa565b9050919050565b6118d7816118bc565b82525050565b60006020820190506118f260008301846118ce565b92915050565b60008151905061190781611652565b92915050565b6000602082840312156119235761192261161b565b5b6000611931848285016118f8565b91505092915050565b600082825260208201905092915050565b7f696e76616c69642064656c656761746f72000000000000000000000000000000600082015250565b600061198160118361193a565b915061198c8261194b565b602082019050919050565b600060208201905081810360008301526119b081611974565b9050919050565b7f726573756c742062656c6f77206d696e696d756d000000000000000000000000600082015250565b60006119ed60148361193a565b91506119f8826119b7565b602082019050919050565b60006020820190508181036000830152611a1c816119e0565b9050919050565b7f696e76616c69642073656e646572000000000000000000000000000000000000600082015250565b6000611a59600e8361193a565b9150611a6482611a23565b602082019050919050565b60006020820190508181036000830152611a8881611a4c565b9050919050565b611a9881611640565b82525050565b6000606082019050611ab36000830186611a8f565b611ac06020830185611a8f565b611acd6040830184611707565b949350505050565b60008115159050919050565b611aea81611ad5565b8114611af557600080fd5b50565b600081519050611b0781611ae1565b92915050565b600060208284031215611b2357611b2261161b565b5b6000611b3184828501611af8565b91505092915050565b7f4e487b7100000000000000000000000000000000000000000000000000000000600052601160045260246000fd5b6000611b748261167e565b9150611b7f8361167e565b9250828203905081811115611b9757611b96611b3a565b5b92915050565b6000602082019050611bb26000830184611a8f565b92915050565b600081519050611bc781611688565b92915050565b60008060408385031215611be457611be361161b565b5b6000611bf285828601611bb8565b9250506020611c0385828601611bb8565b9150509250929050565b6000611c188261167e565b9150611c238361167e565b9250828202611c318161167e565b91508282048414831517611c4857611c47611b3a565b5b5092915050565b7f4e487b7100000000000000000000000000000000000000000000000000000000600052601260045260246000fd5b6000611c898261167e565b9150611c948361167e565b925082611ca457611ca3611c4f565b5b828204905092915050565b6000611cba8261167e565b9150611cc58361167e565b9250828201905080821115611cdd57611cdc611b3a565b5b92915050565b6000604082019050611cf86000830185611a8f565b611d056020830184611707565b9392505050565b600060208284031215611d2257611d2161161b565b5b6000611d3084828501611bb8565b9150509291505056fea2646970667358221220815dfca3fa64c56f80788c66cd849823125ad74fa6b66e6cac9107333a840a0a64736f6c63430008140033",
  "linkReferences": {},
  "deployedLinkReferences": {}
}