{
  "_format": "hh-sol-artifact-1",
  "contractName": "DAO",
  "sourceName": "contracts/DAO.sol",
  "abi": [
    {
      "inputs": [
        {
          "internalType": "address",
          "name": "_cfg",
          "type": "address"
        }
      ],
      "stateMutability": "nonpayable",
      "type": "constructor"
    },
    {
      "anonymous": false,
      "inputs": [
        {
          "indexed": false,
          "internalType": "uint256",
          "name": "_ts",
          "type": "uint256"
        },
        {
          "indexed": false,
          "internalType": "uint256",
          "name": "_price",
          "type": "uint256"
        }
      ],
      "name": "PriceUpdate",
      "type": "event"
    },
    {
      "inputs": [],
      "name": "CONFIG",
      "outputs": [
        {
          "internalType": "contract Config",
          "name": "",
          "type": "address"
        }
      ],
      "stateMutability": "view",
      "type": "function"
    },
    {
      "inputs": [
        {
          "internalType": "uint256",
          "name": "amountCoin",
          "type": "uint256"
        },
        {
          "internalType": "address",
          "name": "receiver",
          "type": "address"
        }
      ],
      "name": "borrowCollateral",
      "outputs": [],
      "stateMutability": "nonpayable",
      "type": "function"
    },
    {
      "inputs": [],
      "name": "borrowedCoin",
      "outputs": [
        {
          "internalType": "uint256",
          "name": "",
          "type": "uint256"
        }
      ],
      "stateMutability": "view",
      "type": "function"
    },
    {
      "inputs": [
        {
          "internalType": "address",
          "name": "user",
          "type": "address"
        },
        {
          "internalType": "uint256",
          "name": "amountCoin",
          "type": "uint256"
        }
      ],
      "name": "coinToToken",
      "outputs": [
        {
          "internalType": "uint256",
          "name": "",
          "type": "uint256"
        },
        {
          "internalType": "uint256",
          "name": "",
          "type": "uint256"
        }
      ],
      "stateMutability": "view",
      "type": "function"
    },
    {
      "inputs": [],
      "name": "getBasePrice",
      "outputs": [
        {
          "internalType": "uint256",
          "name": "",
          "type": "uint256"
        }
      ],
      "stateMutability": "view",
      "type": "function"
    },
    {
      "inputs": [],
      "name": "lastPrice",
      "outputs": [
        {
          "internalType": "uint256",
          "name": "",
          "type": "uint256"
        }
      ],
      "stateMutability": "view",
      "type": "function"
    },
    {
      "inputs": [],
      "name": "maxMultiplier",
      "outputs": [
        {
          "internalType": "uint256",
          "name": "",
          "type": "uint256"
        }
      ],
      "stateMutability": "view",
      "type": "function"
    },
    {
      "inputs": [],
      "name": "minMultiplier",
      "outputs": [
        {
          "internalType": "uint256",
          "name": "",
          "type": "uint256"
        }
      ],
      "stateMutability": "view",
      "type": "function"
    },
    {
      "inputs": [],
      "name": "neutralSwap",
      "outputs": [
        {
          "internalType": "address",
          "name": "",
          "type": "address"
        }
      ],
      "stateMutability": "view",
      "type": "function"
    },
    {
      "inputs": [
        {
          "internalType": "uint256",
          "name": "_maxMultiplier",
          "type": "uint256"
        },
        {
          "internalType": "uint256",
          "name": "_minMultiplier",
          "type": "uint256"
        },
        {
          "internalType": "address",
          "name": "_neutralSwap",
          "type": "address"
        }
      ],
      "name": "reset",
      "outputs": [],
      "stateMutability": "nonpayable",
      "type": "function"
    },
    {
      "inputs": [
        {
          "internalType": "uint256",
          "name": "amountCoin",
          "type": "uint256"
        }
      ],
      "name": "returnCollateral",
      "outputs": [],
      "stateMutability": "nonpayable",
      "type": "function"
    },
    {
      "inputs": [
        {
          "internalType": "uint256",
          "name": "amountCoin",
          "type": "uint256"
        },
        {
          "internalType": "uint256",
          "name": "resultMinimum",
          "type": "uint256"
        }
      ],
      "name": "swapCoinToToken",
      "outputs": [
        {
          "internalType": "uint256",
          "name": "",
          "type": "uint256"
        }
      ],
      "stateMutability": "nonpayable",
      "type": "function"
    },
    {
      "inputs": [
        {
          "internalType": "address",
          "name": "user",
          "type": "address"
        },
        {
          "internalType": "uint256",
          "name": "amountCoin",
          "type": "uint256"
        },
        {
          "internalType": "uint256",
          "name": "resultMinimum",
          "type": "uint256"
        }
      ],
      "name": "swapCoinToTokenByDelegator",
      "outputs": [
        {
          "internalType": "uint256",
          "name": "",
          "type": "uint256"
        }
      ],
      "stateMutability": "nonpayable",
      "type": "function"
    },
    {
      "inputs": [
        {
          "internalType": "uint256",
          "name": "amountToken",
          "type": "uint256"
        },
        {
          "internalType": "uint256",
          "name": "resultMinimum",
          "type": "uint256"
        }
      ],
      "name": "swapTokenToCoin",
      "outputs": [
        {
          "internalType": "uint256",
          "name": "",
          "type": "uint256"
        }
      ],
      "stateMutability": "nonpayable",
      "type": "function"
    },
    {
      "inputs": [
        {
          "internalType": "address",
          "name": "user",
          "type": "address"
        },
        {
          "internalType": "uint256",
          "name": "amountToken",
          "type": "uint256"
        },
        {
          "internalType": "uint256",
          "name": "resultMinimum",
          "type": "uint256"
        }
      ],
      "name": "swapTokenToCoinByDelegator",
      "outputs": [
        {
          "internalType": "uint256",
          "name": "",
          "type": "uint256"
        }
      ],
      "stateMutability": "nonpayable",
      "type": "function"
    },
    {
      "inputs": [
        {
          "internalType": "address",
          "name": "user",
          "type": "address"
        },
        {
          "internalType": "uint256",
          "name": "amountToken",
          "type": "uint256"
        }
      ],
      "name": "tokenToCoin",
      "outputs": [
        {
          "internalType": "uint256",
          "name": "",
          "type": "uint256"
        },
        {
          "internalType": "uint256",
          "name": "",
          "type": "uint256"
        }
      ],
      "stateMutability": "view",
      "type": "function"
    }
  ],
  "bytecode": "0x60806040523480156200001157600080fd5b506040516200204d3803806200204d8339818101604052810190620000379190620000f7565b670de0b6b3a7640000600181905550806000806101000a81548173ffffffffffffffffffffffffffffffffffffffff021916908373ffffffffffffffffffffffffffffffffffffffff1602179055505062000129565b600080fd5b600073ffffffffffffffffffffffffffffffffffffffff82169050919050565b6000620000bf8262000092565b9050919050565b620000d181620000b2565b8114620000dd57600080fd5b50565b600081519050620000f181620000c6565b92915050565b60006020828403121562000110576200010f6200008d565b5b60006200012084828501620000e0565b91505092915050565b611f1480620001396000396000f3fe608060405234801561001057600080fd5b50600436106101005760003560e01c806375efd1df11610097578063afb2557e11610066578063afb2557e146102b0578063b49f4afd146102e0578063b66dca15146102fe578063d92e82e41461032f57610100565b806375efd1df1461023a57806389f567dc1461025857806394fb89ab14610276578063a24e0d871461029257610100565b8063411df6f3116100d3578063411df6f31461018d57806344e02dbc146101bd57806364c42d03146101d95780636b6c041e1461020957610100565b80630187aea01461010557806302fa7acb14610123578063053f14da146101535780631fbf2cbd14610171575b600080fd5b61010d61034d565b60405161011a9190611725565b60405180910390f35b61013d600480360381019061013891906117cf565b610353565b60405161014a9190611725565b60405180910390f35b61015b6104ae565b6040516101689190611725565b60405180910390f35b61018b60048036038101906101869190611822565b6104b4565b005b6101a760048036038101906101a29190611875565b610657565b6040516101b49190611725565b60405180910390f35b6101d760048036038101906101d291906118b5565b6106b3565b005b6101f360048036038101906101ee91906117cf565b6108d5565b6040516102009190611725565b60405180910390f35b610223600480360381019061021e91906118e2565b610a30565b604051610231929190611922565b60405180910390f35b610242610aec565b60405161024f9190611725565b60405180910390f35b610260610af2565b60405161026d919061195a565b60405180910390f35b610290600480360381019061028b9190611975565b610b18565b005b61029a610d39565b6040516102a79190611725565b60405180910390f35b6102ca60048036038101906102c59190611875565b610d3f565b6040516102d79190611725565b60405180910390f35b6102e8610d9b565b6040516102f59190611725565b60405180910390f35b610318600480360381019061031391906118e2565b61111c565b604051610326929190611922565b60405180910390f35b6103376111d8565b6040516103449190611a14565b60405180910390f35b60035481565b60008060009054906101000a900473ffffffffffffffffffffffffffffffffffffffff1673ffffffffffffffffffffffffffffffffffffffff1663248804d86040518163ffffffff1660e01b8152600401602060405180830381865afa1580156103c1573d6000803e3d6000fd5b505050506040513d601f19601f820116820180604052508101906103e59190611a44565b73ffffffffffffffffffffffffffffffffffffffff163373ffffffffffffffffffffffffffffffffffffffff1614610452576040517f08c379a000000000000000000000000000000000000000000000000000000000815260040161044990611ace565b60405180910390fd5b600061045e85856111fc565b9050828110156104a3576040517f08c379a000000000000000000000000000000000000000000000000000000000815260040161049a90611b3a565b60405180910390fd5b809150509392505050565b60015481565b60008054906101000a900473ffffffffffffffffffffffffffffffffffffffff1673ffffffffffffffffffffffffffffffffffffffff16638da5cb5b6040518163ffffffff1660e01b8152600401602060405180830381865afa15801561051f573d6000803e3d6000fd5b505050506040513d601f19601f820116820180604052508101906105439190611a44565b73ffffffffffffffffffffffffffffffffffffffff163373ffffffffffffffffffffffffffffffffffffffff16146105b0576040517f08c379a00000000000000000000000000000000000000000000000000000000081526004016105a790611ba6565b60405180910390fd5b6103e883101580156105c457506103e88211155b610603576040517f08c379a00000000000000000000000000000000000000000000000000000000081526004016105fa90611c12565b60405180910390fd5b826003819055508160048190555080600560006101000a81548173ffffffffffffffffffffffffffffffffffffffff021916908373ffffffffffffffffffffffffffffffffffffffff160217905550505050565b60008061066433856111fc565b9050828110156106a9576040517f08c379a00000000000000000000000000000000000000000000000000000000081526004016106a090611b3a565b60405180910390fd5b8091505092915050565b60008054906101000a900473ffffffffffffffffffffffffffffffffffffffff1673ffffffffffffffffffffffffffffffffffffffff16638bcf4b3b6040518163ffffffff1660e01b8152600401602060405180830381865afa15801561071e573d6000803e3d6000fd5b505050506040513d601f19601f820116820180604052508101906107429190611a44565b73ffffffffffffffffffffffffffffffffffffffff163373ffffffffffffffffffffffffffffffffffffffff16146107af576040517f08c379a00000000000000000000000000000000000000000000000000000000081526004016107a690611c7e565b60405180910390fd5b60008054906101000a900473ffffffffffffffffffffffffffffffffffffffff1673ffffffffffffffffffffffffffffffffffffffff1663165310c56040518163ffffffff1660e01b8152600401602060405180830381865afa15801561081a573d6000803e3d6000fd5b505050506040513d601f19601f8201168201806040525081019061083e9190611a44565b73ffffffffffffffffffffffffffffffffffffffff166323b872dd3330846040518463ffffffff1660e01b815260040161087a93929190611c9e565b6020604051808303816000875af1158015610899573d6000803e3d6000fd5b505050506040513d601f19601f820116820180604052508101906108bd9190611d0d565b50806002546108cc9190611d69565b60028190555050565b60008060009054906101000a900473ffffffffffffffffffffffffffffffffffffffff1673ffffffffffffffffffffffffffffffffffffffff1663248804d86040518163ffffffff1660e01b8152600401602060405180830381865afa158015610943573d6000803e3d6000fd5b505050506040513d601f19601f820116820180604052508101906109679190611a44565b73ffffffffffffffffffffffffffffffffffffffff163373ffffffffffffffffffffffffffffffffffffffff16146109d4576040517f08c379a00000000000000000000000000000000000000000000000000000000081526004016109cb90611ace565b60405180910390fd5b60006109e08585611484565b905082811015610a25576040517f08c379a0000000000000000000000000000000000000000000000000000000008152600401610a1c90611b3a565b60405180910390fd5b809150509392505050565b60008060006004549050600560009054906101000a900473ffffffffffffffffffffffffffffffffffffffff1673ffffffffffffffffffffffffffffffffffffffff168573ffffffffffffffffffffffffffffffffffffffff1603610a95576103e890505b60006103e882610aa3610d9b565b610aad9190611d9d565b610ab79190611e0e565b90506000670de0b6b3a76400008287610ad09190611d9d565b610ada9190611e0e565b90508082945094505050509250929050565b60025481565b600560009054906101000a900473ffffffffffffffffffffffffffffffffffffffff1681565b60008054906101000a900473ffffffffffffffffffffffffffffffffffffffff1673ffffffffffffffffffffffffffffffffffffffff16638bcf4b3b6040518163ffffffff1660e01b8152600401602060405180830381865afa158015610b83573d6000803e3d6000fd5b505050506040513d601f19601f82011682018060405250810190610ba79190611a44565b73ffffffffffffffffffffffffffffffffffffffff163373ffffffffffffffffffffffffffffffffffffffff1614610c14576040517f08c379a0000000000000000000000000000000000000000000000000000000008152600401610c0b90611c7e565b60405180910390fd5b81600254610c229190611e3f565b60028190555060008054906101000a900473ffffffffffffffffffffffffffffffffffffffff1673ffffffffffffffffffffffffffffffffffffffff1663165310c56040518163ffffffff1660e01b8152600401602060405180830381865afa158015610c93573d6000803e3d6000fd5b505050506040513d601f19601f82011682018060405250810190610cb79190611a44565b73ffffffffffffffffffffffffffffffffffffffff1663a9059cbb82846040518363ffffffff1660e01b8152600401610cf1929190611e73565b6020604051808303816000875af1158015610d10573d6000803e3d6000fd5b505050506040513d601f19601f82011682018060405250810190610d349190611d0d565b505050565b60045481565b600080610d4c3385611484565b905082811015610d91576040517f08c379a0000000000000000000000000000000000000000000000000000000008152600401610d8890611b3a565b60405180910390fd5b8091505092915050565b60008060008054906101000a900473ffffffffffffffffffffffffffffffffffffffff1673ffffffffffffffffffffffffffffffffffffffff1663b9cfe2a86040518163ffffffff1660e01b8152600401602060405180830381865afa158015610e09573d6000803e3d6000fd5b505050506040513d601f19601f82011682018060405250810190610e2d9190611a44565b73ffffffffffffffffffffffffffffffffffffffff166318160ddd6040518163ffffffff1660e01b8152600401602060405180830381865afa158015610e77573d6000803e3d6000fd5b505050506040513d601f19601f82011682018060405250810190610e9b9190611eb1565b905060008060009054906101000a900473ffffffffffffffffffffffffffffffffffffffff1673ffffffffffffffffffffffffffffffffffffffff1663b9cfe2a86040518163ffffffff1660e01b8152600401602060405180830381865afa158015610f0b573d6000803e3d6000fd5b505050506040513d601f19601f82011682018060405250810190610f2f9190611a44565b73ffffffffffffffffffffffffffffffffffffffff166370a08231306040518263ffffffff1660e01b8152600401610f67919061195a565b602060405180830381865afa158015610f84573d6000803e3d6000fd5b505050506040513d601f19601f82011682018060405250810190610fa89190611eb1565b905060008183610fb89190611d69565b9050600060025460008054906101000a900473ffffffffffffffffffffffffffffffffffffffff1673ffffffffffffffffffffffffffffffffffffffff1663165310c56040518163ffffffff1660e01b8152600401602060405180830381865afa15801561102a573d6000803e3d6000fd5b505050506040513d601f19601f8201168201806040525081019061104e9190611a44565b73ffffffffffffffffffffffffffffffffffffffff166370a08231306040518263ffffffff1660e01b8152600401611086919061195a565b602060405180830381865afa1580156110a3573d6000803e3d6000fd5b505050506040513d601f19601f820116820180604052508101906110c79190611eb1565b6110d19190611e3f565b9050600060015490506000821180156110ea5750600083115b156111115782670de0b6b3a7640000836111049190611d9d565b61110e9190611e0e565b90505b809550505050505090565b60008060006003549050600560009054906101000a900473ffffffffffffffffffffffffffffffffffffffff1673ffffffffffffffffffffffffffffffffffffffff168573ffffffffffffffffffffffffffffffffffffffff1603611181576103e890505b60006103e88261118f610d9b565b6111999190611d9d565b6111a39190611e0e565b9050600081670de0b6b3a7640000876111bc9190611d9d565b6111c69190611e0e565b90508082945094505050509250929050565b60008054906101000a900473ffffffffffffffffffffffffffffffffffffffff1681565b600080821161120a57600080fd5b6000806112178585610a30565b9150915060008054906101000a900473ffffffffffffffffffffffffffffffffffffffff1673ffffffffffffffffffffffffffffffffffffffff1663b9cfe2a86040518163ffffffff1660e01b8152600401602060405180830381865afa158015611286573d6000803e3d6000fd5b505050506040513d601f19601f820116820180604052508101906112aa9190611a44565b73ffffffffffffffffffffffffffffffffffffffff166323b872dd8630876040518463ffffffff1660e01b81526004016112e693929190611c9e565b6020604051808303816000875af1158015611305573d6000803e3d6000fd5b505050506040513d601f19601f820116820180604052508101906113299190611d0d565b5060008054906101000a900473ffffffffffffffffffffffffffffffffffffffff1673ffffffffffffffffffffffffffffffffffffffff1663165310c56040518163ffffffff1660e01b8152600401602060405180830381865afa158015611395573d6000803e3d6000fd5b505050506040513d601f19601f820116820180604052508101906113b99190611a44565b73ffffffffffffffffffffffffffffffffffffffff1663a9059cbb86846040518363ffffffff1660e01b81526004016113f3929190611e73565b6020604051808303816000875af1158015611412573d6000803e3d6000fd5b505050506040513d601f19601f820116820180604052508101906114369190611d0d565b50806001819055507f92664190cca12aca9cd5309d87194bdda75bb51362d71c06e1a6f75c7c76571142600154604051611471929190611922565b60405180910390a1819250505092915050565b600080821161149257600080fd5b60008061149f858561111c565b9150915060008054906101000a900473ffffffffffffffffffffffffffffffffffffffff1673ffffffffffffffffffffffffffffffffffffffff1663165310c56040518163ffffffff1660e01b8152600401602060405180830381865afa15801561150e573d6000803e3d6000fd5b505050506040513d601f19601f820116820180604052508101906115329190611a44565b73ffffffffffffffffffffffffffffffffffffffff166323b872dd8630876040518463ffffffff1660e01b815260040161156e93929190611c9e565b6020604051808303816000875af115801561158d573d6000803e3d6000fd5b505050506040513d601f19601f820116820180604052508101906115b19190611d0d565b5060008054906101000a900473ffffffffffffffffffffffffffffffffffffffff1673ffffffffffffffffffffffffffffffffffffffff1663b9cfe2a86040518163ffffffff1660e01b8152600401602060405180830381865afa15801561161d573d6000803e3d6000fd5b505050506040513d601f19601f820116820180604052508101906116419190611a44565b73ffffffffffffffffffffffffffffffffffffffff1663a9059cbb86846040518363ffffffff1660e01b815260040161167b929190611e73565b6020604051808303816000875af115801561169a573d6000803e3d6000fd5b505050506040513d601f19601f820116820180604052508101906116be9190611d0d565b50806001819055507f92664190cca12aca9cd5309d87194bdda75bb51362d71c06e1a6f75c7c765711426001546040516116f9929190611922565b60405180910390a1819250505092915050565b6000819050919050565b61171f8161170c565b82525050565b600060208201905061173a6000830184611716565b92915050565b600080fd5b600073ffffffffffffffffffffffffffffffffffffffff82169050919050565b600061177082611745565b9050919050565b61178081611765565b811461178b57600080fd5b50565b60008135905061179d81611777565b92915050565b6117ac8161170c565b81146117b757600080fd5b50565b6000813590506117c9816117a3565b92915050565b6000806000606084860312156117e8576117e7611740565b5b60006117f68682870161178e565b9350506020611807868287016117ba565b9250506040611818868287016117ba565b9150509250925092565b60008060006060848603121561183b5761183a611740565b5b6000611849868287016117ba565b935050602061185a868287016117ba565b925050604061186b8682870161178e565b9150509250925092565b6000806040838503121561188c5761188b611740565b5b600061189a858286016117ba565b92505060206118ab858286016117ba565b9150509250929050565b6000602082840312156118cb576118ca611740565b5b60006118d9848285016117ba565b91505092915050565b600080604083850312156118f9576118f8611740565b5b60006119078582860161178e565b9250506020611918858286016117ba565b9150509250929050565b60006040820190506119376000830185611716565b6119446020830184611716565b9392505050565b61195481611765565b82525050565b600060208201905061196f600083018461194b565b92915050565b6000806040838503121561198c5761198b611740565b5b600061199a858286016117ba565b92505060206119ab8582860161178e565b9150509250929050565b6000819050919050565b60006119da6119d56119d084611745565b6119b5565b611745565b9050919050565b60006119ec826119bf565b9050919050565b60006119fe826119e1565b9050919050565b611a0e816119f3565b82525050565b6000602082019050611a296000830184611a05565b92915050565b600081519050611a3e81611777565b92915050565b600060208284031215611a5a57611a59611740565b5b6000611a6884828501611a2f565b91505092915050565b600082825260208201905092915050565b7f696e76616c69642064656c656761746f72000000000000000000000000000000600082015250565b6000611ab8601183611a71565b9150611ac382611a82565b602082019050919050565b60006020820190508181036000830152611ae781611aab565b9050919050565b7f726573756c742062656c6f77206d696e696d756d000000000000000000000000600082015250565b6000611b24601483611a71565b9150611b2f82611aee565b602082019050919050565b60006020820190508181036000830152611b5381611b17565b9050919050565b7f6163636573732064656e69656400000000000000000000000000000000000000600082015250565b6000611b90600d83611a71565b9150611b9b82611b5a565b602082019050919050565b60006020820190508181036000830152611bbf81611b83565b9050919050565b7f696e76616c6964206d756c7469706c6965720000000000000000000000000000600082015250565b6000611bfc601283611a71565b9150611c0782611bc6565b602082019050919050565b60006020820190508181036000830152611c2b81611bef565b9050919050565b7f696e76616c69642073656e646572000000000000000000000000000000000000600082015250565b6000611c68600e83611a71565b9150611c7382611c32565b602082019050919050565b60006020820190508181036000830152611c9781611c5b565b9050919050565b6000606082019050611cb3600083018661194b565b611cc0602083018561194b565b611ccd6040830184611716565b949350505050565b60008115159050919050565b611cea81611cd5565b8114611cf557600080fd5b50565b600081519050611d0781611ce1565b92915050565b600060208284031215611d2357611d22611740565b5b6000611d3184828501611cf8565b91505092915050565b7f4e487b7100000000000000000000000000000000000000000000000000000000600052601160045260246000fd5b6000611d748261170c565b9150611d7f8361170c565b9250828203905081811115611d9757611d96611d3a565b5b92915050565b6000611da88261170c565b9150611db38361170c565b9250828202611dc18161170c565b91508282048414831517611dd857611dd7611d3a565b5b5092915050565b7f4e487b7100000000000000000000000000000000000000000000000000000000600052601260045260246000fd5b6000611e198261170c565b9150611e248361170c565b925082611e3457611e33611ddf565b5b828204905092915050565b6000611e4a8261170c565b9150611e558361170c565b9250828201905080821115611e6d57611e6c611d3a565b5b92915050565b6000604082019050611e88600083018561194b565b611e956020830184611716565b9392505050565b600081519050611eab816117a3565b92915050565b600060208284031215611ec757611ec6611740565b5b6000611ed584828501611e9c565b9150509291505056fea264697066735822122099a0d5bce05cd274962a8cb9427fab881b29afcaea6cd1c708f2999724ee25ab64736f6c63430008140033",
  "linkReferences": {},
  "deployedLinkReferences": {}
}