{
  "_format": "hh-sol-artifact-1",
  "contractName": "Delegator",
  "sourceName": "contracts/Delegator.sol",
  "abi": [
    {
      "inputs": [
        {
          "internalType": "string",
          "name": "_name",
          "type": "string"
        },
        {
          "internalType": "string",
          "name": "_version",
          "type": "string"
        },
        {
          "internalType": "address",
          "name": "_cfg",
          "type": "address"
        }
      ],
      "stateMutability": "nonpayable",
      "type": "constructor"
    },
    {
      "inputs": [],
      "name": "ECDSAInvalidSignature",
      "type": "error"
    },
    {
      "inputs": [
        {
          "internalType": "uint256",
          "name": "length",
          "type": "uint256"
        }
      ],
      "name": "ECDSAInvalidSignatureLength",
      "type": "error"
    },
    {
      "inputs": [
        {
          "internalType": "bytes32",
          "name": "s",
          "type": "bytes32"
        }
      ],
      "name": "ECDSAInvalidSignatureS",
      "type": "error"
    },
    {
      "inputs": [],
      "name": "InvalidShortString",
      "type": "error"
    },
    {
      "inputs": [
        {
          "internalType": "string",
          "name": "str",
          "type": "string"
        }
      ],
      "name": "StringTooLong",
      "type": "error"
    },
    {
      "anonymous": false,
      "inputs": [],
      "name": "EIP712DomainChanged",
      "type": "event"
    },
    {
      "inputs": [
        {
          "internalType": "uint256",
          "name": "amountCoin",
          "type": "uint256"
        },
        {
          "internalType": "uint256",
          "name": "resultMinimum",
          "type": "uint256"
        },
        {
          "internalType": "uint256",
          "name": "fee",
          "type": "uint256"
        },
        {
          "internalType": "uint256",
          "name": "nonce",
          "type": "uint256"
        },
        {
          "internalType": "bytes",
          "name": "signature",
          "type": "bytes"
        },
        {
          "internalType": "address",
          "name": "signer",
          "type": "address"
        }
      ],
      "name": "BuyToken",
      "outputs": [
        {
          "internalType": "uint256",
          "name": "amountToken",
          "type": "uint256"
        }
      ],
      "stateMutability": "nonpayable",
      "type": "function"
    },
    {
      "inputs": [],
      "name": "CONFIG",
      "outputs": [
        {
          "internalType": "contract Config",
          "name": "",
          "type": "address"
        }
      ],
      "stateMutability": "view",
      "type": "function"
    },
    {
      "inputs": [
        {
          "internalType": "uint256",
          "name": "nftId",
          "type": "uint256"
        },
        {
          "internalType": "uint256",
          "name": "amountCoin",
          "type": "uint256"
        },
        {
          "internalType": "uint256",
          "name": "fee",
          "type": "uint256"
        },
        {
          "internalType": "uint256",
          "name": "nonce",
          "type": "uint256"
        },
        {
          "internalType": "bytes",
          "name": "signature",
          "type": "bytes"
        },
        {
          "internalType": "address",
          "name": "signer",
          "type": "address"
        }
      ],
      "name": "PayLoan",
      "outputs": [
        {
          "internalType": "uint256",
          "name": "amountToken",
          "type": "uint256"
        }
      ],
      "stateMutability": "nonpayable",
      "type": "function"
    },
    {
      "inputs": [
        {
          "internalType": "address",
          "name": "toAddress",
          "type": "address"
        },
        {
          "internalType": "string",
          "name": "notes",
          "type": "string"
        },
        {
          "internalType": "uint256",
          "name": "amountCoin",
          "type": "uint256"
        },
        {
          "internalType": "uint256",
          "name": "fee",
          "type": "uint256"
        },
        {
          "internalType": "uint256",
          "name": "nonce",
          "type": "uint256"
        },
        {
          "internalType": "bytes",
          "name": "signature",
          "type": "bytes"
        },
        {
          "internalType": "address",
          "name": "signer",
          "type": "address"
        }
      ],
      "name": "PayWithNotes",
      "outputs": [],
      "stateMutability": "nonpayable",
      "type": "function"
    },
    {
      "inputs": [
        {
          "internalType": "uint256",
          "name": "amountToken",
          "type": "uint256"
        },
        {
          "internalType": "uint256",
          "name": "resultMinimum",
          "type": "uint256"
        },
        {
          "internalType": "uint256",
          "name": "fee",
          "type": "uint256"
        },
        {
          "internalType": "uint256",
          "name": "nonce",
          "type": "uint256"
        },
        {
          "internalType": "bytes",
          "name": "signature",
          "type": "bytes"
        },
        {
          "internalType": "address",
          "name": "signer",
          "type": "address"
        }
      ],
      "name": "SellToken",
      "outputs": [
        {
          "internalType": "uint256",
          "name": "amountCoin",
          "type": "uint256"
        }
      ],
      "stateMutability": "nonpayable",
      "type": "function"
    },
    {
      "inputs": [
        {
          "internalType": "uint256",
          "name": "amountToken",
          "type": "uint256"
        },
        {
          "internalType": "uint256",
          "name": "fee",
          "type": "uint256"
        },
        {
          "internalType": "uint256",
          "name": "nonce",
          "type": "uint256"
        },
        {
          "internalType": "bytes",
          "name": "signature",
          "type": "bytes"
        },
        {
          "internalType": "address",
          "name": "signer",
          "type": "address"
        }
      ],
      "name": "TakeLoan",
      "outputs": [
        {
          "internalType": "uint256",
          "name": "amountCoin",
          "type": "uint256"
        }
      ],
      "stateMutability": "nonpayable",
      "type": "function"
    },
    {
      "inputs": [],
      "name": "eip712Domain",
      "outputs": [
        {
          "internalType": "bytes1",
          "name": "fields",
          "type": "bytes1"
        },
        {
          "internalType": "string",
          "name": "name",
          "type": "string"
        },
        {
          "internalType": "string",
          "name": "version",
          "type": "string"
        },
        {
          "internalType": "uint256",
          "name": "chainId",
          "type": "uint256"
        },
        {
          "internalType": "address",
          "name": "verifyingContract",
          "type": "address"
        },
        {
          "internalType": "bytes32",
          "name": "salt",
          "type": "bytes32"
        },
        {
          "internalType": "uint256[]",
          "name": "extensions",
          "type": "uint256[]"
        }
      ],
      "stateMutability": "view",
      "type": "function"
    },
    {
      "inputs": [],
      "name": "fee1",
      "outputs": [
        {
          "internalType": "uint256",
          "name": "",
          "type": "uint256"
        }
      ],
      "stateMutability": "view",
      "type": "function"
    },
    {
      "inputs": [],
      "name": "fee2",
      "outputs": [
        {
          "internalType": "uint256",
          "name": "",
          "type": "uint256"
        }
      ],
      "stateMutability": "view",
      "type": "function"
    },
    {
      "inputs": [],
      "name": "feeCoin",
      "outputs": [
        {
          "internalType": "uint256",
          "name": "",
          "type": "uint256"
        }
      ],
      "stateMutability": "view",
      "type": "function"
    },
    {
      "inputs": [],
      "name": "getChainId",
      "outputs": [
        {
          "internalType": "uint256",
          "name": "",
          "type": "uint256"
        }
      ],
      "stateMutability": "view",
      "type": "function"
    },
    {
      "inputs": [
        {
          "internalType": "address",
          "name": "user",
          "type": "address"
        }
      ],
      "name": "getUserNonce",
      "outputs": [
        {
          "internalType": "uint256",
          "name": "",
          "type": "uint256"
        }
      ],
      "stateMutability": "view",
      "type": "function"
    },
    {
      "inputs": [],
      "name": "receiver1",
      "outputs": [
        {
          "internalType": "address",
          "name": "",
          "type": "address"
        }
      ],
      "stateMutability": "view",
      "type": "function"
    },
    {
      "inputs": [],
      "name": "receiver2",
      "outputs": [
        {
          "internalType": "address",
          "name": "",
          "type": "address"
        }
      ],
      "stateMutability": "view",
      "type": "function"
    },
    {
      "inputs": [],
      "name": "setFee",
      "outputs": [],
      "stateMutability": "nonpayable",
      "type": "function"
    },
    {
      "inputs": [
        {
          "internalType": "address",
          "name": "_receiver1",
          "type": "address"
        },
        {
          "internalType": "address",
          "name": "_receiver2",
          "type": "address"
        },
        {
          "internalType": "uint256",
          "name": "_fee1",
          "type": "uint256"
        },
        {
          "internalType": "uint256",
          "name": "_fee2",
          "type": "uint256"
        }
      ],
      "name": "setFee",
      "outputs": [],
      "stateMutability": "nonpayable",
      "type": "function"
    },
    {
      "inputs": [
        {
          "internalType": "uint256",
          "name": "amountCoin",
          "type": "uint256"
        },
        {
          "internalType": "uint256",
          "name": "resultMinimum",
          "type": "uint256"
        },
        {
          "internalType": "uint256",
          "name": "fee",
          "type": "uint256"
        },
        {
          "internalType": "uint256",
          "name": "nonce",
          "type": "uint256"
        },
        {
          "internalType": "bytes",
          "name": "signature",
          "type": "bytes"
        }
      ],
      "name": "verifyBuyToken",
      "outputs": [
        {
          "internalType": "address",
          "name": "",
          "type": "address"
        }
      ],
      "stateMutability": "view",
      "type": "function"
    },
    {
      "inputs": [
        {
          "internalType": "uint256",
          "name": "nftId",
          "type": "uint256"
        },
        {
          "internalType": "uint256",
          "name": "amountCoin",
          "type": "uint256"
        },
        {
          "internalType": "uint256",
          "name": "fee",
          "type": "uint256"
        },
        {
          "internalType": "uint256",
          "name": "nonce",
          "type": "uint256"
        },
        {
          "internalType": "bytes",
          "name": "signature",
          "type": "bytes"
        }
      ],
      "name": "verifyPayLoan",
      "outputs": [
        {
          "internalType": "address",
          "name": "",
          "type": "address"
        }
      ],
      "stateMutability": "view",
      "type": "function"
    },
    {
      "inputs": [
        {
          "internalType": "address",
          "name": "toAddress",
          "type": "address"
        },
        {
          "internalType": "string",
          "name": "notes",
          "type": "string"
        },
        {
          "internalType": "uint256",
          "name": "amountCoin",
          "type": "uint256"
        },
        {
          "internalType": "uint256",
          "name": "fee",
          "type": "uint256"
        },
        {
          "internalType": "uint256",
          "name": "nonce",
          "type": "uint256"
        },
        {
          "internalType": "bytes",
          "name": "signature",
          "type": "bytes"
        }
      ],
      "name": "verifyPayWithNotes",
      "outputs": [
        {
          "internalType": "address",
          "name": "",
          "type": "address"
        }
      ],
      "stateMutability": "view",
      "type": "function"
    },
    {
      "inputs": [
        {
          "internalType": "uint256",
          "name": "amountToken",
          "type": "uint256"
        },
        {
          "internalType": "uint256",
          "name": "resultMinimum",
          "type": "uint256"
        },
        {
          "internalType": "uint256",
          "name": "fee",
          "type": "uint256"
        },
        {
          "internalType": "uint256",
          "name": "nonce",
          "type": "uint256"
        },
        {
          "internalType": "bytes",
          "name": "signature",
          "type": "bytes"
        }
      ],
      "name": "verifySellToken",
      "outputs": [
        {
          "internalType": "address",
          "name": "",
          "type": "address"
        }
      ],
      "stateMutability": "view",
      "type": "function"
    },
    {
      "inputs": [
        {
          "internalType": "uint256",
          "name": "amountToken",
          "type": "uint256"
        },
        {
          "internalType": "uint256",
          "name": "fee",
          "type": "uint256"
        },
        {
          "internalType": "uint256",
          "name": "nonce",
          "type": "uint256"
        },
        {
          "internalType": "bytes",
          "name": "signature",
          "type": "bytes"
        }
      ],
      "name": "verifyTakeLoan",
      "outputs": [
        {
          "internalType": "address",
          "name": "",
          "type": "address"
        }
      ],
      "stateMutability": "view",
      "type": "function"
    }
  ],
  "bytecode": "0x6101606040523480156200001257600080fd5b5060405162004a1a38038062004a1a8339818101604052810190620000389190620004d1565b828262000050600083620001ad60201b90919060201c565b61012081815250506200006e600182620001ad60201b90919060201c565b6101408181525050818051906020012060e08181525050808051906020012061010081815250504660a08181525050620000ad6200020560201b60201c565b608081815250503073ffffffffffffffffffffffffffffffffffffffff1660c08173ffffffffffffffffffffffffffffffffffffffff1681525050505080600260006101000a81548173ffffffffffffffffffffffffffffffffffffffff021916908373ffffffffffffffffffffffffffffffffffffffff160217905550681b1ae4d6e2ef500000600581905550685150ae84a8cdf000006006819055506006546005546200015d9190620005a4565b60078190555033600360006101000a81548173ffffffffffffffffffffffffffffffffffffffff021916908373ffffffffffffffffffffffffffffffffffffffff16021790555050505062000ab9565b6000602083511015620001d357620001cb836200026260201b60201c565b9050620001ff565b82620001e583620002cf60201b60201c565b6000019081620001f6919062000820565b5060ff60001b90505b92915050565b60007f8b73c3c69bb8fe3d512ecc4cf759cc79239f7b179b0ffacaa9a75d522b39400f60e0516101005146306040516020016200024795949392919062000944565b60405160208183030381529060405280519060200120905090565b600080829050601f81511115620002b257826040517f305a27a9000000000000000000000000000000000000000000000000000000008152600401620002a99190620009f3565b60405180910390fd5b805181620002c09062000a49565b60001c1760001b915050919050565b6000819050919050565b6000604051905090565b600080fd5b600080fd5b600080fd5b600080fd5b6000601f19601f8301169050919050565b7f4e487b7100000000000000000000000000000000000000000000000000000000600052604160045260246000fd5b6200034282620002f7565b810181811067ffffffffffffffff8211171562000364576200036362000308565b5b80604052505050565b600062000379620002d9565b905062000387828262000337565b919050565b600067ffffffffffffffff821115620003aa57620003a962000308565b5b620003b582620002f7565b9050602081019050919050565b60005b83811015620003e2578082015181840152602081019050620003c5565b60008484015250505050565b600062000405620003ff846200038c565b6200036d565b905082815260208101848484011115620004245762000423620002f2565b5b62000431848285620003c2565b509392505050565b600082601f830112620004515762000450620002ed565b5b815162000463848260208601620003ee565b91505092915050565b600073ffffffffffffffffffffffffffffffffffffffff82169050919050565b600062000499826200046c565b9050919050565b620004ab816200048c565b8114620004b757600080fd5b50565b600081519050620004cb81620004a0565b92915050565b600080600060608486031215620004ed57620004ec620002e3565b5b600084015167ffffffffffffffff8111156200050e576200050d620002e8565b5b6200051c8682870162000439565b935050602084015167ffffffffffffffff81111562000540576200053f620002e8565b5b6200054e8682870162000439565b92505060406200056186828701620004ba565b9150509250925092565b6000819050919050565b7f4e487b7100000000000000000000000000000000000000000000000000000000600052601160045260246000fd5b6000620005b1826200056b565b9150620005be836200056b565b9250828201905080821115620005d957620005d862000575565b5b92915050565b600081519050919050565b7f4e487b7100000000000000000000000000000000000000000000000000000000600052602260045260246000fd5b600060028204905060018216806200063257607f821691505b602082108103620006485762000647620005ea565b5b50919050565b60008190508160005260206000209050919050565b60006020601f8301049050919050565b600082821b905092915050565b600060088302620006b27fffffffffffffffffffffffffffffffffffffffffffffffffffffffffffffffff8262000673565b620006be868362000673565b95508019841693508086168417925050509392505050565b6000819050919050565b600062000701620006fb620006f5846200056b565b620006d6565b6200056b565b9050919050565b6000819050919050565b6200071d83620006e0565b620007356200072c8262000708565b84845462000680565b825550505050565b600090565b6200074c6200073d565b6200075981848462000712565b505050565b5b8181101562000781576200077560008262000742565b6001810190506200075f565b5050565b601f821115620007d0576200079a816200064e565b620007a58462000663565b81016020851015620007b5578190505b620007cd620007c48562000663565b8301826200075e565b50505b505050565b600082821c905092915050565b6000620007f560001984600802620007d5565b1980831691505092915050565b6000620008108383620007e2565b9150826002028217905092915050565b6200082b82620005df565b67ffffffffffffffff81111562000847576200084662000308565b5b62000853825462000619565b6200086082828562000785565b600060209050601f83116001811462000898576000841562000883578287015190505b6200088f858262000802565b865550620008ff565b601f198416620008a8866200064e565b60005b82811015620008d257848901518255600182019150602085019450602081019050620008ab565b86831015620008f25784890151620008ee601f891682620007e2565b8355505b6001600288020188555050505b505050505050565b6000819050919050565b6200091c8162000907565b82525050565b6200092d816200056b565b82525050565b6200093e816200048c565b82525050565b600060a0820190506200095b600083018862000911565b6200096a602083018762000911565b62000979604083018662000911565b62000988606083018562000922565b62000997608083018462000933565b9695505050505050565b600082825260208201905092915050565b6000620009bf82620005df565b620009cb8185620009a1565b9350620009dd818560208601620003c2565b620009e881620002f7565b840191505092915050565b6000602082019050818103600083015262000a0f8184620009b2565b905092915050565b600081519050919050565b6000819050602082019050919050565b600062000a40825162000907565b80915050919050565b600062000a568262000a17565b8262000a628462000a22565b905062000a6f8162000a32565b9250602082101562000ab25762000aad7fffffffffffffffffffffffffffffffffffffffffffffffffffffffffffffffff8360200360080262000673565b831692505b5050919050565b60805160a05160c05160e051610100516101205161014051613f0662000b14600039600061295b0152600061292001526000612d3b01526000612d1a01526000612991015260006129e701526000612a100152613f066000f3fe608060405234801561001057600080fd5b50600436106101375760003560e01c80638441b6af116100b8578063ba3295071161007c578063ba32950714610390578063c6098256146103c0578063d2314c74146103de578063d28e5ce0146103fa578063d6c7b4ad14610418578063d92e82e41461043657610137565b80638441b6af146102be57806384b0196e146102ee57806399c1ce2e14610312578063abe8330914610342578063b60152041461037257610137565b806339f73a48116100ff57806339f73a48146101f45780634269117b1461021257806345aabe4f146102425780636834e3a8146102725780636fc74fb0146102a257610137565b80630fb3bc601461013c57806322ccd57f1461016c5780632ded32271461019c5780633408e470146101a657806338ac4ee1146101c4575b600080fd5b610156600480360381019061015191906130d3565b610454565b60405161016391906131ab565b60405180910390f35b610186600480360381019061018191906130d3565b6104cc565b60405161019391906131ab565b60405180910390f35b6101a4610544565b005b6101ae610546565b6040516101bb91906131d5565b60405180910390f35b6101de60048036038101906101d9919061321c565b61054e565b6040516101eb91906131d5565b60405180910390f35b6101fc610aca565b60405161020991906131d5565b60405180910390f35b61022c600480360381019061022791906132c5565b610ad0565b60405161023991906131d5565b60405180910390f35b61025c6004803603810190610257919061321c565b611048565b60405161026991906131d5565b60405180910390f35b61028c6004803603810190610287919061335c565b6115c4565b60405161029991906131d5565b60405180910390f35b6102bc60048036038101906102b79190613389565b61160d565b005b6102d860048036038101906102d39190613491565b6117a1565b6040516102e591906131ab565b60405180910390f35b6102f661181c565b60405161030997969594939291906136e7565b60405180910390f35b61032c6004803603810190610327919061321c565b6118c6565b60405161033991906131d5565b60405180910390f35b61035c600480360381019061035791906130d3565b611e42565b60405161036991906131ab565b60405180910390f35b61037a611eba565b60405161038791906131ab565b60405180910390f35b6103aa60048036038101906103a5919061376b565b611ee0565b6040516103b791906131ab565b60405180910390f35b6103c8611f54565b6040516103d591906131d5565b60405180910390f35b6103f860048036038101906103f391906137ee565b611f5a565b005b610402612443565b60405161040f91906131d5565b60405180910390f35b610420612449565b60405161042d91906131ab565b60405180910390f35b61043e61246f565b60405161044b9190613927565b60405180910390f35b6000806104ae7f8e8abb4d4892f87f112a8fd3039d3c1b872286e51a33a143e4b95ef26258ca4288888888604051602001610493959493929190613942565b60405160208183030381529060405280519060200120612495565b905060006104bc82856124af565b9050809250505095945050505050565b6000806105267fa3c8e633470dc7a82eceb5adf8915edb336fbecf5dab4ee2b61328f17c60d1f88888888860405160200161050b959493929190613942565b60405160208183030381529060405280519060200120612495565b9050600061053482856124af565b9050809250505095945050505050565b565b600046905090565b6000600260009054906101000a900473ffffffffffffffffffffffffffffffffffffffff1673ffffffffffffffffffffffffffffffffffffffff16638da5cb5b6040518163ffffffff1660e01b8152600401602060405180830381865afa1580156105bd573d6000803e3d6000fd5b505050506040513d601f19601f820116820180604052508101906105e191906139aa565b73ffffffffffffffffffffffffffffffffffffffff163373ffffffffffffffffffffffffffffffffffffffff161461064e576040517f08c379a000000000000000000000000000000000000000000000000000000000815260040161064590613a23565b60405180910390fd5b6000600860008473ffffffffffffffffffffffffffffffffffffffff1673ffffffffffffffffffffffffffffffffffffffff1681526020019081526020016000205490508085116106d4576040517f08c379a00000000000000000000000000000000000000000000000000000000081526004016106cb90613a8f565b60405180910390fd5b8560075414610718576040517f08c379a000000000000000000000000000000000000000000000000000000000815260040161070f90613afb565b60405180910390fd5b60006107278989898989611e42565b9050600073ffffffffffffffffffffffffffffffffffffffff168473ffffffffffffffffffffffffffffffffffffffff161415801561079157508073ffffffffffffffffffffffffffffffffffffffff168473ffffffffffffffffffffffffffffffffffffffff16145b6107d0576040517f08c379a00000000000000000000000000000000000000000000000000000000081526004016107c790613b67565b60405180910390fd5b85600860008673ffffffffffffffffffffffffffffffffffffffff1673ffffffffffffffffffffffffffffffffffffffff1681526020019081526020016000208190555061081d846124db565b600260009054906101000a900473ffffffffffffffffffffffffffffffffffffffff1673ffffffffffffffffffffffffffffffffffffffff1663b9cfe2a86040518163ffffffff1660e01b8152600401602060405180830381865afa15801561088a573d6000803e3d6000fd5b505050506040513d601f19601f820116820180604052508101906108ae91906139aa565b73ffffffffffffffffffffffffffffffffffffffff16634c5d8e4385600260009054906101000a900473ffffffffffffffffffffffffffffffffffffffff1673ffffffffffffffffffffffffffffffffffffffff1663eecccaab6040518163ffffffff1660e01b8152600401602060405180830381865afa158015610937573d6000803e3d6000fd5b505050506040513d601f19601f8201168201806040525081019061095b91906139aa565b8c6040518463ffffffff1660e01b815260040161097a93929190613b87565b600060405180830381600087803b15801561099457600080fd5b505af11580156109a8573d6000803e3d6000fd5b50505050600260009054906101000a900473ffffffffffffffffffffffffffffffffffffffff1673ffffffffffffffffffffffffffffffffffffffff1663eecccaab6040518163ffffffff1660e01b8152600401602060405180830381865afa158015610a19573d6000803e3d6000fd5b505050506040513d601f19601f82011682018060405250810190610a3d91906139aa565b73ffffffffffffffffffffffffffffffffffffffff166302fa7acb858b8b6040518463ffffffff1660e01b8152600401610a7993929190613bbe565b6020604051808303816000875af1158015610a98573d6000803e3d6000fd5b505050506040513d601f19601f82011682018060405250810190610abc9190613c0a565b925050509695505050505050565b60065481565b6000600260009054906101000a900473ffffffffffffffffffffffffffffffffffffffff1673ffffffffffffffffffffffffffffffffffffffff16638da5cb5b6040518163ffffffff1660e01b8152600401602060405180830381865afa158015610b3f573d6000803e3d6000fd5b505050506040513d601f19601f82011682018060405250810190610b6391906139aa565b73ffffffffffffffffffffffffffffffffffffffff163373ffffffffffffffffffffffffffffffffffffffff1614610bd0576040517f08c379a0000000000000000000000000000000000000000000000000000000008152600401610bc790613a23565b60405180910390fd5b6000600860008473ffffffffffffffffffffffffffffffffffffffff1673ffffffffffffffffffffffffffffffffffffffff168152602001908152602001600020549050808511610c56576040517f08c379a0000000000000000000000000000000000000000000000000000000008152600401610c4d90613a8f565b60405180910390fd5b8560075414610c9a576040517f08c379a0000000000000000000000000000000000000000000000000000000008152600401610c9190613afb565b60405180910390fd5b6000610ca888888888611ee0565b9050600073ffffffffffffffffffffffffffffffffffffffff168473ffffffffffffffffffffffffffffffffffffffff1614158015610d1257508073ffffffffffffffffffffffffffffffffffffffff168473ffffffffffffffffffffffffffffffffffffffff16145b610d51576040517f08c379a0000000000000000000000000000000000000000000000000000000008152600401610d4890613b67565b60405180910390fd5b85600860008673ffffffffffffffffffffffffffffffffffffffff1673ffffffffffffffffffffffffffffffffffffffff16815260200190815260200160002081905550600260009054906101000a900473ffffffffffffffffffffffffffffffffffffffff1673ffffffffffffffffffffffffffffffffffffffff1663b9cfe2a86040518163ffffffff1660e01b8152600401602060405180830381865afa158015610e02573d6000803e3d6000fd5b505050506040513d601f19601f82011682018060405250810190610e2691906139aa565b73ffffffffffffffffffffffffffffffffffffffff16634c5d8e4385600260009054906101000a900473ffffffffffffffffffffffffffffffffffffffff1673ffffffffffffffffffffffffffffffffffffffff16638bcf4b3b6040518163ffffffff1660e01b8152600401602060405180830381865afa158015610eaf573d6000803e3d6000fd5b505050506040513d601f19601f82011682018060405250810190610ed391906139aa565b8b6040518463ffffffff1660e01b8152600401610ef293929190613b87565b600060405180830381600087803b158015610f0c57600080fd5b505af1158015610f20573d6000803e3d6000fd5b50505050600260009054906101000a900473ffffffffffffffffffffffffffffffffffffffff1673ffffffffffffffffffffffffffffffffffffffff16638bcf4b3b6040518163ffffffff1660e01b8152600401602060405180830381865afa158015610f91573d6000803e3d6000fd5b505050506040513d601f19601f82011682018060405250810190610fb591906139aa565b73ffffffffffffffffffffffffffffffffffffffff166385ca1c43858a6040518363ffffffff1660e01b8152600401610fef929190613c37565b6020604051808303816000875af115801561100e573d6000803e3d6000fd5b505050506040513d601f19601f820116820180604052508101906110329190613c0a565b925061103d846124db565b505095945050505050565b6000600260009054906101000a900473ffffffffffffffffffffffffffffffffffffffff1673ffffffffffffffffffffffffffffffffffffffff16638da5cb5b6040518163ffffffff1660e01b8152600401602060405180830381865afa1580156110b7573d6000803e3d6000fd5b505050506040513d601f19601f820116820180604052508101906110db91906139aa565b73ffffffffffffffffffffffffffffffffffffffff163373ffffffffffffffffffffffffffffffffffffffff1614611148576040517f08c379a000000000000000000000000000000000000000000000000000000000815260040161113f90613a23565b60405180910390fd5b6000600860008473ffffffffffffffffffffffffffffffffffffffff1673ffffffffffffffffffffffffffffffffffffffff1681526020019081526020016000205490508085116111ce576040517f08c379a00000000000000000000000000000000000000000000000000000000081526004016111c590613a8f565b60405180910390fd5b8560075414611212576040517f08c379a000000000000000000000000000000000000000000000000000000000815260040161120990613afb565b60405180910390fd5b60006112218989898989610454565b9050600073ffffffffffffffffffffffffffffffffffffffff168473ffffffffffffffffffffffffffffffffffffffff161415801561128b57508073ffffffffffffffffffffffffffffffffffffffff168473ffffffffffffffffffffffffffffffffffffffff16145b6112ca576040517f08c379a00000000000000000000000000000000000000000000000000000000081526004016112c190613b67565b60405180910390fd5b85600860008673ffffffffffffffffffffffffffffffffffffffff1673ffffffffffffffffffffffffffffffffffffffff16815260200190815260200160002081905550600260009054906101000a900473ffffffffffffffffffffffffffffffffffffffff1673ffffffffffffffffffffffffffffffffffffffff1663165310c56040518163ffffffff1660e01b8152600401602060405180830381865afa15801561137b573d6000803e3d6000fd5b505050506040513d601f19601f8201168201806040525081019061139f91906139aa565b73ffffffffffffffffffffffffffffffffffffffff16634c5d8e4385600260009054906101000a900473ffffffffffffffffffffffffffffffffffffffff1673ffffffffffffffffffffffffffffffffffffffff1663eecccaab6040518163ffffffff1660e01b8152600401602060405180830381865afa158015611428573d6000803e3d6000fd5b505050506040513d601f19601f8201168201806040525081019061144c91906139aa565b8c6040518463ffffffff1660e01b815260040161146b93929190613b87565b600060405180830381600087803b15801561148557600080fd5b505af1158015611499573d6000803e3d6000fd5b50505050600260009054906101000a900473ffffffffffffffffffffffffffffffffffffffff1673ffffffffffffffffffffffffffffffffffffffff1663eecccaab6040518163ffffffff1660e01b8152600401602060405180830381865afa15801561150a573d6000803e3d6000fd5b505050506040513d601f19601f8201168201806040525081019061152e91906139aa565b73ffffffffffffffffffffffffffffffffffffffff166364c42d03858b8b6040518463ffffffff1660e01b815260040161156a93929190613bbe565b6020604051808303816000875af1158015611589573d6000803e3d6000fd5b505050506040513d601f19601f820116820180604052508101906115ad9190613c0a565b92506115b8846124db565b50509695505050505050565b6000600860008373ffffffffffffffffffffffffffffffffffffffff1673ffffffffffffffffffffffffffffffffffffffff168152602001908152602001600020549050919050565b600260009054906101000a900473ffffffffffffffffffffffffffffffffffffffff1673ffffffffffffffffffffffffffffffffffffffff16638da5cb5b6040518163ffffffff1660e01b8152600401602060405180830381865afa15801561167a573d6000803e3d6000fd5b505050506040513d601f19601f8201168201806040525081019061169e91906139aa565b73ffffffffffffffffffffffffffffffffffffffff163373ffffffffffffffffffffffffffffffffffffffff161461170b576040517f08c379a000000000000000000000000000000000000000000000000000000000815260040161170290613a23565b60405180910390fd5b83600360006101000a81548173ffffffffffffffffffffffffffffffffffffffff021916908373ffffffffffffffffffffffffffffffffffffffff16021790555082600460006101000a81548173ffffffffffffffffffffffffffffffffffffffff021916908373ffffffffffffffffffffffffffffffffffffffff160217905550816005819055508060068190555050505050565b6000806117fd7f514b32e16fd9dba11617d2ffe25d8e37f3b59c028a8a819975b0a3e1c02d003389898989896040516020016117e296959493929190613c60565b60405160208183030381529060405280519060200120612495565b9050600061180b82856124af565b905080925050509695505050505050565b600060608060008060006060611830612917565b611838612952565b46306000801b600067ffffffffffffffff81111561185957611858612fa8565b5b6040519080825280602002602001820160405280156118875781602001602082028036833780820191505090505b507f0f00000000000000000000000000000000000000000000000000000000000000959493929190965096509650965096509650965090919293949596565b6000600260009054906101000a900473ffffffffffffffffffffffffffffffffffffffff1673ffffffffffffffffffffffffffffffffffffffff16638da5cb5b6040518163ffffffff1660e01b8152600401602060405180830381865afa158015611935573d6000803e3d6000fd5b505050506040513d601f19601f8201168201806040525081019061195991906139aa565b73ffffffffffffffffffffffffffffffffffffffff163373ffffffffffffffffffffffffffffffffffffffff16146119c6576040517f08c379a00000000000000000000000000000000000000000000000000000000081526004016119bd90613a23565b60405180910390fd5b6000600860008473ffffffffffffffffffffffffffffffffffffffff1673ffffffffffffffffffffffffffffffffffffffff168152602001908152602001600020549050808511611a4c576040517f08c379a0000000000000000000000000000000000000000000000000000000008152600401611a4390613a8f565b60405180910390fd5b8560075414611a90576040517f08c379a0000000000000000000000000000000000000000000000000000000008152600401611a8790613afb565b60405180910390fd5b6000611a9f89898989896104cc565b9050600073ffffffffffffffffffffffffffffffffffffffff168473ffffffffffffffffffffffffffffffffffffffff1614158015611b0957508073ffffffffffffffffffffffffffffffffffffffff168473ffffffffffffffffffffffffffffffffffffffff16145b611b48576040517f08c379a0000000000000000000000000000000000000000000000000000000008152600401611b3f90613b67565b60405180910390fd5b85600860008673ffffffffffffffffffffffffffffffffffffffff1673ffffffffffffffffffffffffffffffffffffffff16815260200190815260200160002081905550600260009054906101000a900473ffffffffffffffffffffffffffffffffffffffff1673ffffffffffffffffffffffffffffffffffffffff1663165310c56040518163ffffffff1660e01b8152600401602060405180830381865afa158015611bf9573d6000803e3d6000fd5b505050506040513d601f19601f82011682018060405250810190611c1d91906139aa565b73ffffffffffffffffffffffffffffffffffffffff16634c5d8e4385600260009054906101000a900473ffffffffffffffffffffffffffffffffffffffff1673ffffffffffffffffffffffffffffffffffffffff16638bcf4b3b6040518163ffffffff1660e01b8152600401602060405180830381865afa158015611ca6573d6000803e3d6000fd5b505050506040513d601f19601f82011682018060405250810190611cca91906139aa565b8b6040518463ffffffff1660e01b8152600401611ce993929190613b87565b600060405180830381600087803b158015611d0357600080fd5b505af1158015611d17573d6000803e3d6000fd5b50505050600260009054906101000a900473ffffffffffffffffffffffffffffffffffffffff1673ffffffffffffffffffffffffffffffffffffffff16638bcf4b3b6040518163ffffffff1660e01b8152600401602060405180830381865afa158015611d88573d6000803e3d6000fd5b505050506040513d601f19601f82011682018060405250810190611dac91906139aa565b73ffffffffffffffffffffffffffffffffffffffff16638eba1ea7858b8b6040518463ffffffff1660e01b8152600401611de893929190613bbe565b6020604051808303816000875af1158015611e07573d6000803e3d6000fd5b505050506040513d601f19601f82011682018060405250810190611e2b9190613c0a565b9250611e36846124db565b50509695505050505050565b600080611e9c7f2a34be1e6b181b28dcea6027517c04f0a3fd85774167d9452d698ff3f153575188888888604051602001611e81959493929190613942565b60405160208183030381529060405280519060200120612495565b90506000611eaa82856124af565b9050809250505095945050505050565b600460009054906101000a900473ffffffffffffffffffffffffffffffffffffffff1681565b600080611f377e379a9f0b57a00ae1a69397d57b4339d3e816af5fb3eceefbc4997784ce1f37878787604051602001611f1c9493929190613cc8565b60405160208183030381529060405280519060200120612495565b90506000611f4582856124af565b90508092505050949350505050565b60055481565b600260009054906101000a900473ffffffffffffffffffffffffffffffffffffffff1673ffffffffffffffffffffffffffffffffffffffff16638da5cb5b6040518163ffffffff1660e01b8152600401602060405180830381865afa158015611fc7573d6000803e3d6000fd5b505050506040513d601f19601f82011682018060405250810190611feb91906139aa565b73ffffffffffffffffffffffffffffffffffffffff163373ffffffffffffffffffffffffffffffffffffffff1614612058576040517f08c379a000000000000000000000000000000000000000000000000000000000815260040161204f90613a23565b60405180910390fd5b6000600860008373ffffffffffffffffffffffffffffffffffffffff1673ffffffffffffffffffffffffffffffffffffffff1681526020019081526020016000205490508084116120de576040517f08c379a00000000000000000000000000000000000000000000000000000000081526004016120d590613a8f565b60405180910390fd5b8460075414612122576040517f08c379a000000000000000000000000000000000000000000000000000000000815260040161211990613afb565b60405180910390fd5b60006121328989898989896117a1565b9050600073ffffffffffffffffffffffffffffffffffffffff168373ffffffffffffffffffffffffffffffffffffffff161415801561219c57508073ffffffffffffffffffffffffffffffffffffffff168373ffffffffffffffffffffffffffffffffffffffff16145b6121db576040517f08c379a00000000000000000000000000000000000000000000000000000000081526004016121d290613b67565b60405180910390fd5b84600860008573ffffffffffffffffffffffffffffffffffffffff1673ffffffffffffffffffffffffffffffffffffffff16815260200190815260200160002081905550600260009054906101000a900473ffffffffffffffffffffffffffffffffffffffff1673ffffffffffffffffffffffffffffffffffffffff1663165310c56040518163ffffffff1660e01b8152600401602060405180830381865afa15801561228c573d6000803e3d6000fd5b505050506040513d601f19601f820116820180604052508101906122b091906139aa565b73ffffffffffffffffffffffffffffffffffffffff16634c5d8e4384308a6040518463ffffffff1660e01b81526004016122ec93929190613b87565b600060405180830381600087803b15801561230657600080fd5b505af115801561231a573d6000803e3d6000fd5b50505050600260009054906101000a900473ffffffffffffffffffffffffffffffffffffffff1673ffffffffffffffffffffffffffffffffffffffff1663165310c56040518163ffffffff1660e01b8152600401602060405180830381865afa15801561238b573d6000803e3d6000fd5b505050506040513d601f19601f820116820180604052508101906123af91906139aa565b73ffffffffffffffffffffffffffffffffffffffff166323b872dd848b8a6040518463ffffffff1660e01b81526004016123eb93929190613b87565b6020604051808303816000875af115801561240a573d6000803e3d6000fd5b505050506040513d601f19601f8201168201806040525081019061242e9190613d45565b50612438836124db565b505050505050505050565b60075481565b600360009054906101000a900473ffffffffffffffffffffffffffffffffffffffff1681565b600260009054906101000a900473ffffffffffffffffffffffffffffffffffffffff1681565b60006124a86124a261298d565b83612a44565b9050919050565b6000806000806124bf8686612a85565b9250925092506124cf8282612ae1565b82935050505092915050565b6000600460009054906101000a900473ffffffffffffffffffffffffffffffffffffffff169050600073ffffffffffffffffffffffffffffffffffffffff168173ffffffffffffffffffffffffffffffffffffffff16036125ca57600260009054906101000a900473ffffffffffffffffffffffffffffffffffffffff1673ffffffffffffffffffffffffffffffffffffffff1663eecccaab6040518163ffffffff1660e01b8152600401602060405180830381865afa1580156125a3573d6000803e3d6000fd5b505050506040513d601f19601f820116820180604052508101906125c791906139aa565b90505b600260009054906101000a900473ffffffffffffffffffffffffffffffffffffffff1673ffffffffffffffffffffffffffffffffffffffff1663165310c56040518163ffffffff1660e01b8152600401602060405180830381865afa158015612637573d6000803e3d6000fd5b505050506040513d601f19601f8201168201806040525081019061265b91906139aa565b73ffffffffffffffffffffffffffffffffffffffff16634c5d8e4383306007546040518463ffffffff1660e01b815260040161269993929190613b87565b600060405180830381600087803b1580156126b357600080fd5b505af11580156126c7573d6000803e3d6000fd5b50505050600260009054906101000a900473ffffffffffffffffffffffffffffffffffffffff1673ffffffffffffffffffffffffffffffffffffffff1663165310c56040518163ffffffff1660e01b8152600401602060405180830381865afa158015612738573d6000803e3d6000fd5b505050506040513d601f19601f8201168201806040525081019061275c91906139aa565b73ffffffffffffffffffffffffffffffffffffffff166323b872dd83600360009054906101000a900473ffffffffffffffffffffffffffffffffffffffff166005546040518463ffffffff1660e01b81526004016127bc93929190613b87565b6020604051808303816000875af11580156127db573d6000803e3d6000fd5b505050506040513d601f19601f820116820180604052508101906127ff9190613d45565b50600260009054906101000a900473ffffffffffffffffffffffffffffffffffffffff1673ffffffffffffffffffffffffffffffffffffffff1663165310c56040518163ffffffff1660e01b8152600401602060405180830381865afa15801561286d573d6000803e3d6000fd5b505050506040513d601f19601f8201168201806040525081019061289191906139aa565b73ffffffffffffffffffffffffffffffffffffffff166323b872dd83836006546040518463ffffffff1660e01b81526004016128cf93929190613b87565b6020604051808303816000875af11580156128ee573d6000803e3d6000fd5b505050506040513d601f19601f820116820180604052508101906129129190613d45565b505050565b606061294d60007f0000000000000000000000000000000000000000000000000000000000000000612c4590919063ffffffff16565b905090565b606061298860017f0000000000000000000000000000000000000000000000000000000000000000612c4590919063ffffffff16565b905090565b60007f000000000000000000000000000000000000000000000000000000000000000073ffffffffffffffffffffffffffffffffffffffff163073ffffffffffffffffffffffffffffffffffffffff16148015612a0957507f000000000000000000000000000000000000000000000000000000000000000046145b15612a36577f00000000000000000000000000000000000000000000000000000000000000009050612a41565b612a3e612cf5565b90505b90565b60006040517f190100000000000000000000000000000000000000000000000000000000000081528360028201528260228201526042812091505092915050565b60008060006041845103612aca5760008060006020870151925060408701519150606087015160001a9050612abc88828585612d8b565b955095509550505050612ada565b60006002855160001b9250925092505b9250925092565b60006003811115612af557612af4613d72565b5b826003811115612b0857612b07613d72565b5b0315612c415760016003811115612b2257612b21613d72565b5b826003811115612b3557612b34613d72565b5b03612b6c576040517ff645eedf00000000000000000000000000000000000000000000000000000000815260040160405180910390fd5b60026003811115612b8057612b7f613d72565b5b826003811115612b9357612b92613d72565b5b03612bd8578060001c6040517ffce698f7000000000000000000000000000000000000000000000000000000008152600401612bcf91906131d5565b60405180910390fd5b600380811115612beb57612bea613d72565b5b826003811115612bfe57612bfd613d72565b5b03612c4057806040517fd78bce0c000000000000000000000000000000000000000000000000000000008152600401612c379190613da1565b60405180910390fd5b5b5050565b606060ff60001b8314612c6257612c5b83612e7f565b9050612cef565b818054612c6e90613deb565b80601f0160208091040260200160405190810160405280929190818152602001828054612c9a90613deb565b8015612ce75780601f10612cbc57610100808354040283529160200191612ce7565b820191906000526020600020905b815481529060010190602001808311612cca57829003601f168201915b505050505090505b92915050565b60007f8b73c3c69bb8fe3d512ecc4cf759cc79239f7b179b0ffacaa9a75d522b39400f7f00000000000000000000000000000000000000000000000000000000000000007f00000000000000000000000000000000000000000000000000000000000000004630604051602001612d70959493929190613e1c565b60405160208183030381529060405280519060200120905090565b60008060007f7fffffffffffffffffffffffffffffff5d576e7357a4501ddfe92f46681b20a08460001c1115612dcb576000600385925092509250612e75565b600060018888888860405160008152602001604052604051612df09493929190613e8b565b6020604051602081039080840390855afa158015612e12573d6000803e3d6000fd5b505050602060405103519050600073ffffffffffffffffffffffffffffffffffffffff168173ffffffffffffffffffffffffffffffffffffffff1603612e6657600060016000801b93509350935050612e75565b8060008060001b935093509350505b9450945094915050565b60606000612e8c83612ef3565b90506000602067ffffffffffffffff811115612eab57612eaa612fa8565b5b6040519080825280601f01601f191660200182016040528015612edd5781602001600182028036833780820191505090505b5090508181528360208201528092505050919050565b60008060ff8360001c169050601f811115612f3a576040517fb3512b0c00000000000000000000000000000000000000000000000000000000815260040160405180910390fd5b80915050919050565b6000604051905090565b600080fd5b600080fd5b6000819050919050565b612f6a81612f57565b8114612f7557600080fd5b50565b600081359050612f8781612f61565b92915050565b600080fd5b600080fd5b6000601f19601f8301169050919050565b7f4e487b7100000000000000000000000000000000000000000000000000000000600052604160045260246000fd5b612fe082612f97565b810181811067ffffffffffffffff82111715612fff57612ffe612fa8565b5b80604052505050565b6000613012612f43565b905061301e8282612fd7565b919050565b600067ffffffffffffffff82111561303e5761303d612fa8565b5b61304782612f97565b9050602081019050919050565b82818337600083830152505050565b600061307661307184613023565b613008565b90508281526020810184848401111561309257613091612f92565b5b61309d848285613054565b509392505050565b600082601f8301126130ba576130b9612f8d565b5b81356130ca848260208601613063565b91505092915050565b600080600080600060a086880312156130ef576130ee612f4d565b5b60006130fd88828901612f78565b955050602061310e88828901612f78565b945050604061311f88828901612f78565b935050606061313088828901612f78565b925050608086013567ffffffffffffffff81111561315157613150612f52565b5b61315d888289016130a5565b9150509295509295909350565b600073ffffffffffffffffffffffffffffffffffffffff82169050919050565b60006131958261316a565b9050919050565b6131a58161318a565b82525050565b60006020820190506131c0600083018461319c565b92915050565b6131cf81612f57565b82525050565b60006020820190506131ea60008301846131c6565b92915050565b6131f98161318a565b811461320457600080fd5b50565b600081359050613216816131f0565b92915050565b60008060008060008060c0878903121561323957613238612f4d565b5b600061324789828a01612f78565b965050602061325889828a01612f78565b955050604061326989828a01612f78565b945050606061327a89828a01612f78565b935050608087013567ffffffffffffffff81111561329b5761329a612f52565b5b6132a789828a016130a5565b92505060a06132b889828a01613207565b9150509295509295509295565b600080600080600060a086880312156132e1576132e0612f4d565b5b60006132ef88828901612f78565b955050602061330088828901612f78565b945050604061331188828901612f78565b935050606086013567ffffffffffffffff81111561333257613331612f52565b5b61333e888289016130a5565b925050608061334f88828901613207565b9150509295509295909350565b60006020828403121561337257613371612f4d565b5b600061338084828501613207565b91505092915050565b600080600080608085870312156133a3576133a2612f4d565b5b60006133b187828801613207565b94505060206133c287828801613207565b93505060406133d387828801612f78565b92505060606133e487828801612f78565b91505092959194509250565b600067ffffffffffffffff82111561340b5761340a612fa8565b5b61341482612f97565b9050602081019050919050565b600061343461342f846133f0565b613008565b9050828152602081018484840111156134505761344f612f92565b5b61345b848285613054565b509392505050565b600082601f83011261347857613477612f8d565b5b8135613488848260208601613421565b91505092915050565b60008060008060008060c087890312156134ae576134ad612f4d565b5b60006134bc89828a01613207565b965050602087013567ffffffffffffffff8111156134dd576134dc612f52565b5b6134e989828a01613463565b95505060406134fa89828a01612f78565b945050606061350b89828a01612f78565b935050608061351c89828a01612f78565b92505060a087013567ffffffffffffffff81111561353d5761353c612f52565b5b61354989828a016130a5565b9150509295509295509295565b60007fff0000000000000000000000000000000000000000000000000000000000000082169050919050565b61358b81613556565b82525050565b600081519050919050565b600082825260208201905092915050565b60005b838110156135cb5780820151818401526020810190506135b0565b60008484015250505050565b60006135e282613591565b6135ec818561359c565b93506135fc8185602086016135ad565b61360581612f97565b840191505092915050565b6000819050919050565b61362381613610565b82525050565b600081519050919050565b600082825260208201905092915050565b6000819050602082019050919050565b61365e81612f57565b82525050565b60006136708383613655565b60208301905092915050565b6000602082019050919050565b600061369482613629565b61369e8185613634565b93506136a983613645565b8060005b838110156136da5781516136c18882613664565b97506136cc8361367c565b9250506001810190506136ad565b5085935050505092915050565b600060e0820190506136fc600083018a613582565b818103602083015261370e81896135d7565b9050818103604083015261372281886135d7565b905061373160608301876131c6565b61373e608083018661319c565b61374b60a083018561361a565b81810360c083015261375d8184613689565b905098975050505050505050565b6000806000806080858703121561378557613784612f4d565b5b600061379387828801612f78565b94505060206137a487828801612f78565b93505060406137b587828801612f78565b925050606085013567ffffffffffffffff8111156137d6576137d5612f52565b5b6137e2878288016130a5565b91505092959194509250565b600080600080600080600060e0888a03121561380d5761380c612f4d565b5b600061381b8a828b01613207565b975050602088013567ffffffffffffffff81111561383c5761383b612f52565b5b6138488a828b01613463565b96505060406138598a828b01612f78565b955050606061386a8a828b01612f78565b945050608061387b8a828b01612f78565b93505060a088013567ffffffffffffffff81111561389c5761389b612f52565b5b6138a88a828b016130a5565b92505060c06138b98a828b01613207565b91505092959891949750929550565b6000819050919050565b60006138ed6138e86138e38461316a565b6138c8565b61316a565b9050919050565b60006138ff826138d2565b9050919050565b6000613911826138f4565b9050919050565b61392181613906565b82525050565b600060208201905061393c6000830184613918565b92915050565b600060a082019050613957600083018861361a565b61396460208301876131c6565b61397160408301866131c6565b61397e60608301856131c6565b61398b60808301846131c6565b9695505050505050565b6000815190506139a4816131f0565b92915050565b6000602082840312156139c0576139bf612f4d565b5b60006139ce84828501613995565b91505092915050565b7f6163636573732064656e69656400000000000000000000000000000000000000600082015250565b6000613a0d600d8361359c565b9150613a18826139d7565b602082019050919050565b60006020820190508181036000830152613a3c81613a00565b9050919050565b7f696e76616c6964206e6f6e636500000000000000000000000000000000000000600082015250565b6000613a79600d8361359c565b9150613a8482613a43565b602082019050919050565b60006020820190508181036000830152613aa881613a6c565b9050919050565b7f696e76616c696420666565000000000000000000000000000000000000000000600082015250565b6000613ae5600b8361359c565b9150613af082613aaf565b602082019050919050565b60006020820190508181036000830152613b1481613ad8565b9050919050565b7f696e76616c6964207369676e6572000000000000000000000000000000000000600082015250565b6000613b51600e8361359c565b9150613b5c82613b1b565b602082019050919050565b60006020820190508181036000830152613b8081613b44565b9050919050565b6000606082019050613b9c600083018661319c565b613ba9602083018561319c565b613bb660408301846131c6565b949350505050565b6000606082019050613bd3600083018661319c565b613be060208301856131c6565b613bed60408301846131c6565b949350505050565b600081519050613c0481612f61565b92915050565b600060208284031215613c2057613c1f612f4d565b5b6000613c2e84828501613bf5565b91505092915050565b6000604082019050613c4c600083018561319c565b613c5960208301846131c6565b9392505050565b600060c082019050613c75600083018961361a565b613c82602083018861319c565b8181036040830152613c9481876135d7565b9050613ca360608301866131c6565b613cb060808301856131c6565b613cbd60a08301846131c6565b979650505050505050565b6000608082019050613cdd600083018761361a565b613cea60208301866131c6565b613cf760408301856131c6565b613d0460608301846131c6565b95945050505050565b60008115159050919050565b613d2281613d0d565b8114613d2d57600080fd5b50565b600081519050613d3f81613d19565b92915050565b600060208284031215613d5b57613d5a612f4d565b5b6000613d6984828501613d30565b91505092915050565b7f4e487b7100000000000000000000000000000000000000000000000000000000600052602160045260246000fd5b6000602082019050613db6600083018461361a565b92915050565b7f4e487b7100000000000000000000000000000000000000000000000000000000600052602260045260246000fd5b60006002820490506001821680613e0357607f821691505b602082108103613e1657613e15613dbc565b5b50919050565b600060a082019050613e31600083018861361a565b613e3e602083018761361a565b613e4b604083018661361a565b613e5860608301856131c6565b613e65608083018461319c565b9695505050505050565b600060ff82169050919050565b613e8581613e6f565b82525050565b6000608082019050613ea0600083018761361a565b613ead6020830186613e7c565b613eba604083018561361a565b613ec7606083018461361a565b9594505050505056fea2646970667358221220a2922de572772a82f5b3964f4a8dcaee3cc1d5012db93f0d0417c8cdc35e016f64736f6c63430008140033",
  "linkReferences": {},
  "deployedLinkReferences": {}
}