{
  "_format": "hh-sol-artifact-1",
  "contractName": "Delegator",
  "sourceName": "contracts/Delegator.sol",
  "abi": [
    {
      "inputs": [
        {
          "internalType": "string",
          "name": "_name",
          "type": "string"
        },
        {
          "internalType": "string",
          "name": "_version",
          "type": "string"
        },
        {
          "internalType": "address",
          "name": "_cfg",
          "type": "address"
        }
      ],
      "stateMutability": "nonpayable",
      "type": "constructor"
    },
    {
      "inputs": [],
      "name": "ECDSAInvalidSignature",
      "type": "error"
    },
    {
      "inputs": [
        {
          "internalType": "uint256",
          "name": "length",
          "type": "uint256"
        }
      ],
      "name": "ECDSAInvalidSignatureLength",
      "type": "error"
    },
    {
      "inputs": [
        {
          "internalType": "bytes32",
          "name": "s",
          "type": "bytes32"
        }
      ],
      "name": "ECDSAInvalidSignatureS",
      "type": "error"
    },
    {
      "inputs": [],
      "name": "InvalidShortString",
      "type": "error"
    },
    {
      "inputs": [
        {
          "internalType": "string",
          "name": "str",
          "type": "string"
        }
      ],
      "name": "StringTooLong",
      "type": "error"
    },
    {
      "anonymous": false,
      "inputs": [],
      "name": "EIP712DomainChanged",
      "type": "event"
    },
    {
      "inputs": [],
      "name": "ADDRESS_FEERECEIVER",
      "outputs": [
        {
          "internalType": "address",
          "name": "",
          "type": "address"
        }
      ],
      "stateMutability": "view",
      "type": "function"
    },
    {
      "inputs": [
        {
          "internalType": "uint256",
          "name": "amountCoin",
          "type": "uint256"
        },
        {
          "internalType": "uint256",
          "name": "resultMinimum",
          "type": "uint256"
        },
        {
          "internalType": "uint256",
          "name": "fee",
          "type": "uint256"
        },
        {
          "internalType": "uint256",
          "name": "nonce",
          "type": "uint256"
        },
        {
          "internalType": "bytes",
          "name": "signature",
          "type": "bytes"
        },
        {
          "internalType": "address",
          "name": "signer",
          "type": "address"
        }
      ],
      "name": "BuyToken",
      "outputs": [
        {
          "internalType": "uint256",
          "name": "",
          "type": "uint256"
        }
      ],
      "stateMutability": "nonpayable",
      "type": "function"
    },
    {
      "inputs": [],
      "name": "CONFIG",
      "outputs": [
        {
          "internalType": "contract Config",
          "name": "",
          "type": "address"
        }
      ],
      "stateMutability": "view",
      "type": "function"
    },
    {
      "inputs": [
        {
          "internalType": "uint256",
          "name": "nftId",
          "type": "uint256"
        },
        {
          "internalType": "uint256",
          "name": "amountCoin",
          "type": "uint256"
        },
        {
          "internalType": "uint256",
          "name": "fee",
          "type": "uint256"
        },
        {
          "internalType": "uint256",
          "name": "nonce",
          "type": "uint256"
        },
        {
          "internalType": "bytes",
          "name": "signature",
          "type": "bytes"
        },
        {
          "internalType": "address",
          "name": "signer",
          "type": "address"
        }
      ],
      "name": "PayLoan",
      "outputs": [
        {
          "internalType": "uint256",
          "name": "",
          "type": "uint256"
        }
      ],
      "stateMutability": "nonpayable",
      "type": "function"
    },
    {
      "inputs": [
        {
          "internalType": "uint256",
          "name": "amountToken",
          "type": "uint256"
        },
        {
          "internalType": "uint256",
          "name": "resultMinimum",
          "type": "uint256"
        },
        {
          "internalType": "uint256",
          "name": "fee",
          "type": "uint256"
        },
        {
          "internalType": "uint256",
          "name": "nonce",
          "type": "uint256"
        },
        {
          "internalType": "bytes",
          "name": "signature",
          "type": "bytes"
        },
        {
          "internalType": "address",
          "name": "signer",
          "type": "address"
        }
      ],
      "name": "SellToken",
      "outputs": [
        {
          "internalType": "uint256",
          "name": "",
          "type": "uint256"
        }
      ],
      "stateMutability": "nonpayable",
      "type": "function"
    },
    {
      "inputs": [
        {
          "internalType": "uint256",
          "name": "amountToken",
          "type": "uint256"
        },
        {
          "internalType": "uint256",
          "name": "fee",
          "type": "uint256"
        },
        {
          "internalType": "uint256",
          "name": "nonce",
          "type": "uint256"
        },
        {
          "internalType": "bytes",
          "name": "signature",
          "type": "bytes"
        },
        {
          "internalType": "address",
          "name": "signer",
          "type": "address"
        }
      ],
      "name": "TakeLoan",
      "outputs": [
        {
          "internalType": "uint256",
          "name": "",
          "type": "uint256"
        }
      ],
      "stateMutability": "nonpayable",
      "type": "function"
    },
    {
      "inputs": [],
      "name": "eip712Domain",
      "outputs": [
        {
          "internalType": "bytes1",
          "name": "fields",
          "type": "bytes1"
        },
        {
          "internalType": "string",
          "name": "name",
          "type": "string"
        },
        {
          "internalType": "string",
          "name": "version",
          "type": "string"
        },
        {
          "internalType": "uint256",
          "name": "chainId",
          "type": "uint256"
        },
        {
          "internalType": "address",
          "name": "verifyingContract",
          "type": "address"
        },
        {
          "internalType": "bytes32",
          "name": "salt",
          "type": "bytes32"
        },
        {
          "internalType": "uint256[]",
          "name": "extensions",
          "type": "uint256[]"
        }
      ],
      "stateMutability": "view",
      "type": "function"
    },
    {
      "inputs": [],
      "name": "feeCoin",
      "outputs": [
        {
          "internalType": "uint256",
          "name": "",
          "type": "uint256"
        }
      ],
      "stateMutability": "view",
      "type": "function"
    },
    {
      "inputs": [],
      "name": "getChainId",
      "outputs": [
        {
          "internalType": "uint256",
          "name": "",
          "type": "uint256"
        }
      ],
      "stateMutability": "view",
      "type": "function"
    },
    {
      "inputs": [
        {
          "internalType": "address",
          "name": "user",
          "type": "address"
        }
      ],
      "name": "getUserNonce",
      "outputs": [
        {
          "internalType": "uint256",
          "name": "",
          "type": "uint256"
        }
      ],
      "stateMutability": "view",
      "type": "function"
    },
    {
      "inputs": [
        {
          "internalType": "address",
          "name": "_feeReceiver",
          "type": "address"
        },
        {
          "internalType": "uint256",
          "name": "_feeCoin",
          "type": "uint256"
        }
      ],
      "name": "reset",
      "outputs": [],
      "stateMutability": "nonpayable",
      "type": "function"
    },
    {
      "inputs": [
        {
          "internalType": "uint256",
          "name": "amountCoin",
          "type": "uint256"
        },
        {
          "internalType": "uint256",
          "name": "resultMinimum",
          "type": "uint256"
        },
        {
          "internalType": "uint256",
          "name": "fee",
          "type": "uint256"
        },
        {
          "internalType": "uint256",
          "name": "nonce",
          "type": "uint256"
        },
        {
          "internalType": "bytes",
          "name": "signature",
          "type": "bytes"
        }
      ],
      "name": "verifyBuyToken",
      "outputs": [
        {
          "internalType": "address",
          "name": "",
          "type": "address"
        }
      ],
      "stateMutability": "view",
      "type": "function"
    },
    {
      "inputs": [
        {
          "internalType": "uint256",
          "name": "nftId",
          "type": "uint256"
        },
        {
          "internalType": "uint256",
          "name": "amountCoin",
          "type": "uint256"
        },
        {
          "internalType": "uint256",
          "name": "fee",
          "type": "uint256"
        },
        {
          "internalType": "uint256",
          "name": "nonce",
          "type": "uint256"
        },
        {
          "internalType": "bytes",
          "name": "signature",
          "type": "bytes"
        }
      ],
      "name": "verifyPayLoan",
      "outputs": [
        {
          "internalType": "address",
          "name": "",
          "type": "address"
        }
      ],
      "stateMutability": "view",
      "type": "function"
    },
    {
      "inputs": [
        {
          "internalType": "uint256",
          "name": "amountToken",
          "type": "uint256"
        },
        {
          "internalType": "uint256",
          "name": "resultMinimum",
          "type": "uint256"
        },
        {
          "internalType": "uint256",
          "name": "fee",
          "type": "uint256"
        },
        {
          "internalType": "uint256",
          "name": "nonce",
          "type": "uint256"
        },
        {
          "internalType": "bytes",
          "name": "signature",
          "type": "bytes"
        }
      ],
      "name": "verifySellToken",
      "outputs": [
        {
          "internalType": "address",
          "name": "",
          "type": "address"
        }
      ],
      "stateMutability": "view",
      "type": "function"
    },
    {
      "inputs": [
        {
          "internalType": "uint256",
          "name": "amountToken",
          "type": "uint256"
        },
        {
          "internalType": "uint256",
          "name": "fee",
          "type": "uint256"
        },
        {
          "internalType": "uint256",
          "name": "nonce",
          "type": "uint256"
        },
        {
          "internalType": "bytes",
          "name": "signature",
          "type": "bytes"
        }
      ],
      "name": "verifyTakeLoan",
      "outputs": [
        {
          "internalType": "address",
          "name": "",
          "type": "address"
        }
      ],
      "stateMutability": "view",
      "type": "function"
    }
  ],
  "bytecode": "0x6101606040523480156200001257600080fd5b5060405162003d9138038062003d91833981810160405281019062000038919062000458565b8282620000506000836200013460201b90919060201c565b61012081815250506200006e6001826200013460201b90919060201c565b6101408181525050818051906020012060e08181525050808051906020012061010081815250504660a08181525050620000ad6200018c60201b60201c565b608081815250503073ffffffffffffffffffffffffffffffffffffffff1660c08173ffffffffffffffffffffffffffffffffffffffff1681525050505080600260006101000a81548173ffffffffffffffffffffffffffffffffffffffff021916908373ffffffffffffffffffffffffffffffffffffffff160217905550505050620009d6565b60006020835110156200015a576200015283620001e960201b60201c565b905062000186565b826200016c836200025660201b60201c565b60000190816200017d91906200073d565b5060ff60001b90505b92915050565b60007f8b73c3c69bb8fe3d512ecc4cf759cc79239f7b179b0ffacaa9a75d522b39400f60e051610100514630604051602001620001ce95949392919062000861565b60405160208183030381529060405280519060200120905090565b600080829050601f815111156200023957826040517f305a27a900000000000000000000000000000000000000000000000000000000815260040162000230919062000910565b60405180910390fd5b805181620002479062000966565b60001c1760001b915050919050565b6000819050919050565b6000604051905090565b600080fd5b600080fd5b600080fd5b600080fd5b6000601f19601f8301169050919050565b7f4e487b7100000000000000000000000000000000000000000000000000000000600052604160045260246000fd5b620002c9826200027e565b810181811067ffffffffffffffff82111715620002eb57620002ea6200028f565b5b80604052505050565b60006200030062000260565b90506200030e8282620002be565b919050565b600067ffffffffffffffff8211156200033157620003306200028f565b5b6200033c826200027e565b9050602081019050919050565b60005b83811015620003695780820151818401526020810190506200034c565b60008484015250505050565b60006200038c620003868462000313565b620002f4565b905082815260208101848484011115620003ab57620003aa62000279565b5b620003b884828562000349565b509392505050565b600082601f830112620003d857620003d762000274565b5b8151620003ea84826020860162000375565b91505092915050565b600073ffffffffffffffffffffffffffffffffffffffff82169050919050565b60006200042082620003f3565b9050919050565b620004328162000413565b81146200043e57600080fd5b50565b600081519050620004528162000427565b92915050565b6000806000606084860312156200047457620004736200026a565b5b600084015167ffffffffffffffff8111156200049557620004946200026f565b5b620004a386828701620003c0565b935050602084015167ffffffffffffffff811115620004c757620004c66200026f565b5b620004d586828701620003c0565b9250506040620004e88682870162000441565b9150509250925092565b600081519050919050565b7f4e487b7100000000000000000000000000000000000000000000000000000000600052602260045260246000fd5b600060028204905060018216806200054557607f821691505b6020821081036200055b576200055a620004fd565b5b50919050565b60008190508160005260206000209050919050565b60006020601f8301049050919050565b600082821b905092915050565b600060088302620005c57fffffffffffffffffffffffffffffffffffffffffffffffffffffffffffffffff8262000586565b620005d1868362000586565b95508019841693508086168417925050509392505050565b6000819050919050565b6000819050919050565b60006200061e620006186200061284620005e9565b620005f3565b620005e9565b9050919050565b6000819050919050565b6200063a83620005fd565b62000652620006498262000625565b84845462000593565b825550505050565b600090565b620006696200065a565b620006768184846200062f565b505050565b5b818110156200069e57620006926000826200065f565b6001810190506200067c565b5050565b601f821115620006ed57620006b78162000561565b620006c28462000576565b81016020851015620006d2578190505b620006ea620006e18562000576565b8301826200067b565b50505b505050565b600082821c905092915050565b60006200071260001984600802620006f2565b1980831691505092915050565b60006200072d8383620006ff565b9150826002028217905092915050565b6200074882620004f2565b67ffffffffffffffff8111156200076457620007636200028f565b5b6200077082546200052c565b6200077d828285620006a2565b600060209050601f831160018114620007b55760008415620007a0578287015190505b620007ac85826200071f565b8655506200081c565b601f198416620007c58662000561565b60005b82811015620007ef57848901518255600182019150602085019450602081019050620007c8565b868310156200080f57848901516200080b601f891682620006ff565b8355505b6001600288020188555050505b505050505050565b6000819050919050565b620008398162000824565b82525050565b6200084a81620005e9565b82525050565b6200085b8162000413565b82525050565b600060a0820190506200087860008301886200082e565b6200088760208301876200082e565b6200089660408301866200082e565b620008a560608301856200083f565b620008b4608083018462000850565b9695505050505050565b600082825260208201905092915050565b6000620008dc82620004f2565b620008e88185620008be565b9350620008fa81856020860162000349565b62000905816200027e565b840191505092915050565b600060208201905081810360008301526200092c8184620008cf565b905092915050565b600081519050919050565b6000819050602082019050919050565b60006200095d825162000824565b80915050919050565b6000620009738262000934565b826200097f846200093f565b90506200098c816200094f565b92506020821015620009cf57620009ca7fffffffffffffffffffffffffffffffffffffffffffffffffffffffffffffffff8360200360080262000586565b831692505b5050919050565b60805160a05160c05160e05161010051610120516101405161336062000a316000396000612084015260006120490152600061246401526000612443015260006120ba015260006121100152600061213901526133606000f3fe608060405234801561001057600080fd5b50600436106100f55760003560e01c806384b0196e11610097578063ba32950711610066578063ba329507146102d8578063d28e5ce014610308578063d92e82e414610326578063f0a9ed0e14610344576100f5565b806384b0196e1461023857806399c1ce2e1461025c5780639b2528521461028c578063abe83309146102a8576100f5565b806338ac4ee1116100d357806338ac4ee1146101785780634269117b146101a857806345aabe4f146101d85780636834e3a814610208576100f5565b80630fb3bc60146100fa57806322ccd57f1461012a5780633408e4701461015a575b600080fd5b610114600480360381019061010f91906127fc565b610362565b60405161012191906128d4565b60405180910390f35b610144600480360381019061013f91906127fc565b6103da565b60405161015191906128d4565b60405180910390f35b610162610452565b60405161016f91906128fe565b60405180910390f35b610192600480360381019061018d9190612945565b61045a565b60405161019f91906128fe565b60405180910390f35b6101c260048036038101906101bd91906129ee565b6109d6565b6040516101cf91906128fe565b60405180910390f35b6101f260048036038101906101ed9190612945565b610f4e565b6040516101ff91906128fe565b60405180910390f35b610222600480360381019061021d9190612a85565b6114ca565b60405161022f91906128fe565b60405180910390f35b610240611513565b6040516102539796959493929190612c43565b60405180910390f35b61027660048036038101906102719190612945565b6115bd565b60405161028391906128fe565b60405180910390f35b6102a660048036038101906102a19190612cc7565b611b39565b005b6102c260048036038101906102bd91906127fc565b611c83565b6040516102cf91906128d4565b60405180910390f35b6102f260048036038101906102ed9190612d07565b611cfb565b6040516102ff91906128d4565b60405180910390f35b610310611d6f565b60405161031d91906128fe565b60405180910390f35b61032e611d75565b60405161033b9190612de9565b60405180910390f35b61034c611d9b565b60405161035991906128d4565b60405180910390f35b6000806103bc7f8e8abb4d4892f87f112a8fd3039d3c1b872286e51a33a143e4b95ef26258ca42888888886040516020016103a1959493929190612e04565b60405160208183030381529060405280519060200120611dc1565b905060006103ca8285611ddb565b9050809250505095945050505050565b6000806104347fa3c8e633470dc7a82eceb5adf8915edb336fbecf5dab4ee2b61328f17c60d1f888888888604051602001610419959493929190612e04565b60405160208183030381529060405280519060200120611dc1565b905060006104428285611ddb565b9050809250505095945050505050565b600046905090565b6000600260009054906101000a900473ffffffffffffffffffffffffffffffffffffffff1673ffffffffffffffffffffffffffffffffffffffff16638da5cb5b6040518163ffffffff1660e01b8152600401602060405180830381865afa1580156104c9573d6000803e3d6000fd5b505050506040513d601f19601f820116820180604052508101906104ed9190612e6c565b73ffffffffffffffffffffffffffffffffffffffff163373ffffffffffffffffffffffffffffffffffffffff161461055a576040517f08c379a000000000000000000000000000000000000000000000000000000000815260040161055190612ee5565b60405180910390fd5b6000600560008473ffffffffffffffffffffffffffffffffffffffff1673ffffffffffffffffffffffffffffffffffffffff1681526020019081526020016000205490508085116105e0576040517f08c379a00000000000000000000000000000000000000000000000000000000081526004016105d790612f51565b60405180910390fd5b8560045414610624576040517f08c379a000000000000000000000000000000000000000000000000000000000815260040161061b90612fbd565b60405180910390fd5b60006106338989898989611c83565b9050600073ffffffffffffffffffffffffffffffffffffffff168473ffffffffffffffffffffffffffffffffffffffff161415801561069d57508073ffffffffffffffffffffffffffffffffffffffff168473ffffffffffffffffffffffffffffffffffffffff16145b6106dc576040517f08c379a00000000000000000000000000000000000000000000000000000000081526004016106d390613029565b60405180910390fd5b85600560008673ffffffffffffffffffffffffffffffffffffffff1673ffffffffffffffffffffffffffffffffffffffff1681526020019081526020016000208190555061072984611e07565b600260009054906101000a900473ffffffffffffffffffffffffffffffffffffffff1673ffffffffffffffffffffffffffffffffffffffff1663b9cfe2a86040518163ffffffff1660e01b8152600401602060405180830381865afa158015610796573d6000803e3d6000fd5b505050506040513d601f19601f820116820180604052508101906107ba9190612e6c565b73ffffffffffffffffffffffffffffffffffffffff16634c5d8e4385600260009054906101000a900473ffffffffffffffffffffffffffffffffffffffff1673ffffffffffffffffffffffffffffffffffffffff1663eecccaab6040518163ffffffff1660e01b8152600401602060405180830381865afa158015610843573d6000803e3d6000fd5b505050506040513d601f19601f820116820180604052508101906108679190612e6c565b8c6040518463ffffffff1660e01b815260040161088693929190613049565b600060405180830381600087803b1580156108a057600080fd5b505af11580156108b4573d6000803e3d6000fd5b50505050600260009054906101000a900473ffffffffffffffffffffffffffffffffffffffff1673ffffffffffffffffffffffffffffffffffffffff1663eecccaab6040518163ffffffff1660e01b8152600401602060405180830381865afa158015610925573d6000803e3d6000fd5b505050506040513d601f19601f820116820180604052508101906109499190612e6c565b73ffffffffffffffffffffffffffffffffffffffff166302fa7acb858b8b6040518463ffffffff1660e01b815260040161098593929190613080565b6020604051808303816000875af11580156109a4573d6000803e3d6000fd5b505050506040513d601f19601f820116820180604052508101906109c891906130cc565b925050509695505050505050565b6000600260009054906101000a900473ffffffffffffffffffffffffffffffffffffffff1673ffffffffffffffffffffffffffffffffffffffff16638da5cb5b6040518163ffffffff1660e01b8152600401602060405180830381865afa158015610a45573d6000803e3d6000fd5b505050506040513d601f19601f82011682018060405250810190610a699190612e6c565b73ffffffffffffffffffffffffffffffffffffffff163373ffffffffffffffffffffffffffffffffffffffff1614610ad6576040517f08c379a0000000000000000000000000000000000000000000000000000000008152600401610acd90612ee5565b60405180910390fd5b6000600560008473ffffffffffffffffffffffffffffffffffffffff1673ffffffffffffffffffffffffffffffffffffffff168152602001908152602001600020549050808511610b5c576040517f08c379a0000000000000000000000000000000000000000000000000000000008152600401610b5390612f51565b60405180910390fd5b8560045414610ba0576040517f08c379a0000000000000000000000000000000000000000000000000000000008152600401610b9790612fbd565b60405180910390fd5b6000610bae88888888611cfb565b9050600073ffffffffffffffffffffffffffffffffffffffff168473ffffffffffffffffffffffffffffffffffffffff1614158015610c1857508073ffffffffffffffffffffffffffffffffffffffff168473ffffffffffffffffffffffffffffffffffffffff16145b610c57576040517f08c379a0000000000000000000000000000000000000000000000000000000008152600401610c4e90613029565b60405180910390fd5b85600560008673ffffffffffffffffffffffffffffffffffffffff1673ffffffffffffffffffffffffffffffffffffffff16815260200190815260200160002081905550610ca484611e07565b600260009054906101000a900473ffffffffffffffffffffffffffffffffffffffff1673ffffffffffffffffffffffffffffffffffffffff1663b9cfe2a86040518163ffffffff1660e01b8152600401602060405180830381865afa158015610d11573d6000803e3d6000fd5b505050506040513d601f19601f82011682018060405250810190610d359190612e6c565b73ffffffffffffffffffffffffffffffffffffffff16634c5d8e4385600260009054906101000a900473ffffffffffffffffffffffffffffffffffffffff1673ffffffffffffffffffffffffffffffffffffffff16638bcf4b3b6040518163ffffffff1660e01b8152600401602060405180830381865afa158015610dbe573d6000803e3d6000fd5b505050506040513d601f19601f82011682018060405250810190610de29190612e6c565b8b6040518463ffffffff1660e01b8152600401610e0193929190613049565b600060405180830381600087803b158015610e1b57600080fd5b505af1158015610e2f573d6000803e3d6000fd5b50505050600260009054906101000a900473ffffffffffffffffffffffffffffffffffffffff1673ffffffffffffffffffffffffffffffffffffffff16638bcf4b3b6040518163ffffffff1660e01b8152600401602060405180830381865afa158015610ea0573d6000803e3d6000fd5b505050506040513d601f19601f82011682018060405250810190610ec49190612e6c565b73ffffffffffffffffffffffffffffffffffffffff166385ca1c43858a6040518363ffffffff1660e01b8152600401610efe9291906130f9565b6020604051808303816000875af1158015610f1d573d6000803e3d6000fd5b505050506040513d601f19601f82011682018060405250810190610f4191906130cc565b9250505095945050505050565b6000600260009054906101000a900473ffffffffffffffffffffffffffffffffffffffff1673ffffffffffffffffffffffffffffffffffffffff16638da5cb5b6040518163ffffffff1660e01b8152600401602060405180830381865afa158015610fbd573d6000803e3d6000fd5b505050506040513d601f19601f82011682018060405250810190610fe19190612e6c565b73ffffffffffffffffffffffffffffffffffffffff163373ffffffffffffffffffffffffffffffffffffffff161461104e576040517f08c379a000000000000000000000000000000000000000000000000000000000815260040161104590612ee5565b60405180910390fd5b6000600560008473ffffffffffffffffffffffffffffffffffffffff1673ffffffffffffffffffffffffffffffffffffffff1681526020019081526020016000205490508085116110d4576040517f08c379a00000000000000000000000000000000000000000000000000000000081526004016110cb90612f51565b60405180910390fd5b8560045414611118576040517f08c379a000000000000000000000000000000000000000000000000000000000815260040161110f90612fbd565b60405180910390fd5b60006111278989898989610362565b9050600073ffffffffffffffffffffffffffffffffffffffff168473ffffffffffffffffffffffffffffffffffffffff161415801561119157508073ffffffffffffffffffffffffffffffffffffffff168473ffffffffffffffffffffffffffffffffffffffff16145b6111d0576040517f08c379a00000000000000000000000000000000000000000000000000000000081526004016111c790613029565b60405180910390fd5b85600560008673ffffffffffffffffffffffffffffffffffffffff1673ffffffffffffffffffffffffffffffffffffffff1681526020019081526020016000208190555061121d84611e07565b600260009054906101000a900473ffffffffffffffffffffffffffffffffffffffff1673ffffffffffffffffffffffffffffffffffffffff1663165310c56040518163ffffffff1660e01b8152600401602060405180830381865afa15801561128a573d6000803e3d6000fd5b505050506040513d601f19601f820116820180604052508101906112ae9190612e6c565b73ffffffffffffffffffffffffffffffffffffffff16634c5d8e4385600260009054906101000a900473ffffffffffffffffffffffffffffffffffffffff1673ffffffffffffffffffffffffffffffffffffffff1663eecccaab6040518163ffffffff1660e01b8152600401602060405180830381865afa158015611337573d6000803e3d6000fd5b505050506040513d601f19601f8201168201806040525081019061135b9190612e6c565b8c6040518463ffffffff1660e01b815260040161137a93929190613049565b600060405180830381600087803b15801561139457600080fd5b505af11580156113a8573d6000803e3d6000fd5b50505050600260009054906101000a900473ffffffffffffffffffffffffffffffffffffffff1673ffffffffffffffffffffffffffffffffffffffff1663eecccaab6040518163ffffffff1660e01b8152600401602060405180830381865afa158015611419573d6000803e3d6000fd5b505050506040513d601f19601f8201168201806040525081019061143d9190612e6c565b73ffffffffffffffffffffffffffffffffffffffff166364c42d03858b8b6040518463ffffffff1660e01b815260040161147993929190613080565b6020604051808303816000875af1158015611498573d6000803e3d6000fd5b505050506040513d601f19601f820116820180604052508101906114bc91906130cc565b925050509695505050505050565b6000600560008373ffffffffffffffffffffffffffffffffffffffff1673ffffffffffffffffffffffffffffffffffffffff168152602001908152602001600020549050919050565b600060608060008060006060611527612040565b61152f61207b565b46306000801b600067ffffffffffffffff8111156115505761154f6126d1565b5b60405190808252806020026020018201604052801561157e5781602001602082028036833780820191505090505b507f0f00000000000000000000000000000000000000000000000000000000000000959493929190965096509650965096509650965090919293949596565b6000600260009054906101000a900473ffffffffffffffffffffffffffffffffffffffff1673ffffffffffffffffffffffffffffffffffffffff16638da5cb5b6040518163ffffffff1660e01b8152600401602060405180830381865afa15801561162c573d6000803e3d6000fd5b505050506040513d601f19601f820116820180604052508101906116509190612e6c565b73ffffffffffffffffffffffffffffffffffffffff163373ffffffffffffffffffffffffffffffffffffffff16146116bd576040517f08c379a00000000000000000000000000000000000000000000000000000000081526004016116b490612ee5565b60405180910390fd5b6000600560008473ffffffffffffffffffffffffffffffffffffffff1673ffffffffffffffffffffffffffffffffffffffff168152602001908152602001600020549050808511611743576040517f08c379a000000000000000000000000000000000000000000000000000000000815260040161173a90612f51565b60405180910390fd5b8560045414611787576040517f08c379a000000000000000000000000000000000000000000000000000000000815260040161177e90612fbd565b60405180910390fd5b600061179689898989896103da565b9050600073ffffffffffffffffffffffffffffffffffffffff168473ffffffffffffffffffffffffffffffffffffffff161415801561180057508073ffffffffffffffffffffffffffffffffffffffff168473ffffffffffffffffffffffffffffffffffffffff16145b61183f576040517f08c379a000000000000000000000000000000000000000000000000000000000815260040161183690613029565b60405180910390fd5b85600560008673ffffffffffffffffffffffffffffffffffffffff1673ffffffffffffffffffffffffffffffffffffffff1681526020019081526020016000208190555061188c84611e07565b600260009054906101000a900473ffffffffffffffffffffffffffffffffffffffff1673ffffffffffffffffffffffffffffffffffffffff1663165310c56040518163ffffffff1660e01b8152600401602060405180830381865afa1580156118f9573d6000803e3d6000fd5b505050506040513d601f19601f8201168201806040525081019061191d9190612e6c565b73ffffffffffffffffffffffffffffffffffffffff16634c5d8e4385600260009054906101000a900473ffffffffffffffffffffffffffffffffffffffff1673ffffffffffffffffffffffffffffffffffffffff16638bcf4b3b6040518163ffffffff1660e01b8152600401602060405180830381865afa1580156119a6573d6000803e3d6000fd5b505050506040513d601f19601f820116820180604052508101906119ca9190612e6c565b8b6040518463ffffffff1660e01b81526004016119e993929190613049565b600060405180830381600087803b158015611a0357600080fd5b505af1158015611a17573d6000803e3d6000fd5b50505050600260009054906101000a900473ffffffffffffffffffffffffffffffffffffffff1673ffffffffffffffffffffffffffffffffffffffff16638bcf4b3b6040518163ffffffff1660e01b8152600401602060405180830381865afa158015611a88573d6000803e3d6000fd5b505050506040513d601f19601f82011682018060405250810190611aac9190612e6c565b73ffffffffffffffffffffffffffffffffffffffff16638eba1ea7858b8b6040518463ffffffff1660e01b8152600401611ae893929190613080565b6020604051808303816000875af1158015611b07573d6000803e3d6000fd5b505050506040513d601f19601f82011682018060405250810190611b2b91906130cc565b925050509695505050505050565b600260009054906101000a900473ffffffffffffffffffffffffffffffffffffffff1673ffffffffffffffffffffffffffffffffffffffff16638da5cb5b6040518163ffffffff1660e01b8152600401602060405180830381865afa158015611ba6573d6000803e3d6000fd5b505050506040513d601f19601f82011682018060405250810190611bca9190612e6c565b73ffffffffffffffffffffffffffffffffffffffff163373ffffffffffffffffffffffffffffffffffffffff1614611c37576040517f08c379a0000000000000000000000000000000000000000000000000000000008152600401611c2e90612ee5565b60405180910390fd5b81600360006101000a81548173ffffffffffffffffffffffffffffffffffffffff021916908373ffffffffffffffffffffffffffffffffffffffff160217905550806004819055505050565b600080611cdd7f2a34be1e6b181b28dcea6027517c04f0a3fd85774167d9452d698ff3f153575188888888604051602001611cc2959493929190612e04565b60405160208183030381529060405280519060200120611dc1565b90506000611ceb8285611ddb565b9050809250505095945050505050565b600080611d527e379a9f0b57a00ae1a69397d57b4339d3e816af5fb3eceefbc4997784ce1f37878787604051602001611d379493929190613122565b60405160208183030381529060405280519060200120611dc1565b90506000611d608285611ddb565b90508092505050949350505050565b60045481565b600260009054906101000a900473ffffffffffffffffffffffffffffffffffffffff1681565b600360009054906101000a900473ffffffffffffffffffffffffffffffffffffffff1681565b6000611dd4611dce6120b6565b8361216d565b9050919050565b600080600080611deb86866121ae565b925092509250611dfb828261220a565b82935050505092915050565b600260009054906101000a900473ffffffffffffffffffffffffffffffffffffffff1673ffffffffffffffffffffffffffffffffffffffff1663165310c56040518163ffffffff1660e01b8152600401602060405180830381865afa158015611e74573d6000803e3d6000fd5b505050506040513d601f19601f82011682018060405250810190611e989190612e6c565b73ffffffffffffffffffffffffffffffffffffffff16634c5d8e4382306004546040518463ffffffff1660e01b8152600401611ed693929190613049565b600060405180830381600087803b158015611ef057600080fd5b505af1158015611f04573d6000803e3d6000fd5b50505050600260009054906101000a900473ffffffffffffffffffffffffffffffffffffffff1673ffffffffffffffffffffffffffffffffffffffff1663165310c56040518163ffffffff1660e01b8152600401602060405180830381865afa158015611f75573d6000803e3d6000fd5b505050506040513d601f19601f82011682018060405250810190611f999190612e6c565b73ffffffffffffffffffffffffffffffffffffffff166323b872dd82600360009054906101000a900473ffffffffffffffffffffffffffffffffffffffff166004546040518463ffffffff1660e01b8152600401611ff993929190613049565b6020604051808303816000875af1158015612018573d6000803e3d6000fd5b505050506040513d601f19601f8201168201806040525081019061203c919061319f565b5050565b606061207660007f000000000000000000000000000000000000000000000000000000000000000061236e90919063ffffffff16565b905090565b60606120b160017f000000000000000000000000000000000000000000000000000000000000000061236e90919063ffffffff16565b905090565b60007f000000000000000000000000000000000000000000000000000000000000000073ffffffffffffffffffffffffffffffffffffffff163073ffffffffffffffffffffffffffffffffffffffff1614801561213257507f000000000000000000000000000000000000000000000000000000000000000046145b1561215f577f0000000000000000000000000000000000000000000000000000000000000000905061216a565b61216761241e565b90505b90565b60006040517f190100000000000000000000000000000000000000000000000000000000000081528360028201528260228201526042812091505092915050565b600080600060418451036121f35760008060006020870151925060408701519150606087015160001a90506121e5888285856124b4565b955095509550505050612203565b60006002855160001b9250925092505b9250925092565b6000600381111561221e5761221d6131cc565b5b826003811115612231576122306131cc565b5b031561236a576001600381111561224b5761224a6131cc565b5b82600381111561225e5761225d6131cc565b5b03612295576040517ff645eedf00000000000000000000000000000000000000000000000000000000815260040160405180910390fd5b600260038111156122a9576122a86131cc565b5b8260038111156122bc576122bb6131cc565b5b03612301578060001c6040517ffce698f70000000000000000000000000000000000000000000000000000000081526004016122f891906128fe565b60405180910390fd5b600380811115612314576123136131cc565b5b826003811115612327576123266131cc565b5b0361236957806040517fd78bce0c00000000000000000000000000000000000000000000000000000000815260040161236091906131fb565b60405180910390fd5b5b5050565b606060ff60001b831461238b57612384836125a8565b9050612418565b81805461239790613245565b80601f01602080910402602001604051908101604052809291908181526020018280546123c390613245565b80156124105780601f106123e557610100808354040283529160200191612410565b820191906000526020600020905b8154815290600101906020018083116123f357829003601f168201915b505050505090505b92915050565b60007f8b73c3c69bb8fe3d512ecc4cf759cc79239f7b179b0ffacaa9a75d522b39400f7f00000000000000000000000000000000000000000000000000000000000000007f00000000000000000000000000000000000000000000000000000000000000004630604051602001612499959493929190613276565b60405160208183030381529060405280519060200120905090565b60008060007f7fffffffffffffffffffffffffffffff5d576e7357a4501ddfe92f46681b20a08460001c11156124f457600060038592509250925061259e565b60006001888888886040516000815260200160405260405161251994939291906132e5565b6020604051602081039080840390855afa15801561253b573d6000803e3d6000fd5b505050602060405103519050600073ffffffffffffffffffffffffffffffffffffffff168173ffffffffffffffffffffffffffffffffffffffff160361258f57600060016000801b9350935093505061259e565b8060008060001b935093509350505b9450945094915050565b606060006125b58361261c565b90506000602067ffffffffffffffff8111156125d4576125d36126d1565b5b6040519080825280601f01601f1916602001820160405280156126065781602001600182028036833780820191505090505b5090508181528360208201528092505050919050565b60008060ff8360001c169050601f811115612663576040517fb3512b0c00000000000000000000000000000000000000000000000000000000815260040160405180910390fd5b80915050919050565b6000604051905090565b600080fd5b600080fd5b6000819050919050565b61269381612680565b811461269e57600080fd5b50565b6000813590506126b08161268a565b92915050565b600080fd5b600080fd5b6000601f19601f8301169050919050565b7f4e487b7100000000000000000000000000000000000000000000000000000000600052604160045260246000fd5b612709826126c0565b810181811067ffffffffffffffff82111715612728576127276126d1565b5b80604052505050565b600061273b61266c565b90506127478282612700565b919050565b600067ffffffffffffffff821115612767576127666126d1565b5b612770826126c0565b9050602081019050919050565b82818337600083830152505050565b600061279f61279a8461274c565b612731565b9050828152602081018484840111156127bb576127ba6126bb565b5b6127c684828561277d565b509392505050565b600082601f8301126127e3576127e26126b6565b5b81356127f384826020860161278c565b91505092915050565b600080600080600060a0868803121561281857612817612676565b5b6000612826888289016126a1565b9550506020612837888289016126a1565b9450506040612848888289016126a1565b9350506060612859888289016126a1565b925050608086013567ffffffffffffffff81111561287a5761287961267b565b5b612886888289016127ce565b9150509295509295909350565b600073ffffffffffffffffffffffffffffffffffffffff82169050919050565b60006128be82612893565b9050919050565b6128ce816128b3565b82525050565b60006020820190506128e960008301846128c5565b92915050565b6128f881612680565b82525050565b600060208201905061291360008301846128ef565b92915050565b612922816128b3565b811461292d57600080fd5b50565b60008135905061293f81612919565b92915050565b60008060008060008060c0878903121561296257612961612676565b5b600061297089828a016126a1565b965050602061298189828a016126a1565b955050604061299289828a016126a1565b94505060606129a389828a016126a1565b935050608087013567ffffffffffffffff8111156129c4576129c361267b565b5b6129d089828a016127ce565b92505060a06129e189828a01612930565b9150509295509295509295565b600080600080600060a08688031215612a0a57612a09612676565b5b6000612a18888289016126a1565b9550506020612a29888289016126a1565b9450506040612a3a888289016126a1565b935050606086013567ffffffffffffffff811115612a5b57612a5a61267b565b5b612a67888289016127ce565b9250506080612a7888828901612930565b9150509295509295909350565b600060208284031215612a9b57612a9a612676565b5b6000612aa984828501612930565b91505092915050565b60007fff0000000000000000000000000000000000000000000000000000000000000082169050919050565b612ae781612ab2565b82525050565b600081519050919050565b600082825260208201905092915050565b60005b83811015612b27578082015181840152602081019050612b0c565b60008484015250505050565b6000612b3e82612aed565b612b488185612af8565b9350612b58818560208601612b09565b612b61816126c0565b840191505092915050565b6000819050919050565b612b7f81612b6c565b82525050565b600081519050919050565b600082825260208201905092915050565b6000819050602082019050919050565b612bba81612680565b82525050565b6000612bcc8383612bb1565b60208301905092915050565b6000602082019050919050565b6000612bf082612b85565b612bfa8185612b90565b9350612c0583612ba1565b8060005b83811015612c36578151612c1d8882612bc0565b9750612c2883612bd8565b925050600181019050612c09565b5085935050505092915050565b600060e082019050612c58600083018a612ade565b8181036020830152612c6a8189612b33565b90508181036040830152612c7e8188612b33565b9050612c8d60608301876128ef565b612c9a60808301866128c5565b612ca760a0830185612b76565b81810360c0830152612cb98184612be5565b905098975050505050505050565b60008060408385031215612cde57612cdd612676565b5b6000612cec85828601612930565b9250506020612cfd858286016126a1565b9150509250929050565b60008060008060808587031215612d2157612d20612676565b5b6000612d2f878288016126a1565b9450506020612d40878288016126a1565b9350506040612d51878288016126a1565b925050606085013567ffffffffffffffff811115612d7257612d7161267b565b5b612d7e878288016127ce565b91505092959194509250565b6000819050919050565b6000612daf612daa612da584612893565b612d8a565b612893565b9050919050565b6000612dc182612d94565b9050919050565b6000612dd382612db6565b9050919050565b612de381612dc8565b82525050565b6000602082019050612dfe6000830184612dda565b92915050565b600060a082019050612e196000830188612b76565b612e2660208301876128ef565b612e3360408301866128ef565b612e4060608301856128ef565b612e4d60808301846128ef565b9695505050505050565b600081519050612e6681612919565b92915050565b600060208284031215612e8257612e81612676565b5b6000612e9084828501612e57565b91505092915050565b7f6163636573732064656e69656400000000000000000000000000000000000000600082015250565b6000612ecf600d83612af8565b9150612eda82612e99565b602082019050919050565b60006020820190508181036000830152612efe81612ec2565b9050919050565b7f696e76616c6964206e6f6e636500000000000000000000000000000000000000600082015250565b6000612f3b600d83612af8565b9150612f4682612f05565b602082019050919050565b60006020820190508181036000830152612f6a81612f2e565b9050919050565b7f696e76616c696420666565000000000000000000000000000000000000000000600082015250565b6000612fa7600b83612af8565b9150612fb282612f71565b602082019050919050565b60006020820190508181036000830152612fd681612f9a565b9050919050565b7f696e76616c6964207369676e6572000000000000000000000000000000000000600082015250565b6000613013600e83612af8565b915061301e82612fdd565b602082019050919050565b6000602082019050818103600083015261304281613006565b9050919050565b600060608201905061305e60008301866128c5565b61306b60208301856128c5565b61307860408301846128ef565b949350505050565b600060608201905061309560008301866128c5565b6130a260208301856128ef565b6130af60408301846128ef565b949350505050565b6000815190506130c68161268a565b92915050565b6000602082840312156130e2576130e1612676565b5b60006130f0848285016130b7565b91505092915050565b600060408201905061310e60008301856128c5565b61311b60208301846128ef565b9392505050565b60006080820190506131376000830187612b76565b61314460208301866128ef565b61315160408301856128ef565b61315e60608301846128ef565b95945050505050565b60008115159050919050565b61317c81613167565b811461318757600080fd5b50565b60008151905061319981613173565b92915050565b6000602082840312156131b5576131b4612676565b5b60006131c38482850161318a565b91505092915050565b7f4e487b7100000000000000000000000000000000000000000000000000000000600052602160045260246000fd5b60006020820190506132106000830184612b76565b92915050565b7f4e487b7100000000000000000000000000000000000000000000000000000000600052602260045260246000fd5b6000600282049050600182168061325d57607f821691505b6020821081036132705761326f613216565b5b50919050565b600060a08201905061328b6000830188612b76565b6132986020830187612b76565b6132a56040830186612b76565b6132b260608301856128ef565b6132bf60808301846128c5565b9695505050505050565b600060ff82169050919050565b6132df816132c9565b82525050565b60006080820190506132fa6000830187612b76565b61330760208301866132d6565b6133146040830185612b76565b6133216060830184612b76565b9594505050505056fea264697066735822122054e9bf91079ef777638d9b4d171fe3f5f4be9abe3d0d55bb74c1c3c29f2f197564736f6c63430008140033",
  "linkReferences": {},
  "deployedLinkReferences": {}
}