{
  "_format": "hh-sol-artifact-1",
  "contractName": "Token",
  "sourceName": "contracts/Token.sol",
  "abi": [
    {
      "inputs": [
        {
          "internalType": "string",
          "name": "_name",
          "type": "string"
        },
        {
          "internalType": "string",
          "name": "_symbol",
          "type": "string"
        },
        {
          "internalType": "address",
          "name": "_config",
          "type": "address"
        },
        {
          "internalType": "address",
          "name": "_dao",
          "type": "address"
        },
        {
          "internalType": "uint256",
          "name": "_amount",
          "type": "uint256"
        }
      ],
      "stateMutability": "nonpayable",
      "type": "constructor"
    },
    {
      "inputs": [
        {
          "internalType": "address",
          "name": "spender",
          "type": "address"
        },
        {
          "internalType": "uint256",
          "name": "allowance",
          "type": "uint256"
        },
        {
          "internalType": "uint256",
          "name": "needed",
          "type": "uint256"
        }
      ],
      "name": "ERC20InsufficientAllowance",
      "type": "error"
    },
    {
      "inputs": [
        {
          "internalType": "address",
          "name": "sender",
          "type": "address"
        },
        {
          "internalType": "uint256",
          "name": "balance",
          "type": "uint256"
        },
        {
          "internalType": "uint256",
          "name": "needed",
          "type": "uint256"
        }
      ],
      "name": "ERC20InsufficientBalance",
      "type": "error"
    },
    {
      "inputs": [
        {
          "internalType": "address",
          "name": "approver",
          "type": "address"
        }
      ],
      "name": "ERC20InvalidApprover",
      "type": "error"
    },
    {
      "inputs": [
        {
          "internalType": "address",
          "name": "receiver",
          "type": "address"
        }
      ],
      "name": "ERC20InvalidReceiver",
      "type": "error"
    },
    {
      "inputs": [
        {
          "internalType": "address",
          "name": "sender",
          "type": "address"
        }
      ],
      "name": "ERC20InvalidSender",
      "type": "error"
    },
    {
      "inputs": [
        {
          "internalType": "address",
          "name": "spender",
          "type": "address"
        }
      ],
      "name": "ERC20InvalidSpender",
      "type": "error"
    },
    {
      "anonymous": false,
      "inputs": [
        {
          "indexed": true,
          "internalType": "address",
          "name": "owner",
          "type": "address"
        },
        {
          "indexed": true,
          "internalType": "address",
          "name": "spender",
          "type": "address"
        },
        {
          "indexed": false,
          "internalType": "uint256",
          "name": "value",
          "type": "uint256"
        }
      ],
      "name": "Approval",
      "type": "event"
    },
    {
      "anonymous": false,
      "inputs": [
        {
          "indexed": true,
          "internalType": "address",
          "name": "from",
          "type": "address"
        },
        {
          "indexed": true,
          "internalType": "address",
          "name": "to",
          "type": "address"
        },
        {
          "indexed": false,
          "internalType": "uint256",
          "name": "value",
          "type": "uint256"
        }
      ],
      "name": "Transfer",
      "type": "event"
    },
    {
      "inputs": [],
      "name": "CONFIG",
      "outputs": [
        {
          "internalType": "contract Config",
          "name": "",
          "type": "address"
        }
      ],
      "stateMutability": "view",
      "type": "function"
    },
    {
      "inputs": [
        {
          "internalType": "address",
          "name": "owner",
          "type": "address"
        },
        {
          "internalType": "address",
          "name": "spender",
          "type": "address"
        }
      ],
      "name": "allowance",
      "outputs": [
        {
          "internalType": "uint256",
          "name": "",
          "type": "uint256"
        }
      ],
      "stateMutability": "view",
      "type": "function"
    },
    {
      "inputs": [
        {
          "internalType": "address",
          "name": "spender",
          "type": "address"
        },
        {
          "internalType": "uint256",
          "name": "value",
          "type": "uint256"
        }
      ],
      "name": "approve",
      "outputs": [
        {
          "internalType": "bool",
          "name": "",
          "type": "bool"
        }
      ],
      "stateMutability": "nonpayable",
      "type": "function"
    },
    {
      "inputs": [
        {
          "internalType": "address",
          "name": "user",
          "type": "address"
        },
        {
          "internalType": "address",
          "name": "spender",
          "type": "address"
        },
        {
          "internalType": "uint256",
          "name": "amount",
          "type": "uint256"
        }
      ],
      "name": "approveByDelegator",
      "outputs": [],
      "stateMutability": "nonpayable",
      "type": "function"
    },
    {
      "inputs": [
        {
          "internalType": "address",
          "name": "account",
          "type": "address"
        }
      ],
      "name": "balanceOf",
      "outputs": [
        {
          "internalType": "uint256",
          "name": "",
          "type": "uint256"
        }
      ],
      "stateMutability": "view",
      "type": "function"
    },
    {
      "inputs": [],
      "name": "decimals",
      "outputs": [
        {
          "internalType": "uint8",
          "name": "",
          "type": "uint8"
        }
      ],
      "stateMutability": "view",
      "type": "function"
    },
    {
      "inputs": [],
      "name": "name",
      "outputs": [
        {
          "internalType": "string",
          "name": "",
          "type": "string"
        }
      ],
      "stateMutability": "view",
      "type": "function"
    },
    {
      "inputs": [],
      "name": "symbol",
      "outputs": [
        {
          "internalType": "string",
          "name": "",
          "type": "string"
        }
      ],
      "stateMutability": "view",
      "type": "function"
    },
    {
      "inputs": [],
      "name": "totalSupply",
      "outputs": [
        {
          "internalType": "uint256",
          "name": "",
          "type": "uint256"
        }
      ],
      "stateMutability": "view",
      "type": "function"
    },
    {
      "inputs": [
        {
          "internalType": "address",
          "name": "to",
          "type": "address"
        },
        {
          "internalType": "uint256",
          "name": "value",
          "type": "uint256"
        }
      ],
      "name": "transfer",
      "outputs": [
        {
          "internalType": "bool",
          "name": "",
          "type": "bool"
        }
      ],
      "stateMutability": "nonpayable",
      "type": "function"
    },
    {
      "inputs": [
        {
          "internalType": "address",
          "name": "from",
          "type": "address"
        },
        {
          "internalType": "address",
          "name": "to",
          "type": "address"
        },
        {
          "internalType": "uint256",
          "name": "value",
          "type": "uint256"
        }
      ],
      "name": "transferFrom",
      "outputs": [
        {
          "internalType": "bool",
          "name": "",
          "type": "bool"
        }
      ],
      "stateMutability": "nonpayable",
      "type": "function"
    }
  ],
  "bytecode": "0x60806040523480156200001157600080fd5b5060405162001bb538038062001bb58339818101604052810190620000379190620005b3565b848484828281600390816200004d9190620008ba565b5080600490816200005f9190620008ba565b50505080600560006101000a81548173ffffffffffffffffffffffffffffffffffffffff021916908373ffffffffffffffffffffffffffffffffffffffff160217905550505050620000b88282620000c360201b60201c565b505050505062000aa4565b600073ffffffffffffffffffffffffffffffffffffffff168273ffffffffffffffffffffffffffffffffffffffff1603620001385760006040517fec442f050000000000000000000000000000000000000000000000000000000081526004016200012f9190620009b2565b60405180910390fd5b6200014c600083836200015060201b60201c565b5050565b600073ffffffffffffffffffffffffffffffffffffffff168373ffffffffffffffffffffffffffffffffffffffff1603620001a6578060026000828254620001999190620009fe565b925050819055506200027c565b60008060008573ffffffffffffffffffffffffffffffffffffffff1673ffffffffffffffffffffffffffffffffffffffff1681526020019081526020016000205490508181101562000235578381836040517fe450d38c0000000000000000000000000000000000000000000000000000000081526004016200022c9392919062000a4a565b60405180910390fd5b8181036000808673ffffffffffffffffffffffffffffffffffffffff1673ffffffffffffffffffffffffffffffffffffffff16815260200190815260200160002081905550505b600073ffffffffffffffffffffffffffffffffffffffff168273ffffffffffffffffffffffffffffffffffffffff1603620002c7578060026000828254039250508190555062000314565b806000808473ffffffffffffffffffffffffffffffffffffffff1673ffffffffffffffffffffffffffffffffffffffff168152602001908152602001600020600082825401925050819055505b8173ffffffffffffffffffffffffffffffffffffffff168373ffffffffffffffffffffffffffffffffffffffff167fddf252ad1be2c89b69c2b068fc378daa952ba7f163c4a11628f55a4df523b3ef8360405162000373919062000a87565b60405180910390a3505050565b6000604051905090565b600080fd5b600080fd5b600080fd5b600080fd5b6000601f19601f8301169050919050565b7f4e487b7100000000000000000000000000000000000000000000000000000000600052604160045260246000fd5b620003e9826200039e565b810181811067ffffffffffffffff821117156200040b576200040a620003af565b5b80604052505050565b60006200042062000380565b90506200042e8282620003de565b919050565b600067ffffffffffffffff821115620004515762000450620003af565b5b6200045c826200039e565b9050602081019050919050565b60005b83811015620004895780820151818401526020810190506200046c565b60008484015250505050565b6000620004ac620004a68462000433565b62000414565b905082815260208101848484011115620004cb57620004ca62000399565b5b620004d884828562000469565b509392505050565b600082601f830112620004f857620004f762000394565b5b81516200050a84826020860162000495565b91505092915050565b600073ffffffffffffffffffffffffffffffffffffffff82169050919050565b6000620005408262000513565b9050919050565b620005528162000533565b81146200055e57600080fd5b50565b600081519050620005728162000547565b92915050565b6000819050919050565b6200058d8162000578565b81146200059957600080fd5b50565b600081519050620005ad8162000582565b92915050565b600080600080600060a08688031215620005d257620005d16200038a565b5b600086015167ffffffffffffffff811115620005f357620005f26200038f565b5b6200060188828901620004e0565b955050602086015167ffffffffffffffff8111156200062557620006246200038f565b5b6200063388828901620004e0565b9450506040620006468882890162000561565b9350506060620006598882890162000561565b92505060806200066c888289016200059c565b9150509295509295909350565b600081519050919050565b7f4e487b7100000000000000000000000000000000000000000000000000000000600052602260045260246000fd5b60006002820490506001821680620006cc57607f821691505b602082108103620006e257620006e162000684565b5b50919050565b60008190508160005260206000209050919050565b60006020601f8301049050919050565b600082821b905092915050565b6000600883026200074c7fffffffffffffffffffffffffffffffffffffffffffffffffffffffffffffffff826200070d565b6200075886836200070d565b95508019841693508086168417925050509392505050565b6000819050919050565b60006200079b620007956200078f8462000578565b62000770565b62000578565b9050919050565b6000819050919050565b620007b7836200077a565b620007cf620007c682620007a2565b8484546200071a565b825550505050565b600090565b620007e6620007d7565b620007f3818484620007ac565b505050565b5b818110156200081b576200080f600082620007dc565b600181019050620007f9565b5050565b601f8211156200086a576200083481620006e8565b6200083f84620006fd565b810160208510156200084f578190505b620008676200085e85620006fd565b830182620007f8565b50505b505050565b600082821c905092915050565b60006200088f600019846008026200086f565b1980831691505092915050565b6000620008aa83836200087c565b9150826002028217905092915050565b620008c58262000679565b67ffffffffffffffff811115620008e157620008e0620003af565b5b620008ed8254620006b3565b620008fa8282856200081f565b600060209050601f8311600181146200093257600084156200091d578287015190505b6200092985826200089c565b86555062000999565b601f1984166200094286620006e8565b60005b828110156200096c5784890151825560018201915060208501945060208101905062000945565b868310156200098c578489015162000988601f8916826200087c565b8355505b6001600288020188555050505b505050505050565b620009ac8162000533565b82525050565b6000602082019050620009c96000830184620009a1565b92915050565b7f4e487b7100000000000000000000000000000000000000000000000000000000600052601160045260246000fd5b600062000a0b8262000578565b915062000a188362000578565b925082820190508082111562000a335762000a32620009cf565b5b92915050565b62000a448162000578565b82525050565b600060608201905062000a616000830186620009a1565b62000a70602083018562000a39565b62000a7f604083018462000a39565b949350505050565b600060208201905062000a9e600083018462000a39565b92915050565b6111018062000ab46000396000f3fe608060405234801561001057600080fd5b50600436106100a95760003560e01c80634c5d8e43116100715780634c5d8e431461016857806370a082311461018457806395d89b41146101b4578063a9059cbb146101d2578063d92e82e414610202578063dd62ed3e14610220576100a9565b806306fdde03146100ae578063095ea7b3146100cc57806318160ddd146100fc57806323b872dd1461011a578063313ce5671461014a575b600080fd5b6100b6610250565b6040516100c39190610c2d565b60405180910390f35b6100e660048036038101906100e19190610ce8565b6102e2565b6040516100f39190610d43565b60405180910390f35b610104610305565b6040516101119190610d6d565b60405180910390f35b610134600480360381019061012f9190610d88565b61030f565b6040516101419190610d43565b60405180910390f35b61015261033e565b60405161015f9190610df7565b60405180910390f35b610182600480360381019061017d9190610d88565b610347565b005b61019e60048036038101906101999190610e12565b610455565b6040516101ab9190610d6d565b60405180910390f35b6101bc61049d565b6040516101c99190610c2d565b60405180910390f35b6101ec60048036038101906101e79190610ce8565b61052f565b6040516101f99190610d43565b60405180910390f35b61020a610552565b6040516102179190610e9e565b60405180910390f35b61023a60048036038101906102359190610eb9565b610578565b6040516102479190610d6d565b60405180910390f35b60606003805461025f90610f28565b80601f016020809104026020016040519081016040528092919081815260200182805461028b90610f28565b80156102d85780601f106102ad576101008083540402835291602001916102d8565b820191906000526020600020905b8154815290600101906020018083116102bb57829003601f168201915b5050505050905090565b6000806102ed6105ff565b90506102fa818585610607565b600191505092915050565b6000600254905090565b60008061031a6105ff565b9050610327858285610619565b6103328585856106ad565b60019150509392505050565b60006012905090565b600560009054906101000a900473ffffffffffffffffffffffffffffffffffffffff1673ffffffffffffffffffffffffffffffffffffffff1663248804d86040518163ffffffff1660e01b8152600401602060405180830381865afa1580156103b4573d6000803e3d6000fd5b505050506040513d601f19601f820116820180604052508101906103d89190610f6e565b73ffffffffffffffffffffffffffffffffffffffff163373ffffffffffffffffffffffffffffffffffffffff1614610445576040517f08c379a000000000000000000000000000000000000000000000000000000000815260040161043c90610fe7565b60405180910390fd5b610450838383610607565b505050565b60008060008373ffffffffffffffffffffffffffffffffffffffff1673ffffffffffffffffffffffffffffffffffffffff168152602001908152602001600020549050919050565b6060600480546104ac90610f28565b80601f01602080910402602001604051908101604052809291908181526020018280546104d890610f28565b80156105255780601f106104fa57610100808354040283529160200191610525565b820191906000526020600020905b81548152906001019060200180831161050857829003601f168201915b5050505050905090565b60008061053a6105ff565b90506105478185856106ad565b600191505092915050565b600560009054906101000a900473ffffffffffffffffffffffffffffffffffffffff1681565b6000600160008473ffffffffffffffffffffffffffffffffffffffff1673ffffffffffffffffffffffffffffffffffffffff16815260200190815260200160002060008373ffffffffffffffffffffffffffffffffffffffff1673ffffffffffffffffffffffffffffffffffffffff16815260200190815260200160002054905092915050565b600033905090565b61061483838360016107a1565b505050565b60006106258484610578565b90507fffffffffffffffffffffffffffffffffffffffffffffffffffffffffffffffff81146106a75781811015610697578281836040517ffb8f41b200000000000000000000000000000000000000000000000000000000815260040161068e93929190611016565b60405180910390fd5b6106a6848484840360006107a1565b5b50505050565b600073ffffffffffffffffffffffffffffffffffffffff168373ffffffffffffffffffffffffffffffffffffffff160361071f5760006040517f96c6fd1e000000000000000000000000000000000000000000000000000000008152600401610716919061104d565b60405180910390fd5b600073ffffffffffffffffffffffffffffffffffffffff168273ffffffffffffffffffffffffffffffffffffffff16036107915760006040517fec442f05000000000000000000000000000000000000000000000000000000008152600401610788919061104d565b60405180910390fd5b61079c838383610978565b505050565b600073ffffffffffffffffffffffffffffffffffffffff168473ffffffffffffffffffffffffffffffffffffffff16036108135760006040517fe602df0500000000000000000000000000000000000000000000000000000000815260040161080a919061104d565b60405180910390fd5b600073ffffffffffffffffffffffffffffffffffffffff168373ffffffffffffffffffffffffffffffffffffffff16036108855760006040517f94280d6200000000000000000000000000000000000000000000000000000000815260040161087c919061104d565b60405180910390fd5b81600160008673ffffffffffffffffffffffffffffffffffffffff1673ffffffffffffffffffffffffffffffffffffffff16815260200190815260200160002060008573ffffffffffffffffffffffffffffffffffffffff1673ffffffffffffffffffffffffffffffffffffffff168152602001908152602001600020819055508015610972578273ffffffffffffffffffffffffffffffffffffffff168473ffffffffffffffffffffffffffffffffffffffff167f8c5be1e5ebec7d5bd14f71427d1e84f3dd0314c0f7b2291e5b200ac8c7c3b925846040516109699190610d6d565b60405180910390a35b50505050565b600073ffffffffffffffffffffffffffffffffffffffff168373ffffffffffffffffffffffffffffffffffffffff16036109ca5780600260008282546109be9190611097565b92505081905550610a9d565b60008060008573ffffffffffffffffffffffffffffffffffffffff1673ffffffffffffffffffffffffffffffffffffffff16815260200190815260200160002054905081811015610a56578381836040517fe450d38c000000000000000000000000000000000000000000000000000000008152600401610a4d93929190611016565b60405180910390fd5b8181036000808673ffffffffffffffffffffffffffffffffffffffff1673ffffffffffffffffffffffffffffffffffffffff16815260200190815260200160002081905550505b600073ffffffffffffffffffffffffffffffffffffffff168273ffffffffffffffffffffffffffffffffffffffff1603610ae65780600260008282540392505081905550610b33565b806000808473ffffffffffffffffffffffffffffffffffffffff1673ffffffffffffffffffffffffffffffffffffffff168152602001908152602001600020600082825401925050819055505b8173ffffffffffffffffffffffffffffffffffffffff168373ffffffffffffffffffffffffffffffffffffffff167fddf252ad1be2c89b69c2b068fc378daa952ba7f163c4a11628f55a4df523b3ef83604051610b909190610d6d565b60405180910390a3505050565b600081519050919050565b600082825260208201905092915050565b60005b83811015610bd7578082015181840152602081019050610bbc565b60008484015250505050565b6000601f19601f8301169050919050565b6000610bff82610b9d565b610c098185610ba8565b9350610c19818560208601610bb9565b610c2281610be3565b840191505092915050565b60006020820190508181036000830152610c478184610bf4565b905092915050565b600080fd5b600073ffffffffffffffffffffffffffffffffffffffff82169050919050565b6000610c7f82610c54565b9050919050565b610c8f81610c74565b8114610c9a57600080fd5b50565b600081359050610cac81610c86565b92915050565b6000819050919050565b610cc581610cb2565b8114610cd057600080fd5b50565b600081359050610ce281610cbc565b92915050565b60008060408385031215610cff57610cfe610c4f565b5b6000610d0d85828601610c9d565b9250506020610d1e85828601610cd3565b9150509250929050565b60008115159050919050565b610d3d81610d28565b82525050565b6000602082019050610d586000830184610d34565b92915050565b610d6781610cb2565b82525050565b6000602082019050610d826000830184610d5e565b92915050565b600080600060608486031215610da157610da0610c4f565b5b6000610daf86828701610c9d565b9350506020610dc086828701610c9d565b9250506040610dd186828701610cd3565b9150509250925092565b600060ff82169050919050565b610df181610ddb565b82525050565b6000602082019050610e0c6000830184610de8565b92915050565b600060208284031215610e2857610e27610c4f565b5b6000610e3684828501610c9d565b91505092915050565b6000819050919050565b6000610e64610e5f610e5a84610c54565b610e3f565b610c54565b9050919050565b6000610e7682610e49565b9050919050565b6000610e8882610e6b565b9050919050565b610e9881610e7d565b82525050565b6000602082019050610eb36000830184610e8f565b92915050565b60008060408385031215610ed057610ecf610c4f565b5b6000610ede85828601610c9d565b9250506020610eef85828601610c9d565b9150509250929050565b7f4e487b7100000000000000000000000000000000000000000000000000000000600052602260045260246000fd5b60006002820490506001821680610f4057607f821691505b602082108103610f5357610f52610ef9565b5b50919050565b600081519050610f6881610c86565b92915050565b600060208284031215610f8457610f83610c4f565b5b6000610f9284828501610f59565b91505092915050565b7f696e76616c69642064656c656761746f72000000000000000000000000000000600082015250565b6000610fd1601183610ba8565b9150610fdc82610f9b565b602082019050919050565b6000602082019050818103600083015261100081610fc4565b9050919050565b61101081610c74565b82525050565b600060608201905061102b6000830186611007565b6110386020830185610d5e565b6110456040830184610d5e565b949350505050565b60006020820190506110626000830184611007565b92915050565b7f4e487b7100000000000000000000000000000000000000000000000000000000600052601160045260246000fd5b60006110a282610cb2565b91506110ad83610cb2565b92508282019050808211156110c5576110c4611068565b5b9291505056fea2646970667358221220371120d347be801548f7e4c95d6c2210018d966574418fe70c42e9a271b5afac64736f6c63430008140033",
  "linkReferences": {},
  "deployedLinkReferences": {}
}