{
  "_format": "hh-sol-artifact-1",
  "contractName": "ZILNFT",
  "sourceName": "contracts/ZILNFT.sol",
  "abi": [
    {
      "inputs": [
        {
          "internalType": "string",
          "name": "_name",
          "type": "string"
        },
        {
          "internalType": "string",
          "name": "_symbol",
          "type": "string"
        },
        {
          "internalType": "address",
          "name": "_cfg",
          "type": "address"
        }
      ],
      "stateMutability": "nonpayable",
      "type": "constructor"
    },
    {
      "inputs": [],
      "name": "ERC721EnumerableForbiddenBatchMint",
      "type": "error"
    },
    {
      "inputs": [
        {
          "internalType": "address",
          "name": "sender",
          "type": "address"
        },
        {
          "internalType": "uint256",
          "name": "tokenId",
          "type": "uint256"
        },
        {
          "internalType": "address",
          "name": "owner",
          "type": "address"
        }
      ],
      "name": "ERC721IncorrectOwner",
      "type": "error"
    },
    {
      "inputs": [
        {
          "internalType": "address",
          "name": "operator",
          "type": "address"
        },
        {
          "internalType": "uint256",
          "name": "tokenId",
          "type": "uint256"
        }
      ],
      "name": "ERC721InsufficientApproval",
      "type": "error"
    },
    {
      "inputs": [
        {
          "internalType": "address",
          "name": "approver",
          "type": "address"
        }
      ],
      "name": "ERC721InvalidApprover",
      "type": "error"
    },
    {
      "inputs": [
        {
          "internalType": "address",
          "name": "operator",
          "type": "address"
        }
      ],
      "name": "ERC721InvalidOperator",
      "type": "error"
    },
    {
      "inputs": [
        {
          "internalType": "address",
          "name": "owner",
          "type": "address"
        }
      ],
      "name": "ERC721InvalidOwner",
      "type": "error"
    },
    {
      "inputs": [
        {
          "internalType": "address",
          "name": "receiver",
          "type": "address"
        }
      ],
      "name": "ERC721InvalidReceiver",
      "type": "error"
    },
    {
      "inputs": [
        {
          "internalType": "address",
          "name": "sender",
          "type": "address"
        }
      ],
      "name": "ERC721InvalidSender",
      "type": "error"
    },
    {
      "inputs": [
        {
          "internalType": "uint256",
          "name": "tokenId",
          "type": "uint256"
        }
      ],
      "name": "ERC721NonexistentToken",
      "type": "error"
    },
    {
      "inputs": [
        {
          "internalType": "address",
          "name": "owner",
          "type": "address"
        },
        {
          "internalType": "uint256",
          "name": "index",
          "type": "uint256"
        }
      ],
      "name": "ERC721OutOfBoundsIndex",
      "type": "error"
    },
    {
      "anonymous": false,
      "inputs": [
        {
          "indexed": true,
          "internalType": "address",
          "name": "owner",
          "type": "address"
        },
        {
          "indexed": true,
          "internalType": "address",
          "name": "approved",
          "type": "address"
        },
        {
          "indexed": true,
          "internalType": "uint256",
          "name": "tokenId",
          "type": "uint256"
        }
      ],
      "name": "Approval",
      "type": "event"
    },
    {
      "anonymous": false,
      "inputs": [
        {
          "indexed": true,
          "internalType": "address",
          "name": "owner",
          "type": "address"
        },
        {
          "indexed": true,
          "internalType": "address",
          "name": "operator",
          "type": "address"
        },
        {
          "indexed": false,
          "internalType": "bool",
          "name": "approved",
          "type": "bool"
        }
      ],
      "name": "ApprovalForAll",
      "type": "event"
    },
    {
      "anonymous": false,
      "inputs": [
        {
          "indexed": true,
          "internalType": "uint256",
          "name": "_nftId",
          "type": "uint256"
        },
        {
          "indexed": false,
          "internalType": "uint256",
          "name": "_ts",
          "type": "uint256"
        },
        {
          "indexed": false,
          "internalType": "uint256",
          "name": "_paid",
          "type": "uint256"
        }
      ],
      "name": "PayLoan",
      "type": "event"
    },
    {
      "anonymous": false,
      "inputs": [
        {
          "indexed": true,
          "internalType": "uint256",
          "name": "_nftId",
          "type": "uint256"
        },
        {
          "indexed": false,
          "internalType": "uint256",
          "name": "_ts",
          "type": "uint256"
        },
        {
          "indexed": false,
          "internalType": "uint256",
          "name": "_staked",
          "type": "uint256"
        },
        {
          "indexed": false,
          "internalType": "uint256",
          "name": "_borrowed",
          "type": "uint256"
        }
      ],
      "name": "TakeLoan",
      "type": "event"
    },
    {
      "anonymous": false,
      "inputs": [
        {
          "indexed": true,
          "internalType": "address",
          "name": "from",
          "type": "address"
        },
        {
          "indexed": true,
          "internalType": "address",
          "name": "to",
          "type": "address"
        },
        {
          "indexed": true,
          "internalType": "uint256",
          "name": "tokenId",
          "type": "uint256"
        }
      ],
      "name": "Transfer",
      "type": "event"
    },
    {
      "inputs": [],
      "name": "CONFIG",
      "outputs": [
        {
          "internalType": "contract Config",
          "name": "",
          "type": "address"
        }
      ],
      "stateMutability": "view",
      "type": "function"
    },
    {
      "inputs": [
        {
          "internalType": "address",
          "name": "to",
          "type": "address"
        },
        {
          "internalType": "uint256",
          "name": "tokenId",
          "type": "uint256"
        }
      ],
      "name": "approve",
      "outputs": [],
      "stateMutability": "nonpayable",
      "type": "function"
    },
    {
      "inputs": [
        {
          "internalType": "address",
          "name": "owner",
          "type": "address"
        }
      ],
      "name": "balanceOf",
      "outputs": [
        {
          "internalType": "uint256",
          "name": "",
          "type": "uint256"
        }
      ],
      "stateMutability": "view",
      "type": "function"
    },
    {
      "inputs": [
        {
          "internalType": "uint256",
          "name": "amountToken",
          "type": "uint256"
        }
      ],
      "name": "calcBorrow",
      "outputs": [
        {
          "internalType": "uint256",
          "name": "",
          "type": "uint256"
        }
      ],
      "stateMutability": "view",
      "type": "function"
    },
    {
      "inputs": [
        {
          "internalType": "uint256",
          "name": "amountCoin",
          "type": "uint256"
        }
      ],
      "name": "calcCollateral",
      "outputs": [
        {
          "internalType": "uint256",
          "name": "",
          "type": "uint256"
        }
      ],
      "stateMutability": "view",
      "type": "function"
    },
    {
      "inputs": [
        {
          "internalType": "uint256",
          "name": "tokenId",
          "type": "uint256"
        }
      ],
      "name": "getApproved",
      "outputs": [
        {
          "internalType": "address",
          "name": "",
          "type": "address"
        }
      ],
      "stateMutability": "view",
      "type": "function"
    },
    {
      "inputs": [
        {
          "internalType": "address",
          "name": "owner",
          "type": "address"
        },
        {
          "internalType": "address",
          "name": "operator",
          "type": "address"
        }
      ],
      "name": "isApprovedForAll",
      "outputs": [
        {
          "internalType": "bool",
          "name": "",
          "type": "bool"
        }
      ],
      "stateMutability": "view",
      "type": "function"
    },
    {
      "inputs": [],
      "name": "name",
      "outputs": [
        {
          "internalType": "string",
          "name": "",
          "type": "string"
        }
      ],
      "stateMutability": "view",
      "type": "function"
    },
    {
      "inputs": [
        {
          "internalType": "uint256",
          "name": "nftId",
          "type": "uint256"
        }
      ],
      "name": "nftInfo",
      "outputs": [
        {
          "internalType": "uint256",
          "name": "",
          "type": "uint256"
        },
        {
          "internalType": "uint256",
          "name": "",
          "type": "uint256"
        },
        {
          "internalType": "uint256",
          "name": "",
          "type": "uint256"
        },
        {
          "internalType": "uint256",
          "name": "",
          "type": "uint256"
        }
      ],
      "stateMutability": "view",
      "type": "function"
    },
    {
      "inputs": [
        {
          "internalType": "uint256",
          "name": "tokenId",
          "type": "uint256"
        }
      ],
      "name": "ownerOf",
      "outputs": [
        {
          "internalType": "address",
          "name": "",
          "type": "address"
        }
      ],
      "stateMutability": "view",
      "type": "function"
    },
    {
      "inputs": [
        {
          "internalType": "uint256",
          "name": "nftId",
          "type": "uint256"
        },
        {
          "internalType": "uint256",
          "name": "amountCoin",
          "type": "uint256"
        }
      ],
      "name": "payLoan",
      "outputs": [
        {
          "internalType": "uint256",
          "name": "",
          "type": "uint256"
        }
      ],
      "stateMutability": "nonpayable",
      "type": "function"
    },
    {
      "inputs": [
        {
          "internalType": "address",
          "name": "user",
          "type": "address"
        },
        {
          "internalType": "uint256",
          "name": "nftId",
          "type": "uint256"
        },
        {
          "internalType": "uint256",
          "name": "amountCoin",
          "type": "uint256"
        }
      ],
      "name": "payLoanByDelegator",
      "outputs": [
        {
          "internalType": "uint256",
          "name": "",
          "type": "uint256"
        }
      ],
      "stateMutability": "nonpayable",
      "type": "function"
    },
    {
      "inputs": [],
      "name": "reset",
      "outputs": [],
      "stateMutability": "nonpayable",
      "type": "function"
    },
    {
      "inputs": [
        {
          "internalType": "address",
          "name": "from",
          "type": "address"
        },
        {
          "internalType": "address",
          "name": "to",
          "type": "address"
        },
        {
          "internalType": "uint256",
          "name": "tokenId",
          "type": "uint256"
        }
      ],
      "name": "safeTransferFrom",
      "outputs": [],
      "stateMutability": "nonpayable",
      "type": "function"
    },
    {
      "inputs": [
        {
          "internalType": "address",
          "name": "from",
          "type": "address"
        },
        {
          "internalType": "address",
          "name": "to",
          "type": "address"
        },
        {
          "internalType": "uint256",
          "name": "tokenId",
          "type": "uint256"
        },
        {
          "internalType": "bytes",
          "name": "data",
          "type": "bytes"
        }
      ],
      "name": "safeTransferFrom",
      "outputs": [],
      "stateMutability": "nonpayable",
      "type": "function"
    },
    {
      "inputs": [
        {
          "internalType": "address",
          "name": "operator",
          "type": "address"
        },
        {
          "internalType": "bool",
          "name": "approved",
          "type": "bool"
        }
      ],
      "name": "setApprovalForAll",
      "outputs": [],
      "stateMutability": "nonpayable",
      "type": "function"
    },
    {
      "inputs": [
        {
          "internalType": "bytes4",
          "name": "interfaceId",
          "type": "bytes4"
        }
      ],
      "name": "supportsInterface",
      "outputs": [
        {
          "internalType": "bool",
          "name": "",
          "type": "bool"
        }
      ],
      "stateMutability": "view",
      "type": "function"
    },
    {
      "inputs": [],
      "name": "symbol",
      "outputs": [
        {
          "internalType": "string",
          "name": "",
          "type": "string"
        }
      ],
      "stateMutability": "view",
      "type": "function"
    },
    {
      "inputs": [
        {
          "internalType": "uint256",
          "name": "amountToken",
          "type": "uint256"
        }
      ],
      "name": "takeLoan",
      "outputs": [
        {
          "internalType": "uint256",
          "name": "",
          "type": "uint256"
        }
      ],
      "stateMutability": "nonpayable",
      "type": "function"
    },
    {
      "inputs": [
        {
          "internalType": "address",
          "name": "user",
          "type": "address"
        },
        {
          "internalType": "uint256",
          "name": "amountToken",
          "type": "uint256"
        }
      ],
      "name": "takeLoanByDelegator",
      "outputs": [
        {
          "internalType": "uint256",
          "name": "",
          "type": "uint256"
        }
      ],
      "stateMutability": "nonpayable",
      "type": "function"
    },
    {
      "inputs": [
        {
          "internalType": "uint256",
          "name": "index",
          "type": "uint256"
        }
      ],
      "name": "tokenByIndex",
      "outputs": [
        {
          "internalType": "uint256",
          "name": "",
          "type": "uint256"
        }
      ],
      "stateMutability": "view",
      "type": "function"
    },
    {
      "inputs": [
        {
          "internalType": "address",
          "name": "owner",
          "type": "address"
        },
        {
          "internalType": "uint256",
          "name": "index",
          "type": "uint256"
        }
      ],
      "name": "tokenOfOwnerByIndex",
      "outputs": [
        {
          "internalType": "uint256",
          "name": "",
          "type": "uint256"
        }
      ],
      "stateMutability": "view",
      "type": "function"
    },
    {
      "inputs": [
        {
          "internalType": "uint256",
          "name": "tokenId",
          "type": "uint256"
        }
      ],
      "name": "tokenURI",
      "outputs": [
        {
          "internalType": "string",
          "name": "",
          "type": "string"
        }
      ],
      "stateMutability": "view",
      "type": "function"
    },
    {
      "inputs": [],
      "name": "totalSupply",
      "outputs": [
        {
          "internalType": "uint256",
          "name": "",
          "type": "uint256"
        }
      ],
      "stateMutability": "view",
      "type": "function"
    },
    {
      "inputs": [
        {
          "internalType": "address",
          "name": "from",
          "type": "address"
        },
        {
          "internalType": "address",
          "name": "to",
          "type": "address"
        },
        {
          "internalType": "uint256",
          "name": "tokenId",
          "type": "uint256"
        }
      ],
      "name": "transferFrom",
      "outputs": [],
      "stateMutability": "nonpayable",
      "type": "function"
    }
  ],
  "bytecode": "0x60806040523480156200001157600080fd5b506040516200430b3803806200430b83398181016040528101906200003791906200031b565b828281600090816200004a919062000600565b5080600190816200005c919062000600565b505050600b60405180608001604052806000815260200160008152602001600081526020016000815250908060018154018082558091505060019003906000526020600020906004020160009091909190915060008201518160000155602082015181600101556040820151816002015560608201518160030155505080600a60006101000a81548173ffffffffffffffffffffffffffffffffffffffff021916908373ffffffffffffffffffffffffffffffffffffffff160217905550505050620006e7565b6000604051905090565b600080fd5b600080fd5b600080fd5b600080fd5b6000601f19601f8301169050919050565b7f4e487b7100000000000000000000000000000000000000000000000000000000600052604160045260246000fd5b6200018c8262000141565b810181811067ffffffffffffffff82111715620001ae57620001ad62000152565b5b80604052505050565b6000620001c362000123565b9050620001d1828262000181565b919050565b600067ffffffffffffffff821115620001f457620001f362000152565b5b620001ff8262000141565b9050602081019050919050565b60005b838110156200022c5780820151818401526020810190506200020f565b60008484015250505050565b60006200024f6200024984620001d6565b620001b7565b9050828152602081018484840111156200026e576200026d6200013c565b5b6200027b8482856200020c565b509392505050565b600082601f8301126200029b576200029a62000137565b5b8151620002ad84826020860162000238565b91505092915050565b600073ffffffffffffffffffffffffffffffffffffffff82169050919050565b6000620002e382620002b6565b9050919050565b620002f581620002d6565b81146200030157600080fd5b50565b6000815190506200031581620002ea565b92915050565b6000806000606084860312156200033757620003366200012d565b5b600084015167ffffffffffffffff81111562000358576200035762000132565b5b620003668682870162000283565b935050602084015167ffffffffffffffff8111156200038a576200038962000132565b5b620003988682870162000283565b9250506040620003ab8682870162000304565b9150509250925092565b600081519050919050565b7f4e487b7100000000000000000000000000000000000000000000000000000000600052602260045260246000fd5b600060028204905060018216806200040857607f821691505b6020821081036200041e576200041d620003c0565b5b50919050565b60008190508160005260206000209050919050565b60006020601f8301049050919050565b600082821b905092915050565b600060088302620004887fffffffffffffffffffffffffffffffffffffffffffffffffffffffffffffffff8262000449565b62000494868362000449565b95508019841693508086168417925050509392505050565b6000819050919050565b6000819050919050565b6000620004e1620004db620004d584620004ac565b620004b6565b620004ac565b9050919050565b6000819050919050565b620004fd83620004c0565b620005156200050c82620004e8565b84845462000456565b825550505050565b600090565b6200052c6200051d565b62000539818484620004f2565b505050565b5b8181101562000561576200055560008262000522565b6001810190506200053f565b5050565b601f821115620005b0576200057a8162000424565b620005858462000439565b8101602085101562000595578190505b620005ad620005a48562000439565b8301826200053e565b50505b505050565b600082821c905092915050565b6000620005d560001984600802620005b5565b1980831691505092915050565b6000620005f08383620005c2565b9150826002028217905092915050565b6200060b82620003b5565b67ffffffffffffffff81111562000627576200062662000152565b5b620006338254620003ef565b6200064082828562000565565b600060209050601f83116001811462000678576000841562000663578287015190505b6200066f8582620005e2565b865550620006df565b601f198416620006888662000424565b60005b82811015620006b2578489015182556001820191506020850194506020810190506200068b565b86831015620006d25784890151620006ce601f891682620005c2565b8355505b6001600288020188555050505b505050505050565b613c1480620006f76000396000f3fe608060405234801561001057600080fd5b50600436106101735760003560e01c80636352211e116100de57806395d89b4111610097578063c87b56dd11610071578063c87b56dd146104d1578063d826f88f14610501578063d92e82e41461050b578063e985e9c51461052957610173565b806395d89b411461047b578063a22cb46514610499578063b88d4fde146104b557610173565b80636352211e1461035b57806370a082311461038b57806385ca1c43146103bb57806389306e61146103eb5780638c803fc21461041b5780638eba1ea71461044b57610173565b80631f8bc790116101305780631f8bc7901461026057806323b872dd146102935780632f745c59146102af57806342842e0e146102df5780634f6ccce7146102fb5780635e3043951461032b57610173565b806301ffc9a71461017857806306fdde03146101a8578063081812fc146101c6578063095ea7b3146101f6578063158b02d71461021257806318160ddd14610242575b600080fd5b610192600480360381019061018d9190612e8f565b610559565b60405161019f9190612ed7565b60405180910390f35b6101b061056b565b6040516101bd9190612f82565b60405180910390f35b6101e060048036038101906101db9190612fda565b6105fd565b6040516101ed9190613048565b60405180910390f35b610210600480360381019061020b919061308f565b610619565b005b61022c60048036038101906102279190612fda565b61062f565b60405161023991906130de565b60405180910390f35b61024a610761565b60405161025791906130de565b60405180910390f35b61027a60048036038101906102759190612fda565b61076e565b60405161028a94939291906130f9565b60405180910390f35b6102ad60048036038101906102a8919061313e565b610844565b005b6102c960048036038101906102c4919061308f565b610946565b6040516102d691906130de565b60405180910390f35b6102f960048036038101906102f4919061313e565b6109ef565b005b61031560048036038101906103109190612fda565b610a0f565b60405161032291906130de565b60405180910390f35b61034560048036038101906103409190612fda565b610a85565b60405161035291906130de565b60405180910390f35b61037560048036038101906103709190612fda565b610be9565b6040516103829190613048565b60405180910390f35b6103a560048036038101906103a09190613191565b610bfb565b6040516103b291906130de565b60405180910390f35b6103d560048036038101906103d0919061308f565b610cb5565b6040516103e291906130de565b60405180910390f35b610405600480360381019061040091906131be565b610dc7565b60405161041291906130de565b60405180910390f35b61043560048036038101906104309190612fda565b610ddc565b60405161044291906130de565b60405180910390f35b610465600480360381019061046091906131fe565b610def565b60405161047291906130de565b60405180910390f35b610483610f03565b6040516104909190612f82565b60405180910390f35b6104b360048036038101906104ae919061327d565b610f95565b005b6104cf60048036038101906104ca91906133f2565b610fab565b005b6104eb60048036038101906104e69190612fda565b610fc8565b6040516104f89190612f82565b60405180910390f35b610509611031565b005b6105136111f2565b60405161052091906134d4565b60405180910390f35b610543600480360381019061053e91906134ef565b611218565b6040516105509190612ed7565b60405180910390f35b6000610564826112ac565b9050919050565b60606000805461057a9061355e565b80601f01602080910402602001604051908101604052809291908181526020018280546105a69061355e565b80156105f35780601f106105c8576101008083540402835291602001916105f3565b820191906000526020600020905b8154815290600101906020018083116105d657829003601f168201915b5050505050905090565b600061060882611326565b50610612826113ae565b9050919050565b61062b82826106266113eb565b6113f3565b5050565b600080600a60009054906101000a900473ffffffffffffffffffffffffffffffffffffffff1673ffffffffffffffffffffffffffffffffffffffff1663eecccaab6040518163ffffffff1660e01b8152600401602060405180830381865afa15801561069f573d6000803e3d6000fd5b505050506040513d601f19601f820116820180604052508101906106c391906135a4565b73ffffffffffffffffffffffffffffffffffffffff16636b6c041e30856040518363ffffffff1660e01b81526004016106fd9291906135d1565b6040805180830381865afa158015610719573d6000803e3d6000fd5b505050506040513d601f19601f8201168201806040525081019061073d919061360f565b5090506064605f8261074f919061367e565b61075991906136ef565b915050919050565b6000600880549050905090565b6000806000806000851180156107885750600b8054905085105b6107c7576040517f08c379a00000000000000000000000000000000000000000000000000000000081526004016107be9061376c565b60405180910390fd5b6000600b86815481106107dd576107dc61378c565b5b9060005260206000209060040201604051806080016040529081600082015481526020016001820154815260200160028201548152602001600382015481525050905080600001518160200151826040015183606001519450945094509450509193509193565b600073ffffffffffffffffffffffffffffffffffffffff168273ffffffffffffffffffffffffffffffffffffffff16036108b65760006040517f64a0ae920000000000000000000000000000000000000000000000000000000081526004016108ad9190613048565b60405180910390fd5b60006108ca83836108c56113eb565b611405565b90508373ffffffffffffffffffffffffffffffffffffffff168173ffffffffffffffffffffffffffffffffffffffff1614610940578382826040517f64283d7b000000000000000000000000000000000000000000000000000000008152600401610937939291906137bb565b60405180910390fd5b50505050565b600061095183610bfb565b82106109965782826040517fa57d13dc00000000000000000000000000000000000000000000000000000000815260040161098d9291906135d1565b60405180910390fd5b600660008473ffffffffffffffffffffffffffffffffffffffff1673ffffffffffffffffffffffffffffffffffffffff168152602001908152602001600020600083815260200190815260200160002054905092915050565b610a0a83838360405180602001604052806000815250610fab565b505050565b6000610a19610761565b8210610a5f576000826040517fa57d13dc000000000000000000000000000000000000000000000000000000008152600401610a569291906135d1565b60405180910390fd5b60088281548110610a7357610a7261378c565b5b90600052602060002001549050919050565b600080670de0b6b3a764000090506000600a60009054906101000a900473ffffffffffffffffffffffffffffffffffffffff1673ffffffffffffffffffffffffffffffffffffffff1663eecccaab6040518163ffffffff1660e01b8152600401602060405180830381865afa158015610b02573d6000803e3d6000fd5b505050506040513d601f19601f82011682018060405250810190610b2691906135a4565b73ffffffffffffffffffffffffffffffffffffffff16636b6c041e30846040518363ffffffff1660e01b8152600401610b609291906135d1565b6040805180830381865afa158015610b7c573d6000803e3d6000fd5b505050506040513d601f19601f82011682018060405250810190610ba0919061360f565b50905060006064605f83610bb4919061367e565b610bbe91906136ef565b905080670de0b6b3a764000086610bd5919061367e565b610bdf91906136ef565b9350505050919050565b6000610bf482611326565b9050919050565b60008073ffffffffffffffffffffffffffffffffffffffff168273ffffffffffffffffffffffffffffffffffffffff1603610c6e5760006040517f89c62b64000000000000000000000000000000000000000000000000000000008152600401610c659190613048565b60405180910390fd5b600360008373ffffffffffffffffffffffffffffffffffffffff1673ffffffffffffffffffffffffffffffffffffffff168152602001908152602001600020549050919050565b6000600a60009054906101000a900473ffffffffffffffffffffffffffffffffffffffff1673ffffffffffffffffffffffffffffffffffffffff1663248804d86040518163ffffffff1660e01b8152600401602060405180830381865afa158015610d24573d6000803e3d6000fd5b505050506040513d601f19601f82011682018060405250810190610d4891906135a4565b73ffffffffffffffffffffffffffffffffffffffff163373ffffffffffffffffffffffffffffffffffffffff1614610db5576040517f08c379a0000000000000000000000000000000000000000000000000000000008152600401610dac9061383e565b60405180910390fd5b610dbf838361141b565b905092915050565b6000610dd433848461174b565b905092915050565b6000610de8338361141b565b9050919050565b6000600a60009054906101000a900473ffffffffffffffffffffffffffffffffffffffff1673ffffffffffffffffffffffffffffffffffffffff1663248804d86040518163ffffffff1660e01b8152600401602060405180830381865afa158015610e5e573d6000803e3d6000fd5b505050506040513d601f19601f82011682018060405250810190610e8291906135a4565b73ffffffffffffffffffffffffffffffffffffffff163373ffffffffffffffffffffffffffffffffffffffff1614610eef576040517f08c379a0000000000000000000000000000000000000000000000000000000008152600401610ee69061383e565b60405180910390fd5b610efa84848461174b565b90509392505050565b606060018054610f129061355e565b80601f0160208091040260200160405190810160405280929190818152602001828054610f3e9061355e565b8015610f8b5780601f10610f6057610100808354040283529160200191610f8b565b820191906000526020600020905b815481529060010190602001808311610f6e57829003601f168201915b5050505050905090565b610fa7610fa06113eb565b8383611cbc565b5050565b610fb6848484610844565b610fc284848484611e2b565b50505050565b6060610fd382611326565b506000610fde611fe2565b90506000815111610ffe5760405180602001604052806000815250611029565b8061100884611ff9565b60405160200161101992919061389a565b6040516020818303038152906040525b915050919050565b600a60009054906101000a900473ffffffffffffffffffffffffffffffffffffffff1673ffffffffffffffffffffffffffffffffffffffff1663165310c56040518163ffffffff1660e01b8152600401602060405180830381865afa15801561109e573d6000803e3d6000fd5b505050506040513d601f19601f820116820180604052508101906110c291906135a4565b73ffffffffffffffffffffffffffffffffffffffff1663095ea7b3600a60009054906101000a900473ffffffffffffffffffffffffffffffffffffffff1673ffffffffffffffffffffffffffffffffffffffff1663eecccaab6040518163ffffffff1660e01b8152600401602060405180830381865afa15801561114a573d6000803e3d6000fd5b505050506040513d601f19601f8201168201806040525081019061116e91906135a4565b7fffffffffffffffffffffffffffffffffffffffffffffffffffffffffffffffff6040518363ffffffff1660e01b81526004016111ac9291906135d1565b6020604051808303816000875af11580156111cb573d6000803e3d6000fd5b505050506040513d601f19601f820116820180604052508101906111ef91906138d3565b50565b600a60009054906101000a900473ffffffffffffffffffffffffffffffffffffffff1681565b6000600560008473ffffffffffffffffffffffffffffffffffffffff1673ffffffffffffffffffffffffffffffffffffffff16815260200190815260200160002060008373ffffffffffffffffffffffffffffffffffffffff1673ffffffffffffffffffffffffffffffffffffffff16815260200190815260200160002060009054906101000a900460ff16905092915050565b60007f780e9d63000000000000000000000000000000000000000000000000000000007bffffffffffffffffffffffffffffffffffffffffffffffffffffffff1916827bffffffffffffffffffffffffffffffffffffffffffffffffffffffff1916148061131f575061131e826120c7565b5b9050919050565b600080611332836121a9565b9050600073ffffffffffffffffffffffffffffffffffffffff168173ffffffffffffffffffffffffffffffffffffffff16036113a557826040517f7e27328900000000000000000000000000000000000000000000000000000000815260040161139c91906130de565b60405180910390fd5b80915050919050565b60006004600083815260200190815260200160002060009054906101000a900473ffffffffffffffffffffffffffffffffffffffff169050919050565b600033905090565b61140083838360016121e6565b505050565b60006114128484846123ab565b90509392505050565b600080821161145f576040517f08c379a00000000000000000000000000000000000000000000000000000000081526004016114569061394c565b60405180910390fd5b600a60009054906101000a900473ffffffffffffffffffffffffffffffffffffffff1673ffffffffffffffffffffffffffffffffffffffff1663b9cfe2a86040518163ffffffff1660e01b8152600401602060405180830381865afa1580156114cc573d6000803e3d6000fd5b505050506040513d601f19601f820116820180604052508101906114f091906135a4565b73ffffffffffffffffffffffffffffffffffffffff166323b872dd8430856040518463ffffffff1660e01b815260040161152c9392919061396c565b6020604051808303816000875af115801561154b573d6000803e3d6000fd5b505050506040513d601f19601f8201168201806040525081019061156f91906138d3565b50600061157b8361062f565b90506000600b805490509050600b604051806080016040528086815260200184815260200186815260200184815250908060018154018082558091505060019003906000526020600020906004020160009091909190915060008201518160000155602082015181600101556040820151816002015560608201518160030155505061160785826124c8565b600a60009054906101000a900473ffffffffffffffffffffffffffffffffffffffff1673ffffffffffffffffffffffffffffffffffffffff1663eecccaab6040518163ffffffff1660e01b8152600401602060405180830381865afa158015611674573d6000803e3d6000fd5b505050506040513d601f19601f8201168201806040525081019061169891906135a4565b73ffffffffffffffffffffffffffffffffffffffff166394fb89ab83876040518363ffffffff1660e01b81526004016116d29291906139a3565b600060405180830381600087803b1580156116ec57600080fd5b505af1158015611700573d6000803e3d6000fd5b50505050807fcfd742e8a4b993d4a2506d7d978987b49eac3b7d1f3dabf5eb30cffd302aa07d428685604051611738939291906139cc565b60405180910390a2819250505092915050565b600061175683610be9565b73ffffffffffffffffffffffffffffffffffffffff168473ffffffffffffffffffffffffffffffffffffffff16146117c3576040517f08c379a00000000000000000000000000000000000000000000000000000000081526004016117ba90613a4f565b60405180910390fd5b6000600b84815481106117d9576117d861378c565b5b90600052602060002090600402016040518060800160405290816000820154815260200160018201548152602001600282015481526020016003820154815250509050600083118015611830575080602001518311155b61186f576040517f08c379a00000000000000000000000000000000000000000000000000000000081526004016118669061394c565b60405180910390fd5b600a60009054906101000a900473ffffffffffffffffffffffffffffffffffffffff1673ffffffffffffffffffffffffffffffffffffffff1663165310c56040518163ffffffff1660e01b8152600401602060405180830381865afa1580156118dc573d6000803e3d6000fd5b505050506040513d601f19601f8201168201806040525081019061190091906135a4565b73ffffffffffffffffffffffffffffffffffffffff166323b872dd61192486610be9565b30866040518463ffffffff1660e01b81526004016119449392919061396c565b6020604051808303816000875af1158015611963573d6000803e3d6000fd5b505050506040513d601f19601f8201168201806040525081019061198791906138d3565b5082600b858154811061199d5761199c61378c565b5b9060005260206000209060040201600101546119b99190613a6f565b600b85815481106119cd576119cc61378c565b5b906000526020600020906004020160010181905550600a60009054906101000a900473ffffffffffffffffffffffffffffffffffffffff1673ffffffffffffffffffffffffffffffffffffffff1663eecccaab6040518163ffffffff1660e01b8152600401602060405180830381865afa158015611a4f573d6000803e3d6000fd5b505050506040513d601f19601f82011682018060405250810190611a7391906135a4565b73ffffffffffffffffffffffffffffffffffffffff166344e02dbc846040518263ffffffff1660e01b8152600401611aab91906130de565b600060405180830381600087803b158015611ac557600080fd5b505af1158015611ad9573d6000803e3d6000fd5b50505050600080600b8681548110611af457611af361378c565b5b90600052602060002090600402016001015403611c7657600b8581548110611b1f57611b1e61378c565b5b90600052602060002090600402016000015490506000600b8681548110611b4957611b4861378c565b5b906000526020600020906004020160000181905550600a60009054906101000a900473ffffffffffffffffffffffffffffffffffffffff1673ffffffffffffffffffffffffffffffffffffffff1663b9cfe2a86040518163ffffffff1660e01b8152600401602060405180830381865afa158015611bcb573d6000803e3d6000fd5b505050506040513d601f19601f82011682018060405250810190611bef91906135a4565b73ffffffffffffffffffffffffffffffffffffffff1663a9059cbb611c1387610be9565b836040518363ffffffff1660e01b8152600401611c319291906135d1565b6020604051808303816000875af1158015611c50573d6000803e3d6000fd5b505050506040513d601f19601f82011682018060405250810190611c7491906138d3565b505b847f58cdd6882638679eb700bfacbbdd8c9ef343effa64a4846e35c97bb5e3db41664286604051611ca8929190613aa3565b60405180910390a280925050509392505050565b600073ffffffffffffffffffffffffffffffffffffffff168273ffffffffffffffffffffffffffffffffffffffff1603611d2d57816040517f5b08ba18000000000000000000000000000000000000000000000000000000008152600401611d249190613048565b60405180910390fd5b80600560008573ffffffffffffffffffffffffffffffffffffffff1673ffffffffffffffffffffffffffffffffffffffff16815260200190815260200160002060008473ffffffffffffffffffffffffffffffffffffffff1673ffffffffffffffffffffffffffffffffffffffff16815260200190815260200160002060006101000a81548160ff0219169083151502179055508173ffffffffffffffffffffffffffffffffffffffff168373ffffffffffffffffffffffffffffffffffffffff167f17307eab39ab6107e8899845ad3d59bd9653f200f220920489ca2b5937696c3183604051611e1e9190612ed7565b60405180910390a3505050565b60008373ffffffffffffffffffffffffffffffffffffffff163b1115611fdc578273ffffffffffffffffffffffffffffffffffffffff1663150b7a02611e6f6113eb565b8685856040518563ffffffff1660e01b8152600401611e919493929190613b21565b6020604051808303816000875af1925050508015611ecd57506040513d601f19601f82011682018060405250810190611eca9190613b82565b60015b611f51573d8060008114611efd576040519150601f19603f3d011682016040523d82523d6000602084013e611f02565b606091505b506000815103611f4957836040517f64a0ae92000000000000000000000000000000000000000000000000000000008152600401611f409190613048565b60405180910390fd5b805181602001fd5b63150b7a0260e01b7bffffffffffffffffffffffffffffffffffffffffffffffffffffffff1916817bffffffffffffffffffffffffffffffffffffffffffffffffffffffff191614611fda57836040517f64a0ae92000000000000000000000000000000000000000000000000000000008152600401611fd19190613048565b60405180910390fd5b505b50505050565b606060405180602001604052806000815250905090565b606060006001612008846125c1565b01905060008167ffffffffffffffff811115612027576120266132c7565b5b6040519080825280601f01601f1916602001820160405280156120595781602001600182028036833780820191505090505b509050600082602001820190505b6001156120bc578080600190039150507f3031323334353637383961626364656600000000000000000000000000000000600a86061a8153600a85816120b0576120af6136c0565b5b04945060008503612067575b819350505050919050565b60007f80ac58cd000000000000000000000000000000000000000000000000000000007bffffffffffffffffffffffffffffffffffffffffffffffffffffffff1916827bffffffffffffffffffffffffffffffffffffffffffffffffffffffff1916148061219257507f5b5e139f000000000000000000000000000000000000000000000000000000007bffffffffffffffffffffffffffffffffffffffffffffffffffffffff1916827bffffffffffffffffffffffffffffffffffffffffffffffffffffffff1916145b806121a257506121a182612714565b5b9050919050565b60006002600083815260200190815260200160002060009054906101000a900473ffffffffffffffffffffffffffffffffffffffff169050919050565b808061221f5750600073ffffffffffffffffffffffffffffffffffffffff168273ffffffffffffffffffffffffffffffffffffffff1614155b1561235357600061222f84611326565b9050600073ffffffffffffffffffffffffffffffffffffffff168373ffffffffffffffffffffffffffffffffffffffff161415801561229a57508273ffffffffffffffffffffffffffffffffffffffff168173ffffffffffffffffffffffffffffffffffffffff1614155b80156122ad57506122ab8184611218565b155b156122ef57826040517fa9fbf51f0000000000000000000000000000000000000000000000000000000081526004016122e69190613048565b60405180910390fd5b811561235157838573ffffffffffffffffffffffffffffffffffffffff168273ffffffffffffffffffffffffffffffffffffffff167f8c5be1e5ebec7d5bd14f71427d1e84f3dd0314c0f7b2291e5b200ac8c7c3b92560405160405180910390a45b505b836004600085815260200190815260200160002060006101000a81548173ffffffffffffffffffffffffffffffffffffffff021916908373ffffffffffffffffffffffffffffffffffffffff16021790555050505050565b6000806123b985858561277e565b9050600073ffffffffffffffffffffffffffffffffffffffff168173ffffffffffffffffffffffffffffffffffffffff16036123fd576123f884612998565b61243c565b8473ffffffffffffffffffffffffffffffffffffffff168173ffffffffffffffffffffffffffffffffffffffff161461243b5761243a81856129e1565b5b5b600073ffffffffffffffffffffffffffffffffffffffff168573ffffffffffffffffffffffffffffffffffffffff160361247e5761247984612b42565b6124bd565b8473ffffffffffffffffffffffffffffffffffffffff168173ffffffffffffffffffffffffffffffffffffffff16146124bc576124bb8585612c13565b5b5b809150509392505050565b600073ffffffffffffffffffffffffffffffffffffffff168273ffffffffffffffffffffffffffffffffffffffff160361253a5760006040517f64a0ae920000000000000000000000000000000000000000000000000000000081526004016125319190613048565b60405180910390fd5b600061254883836000611405565b9050600073ffffffffffffffffffffffffffffffffffffffff168173ffffffffffffffffffffffffffffffffffffffff16146125bc5760006040517f73c6ac6e0000000000000000000000000000000000000000000000000000000081526004016125b39190613048565b60405180910390fd5b505050565b600080600090507a184f03e93ff9f4daa797ed6e38ed64bf6a1f010000000000000000831061261f577a184f03e93ff9f4daa797ed6e38ed64bf6a1f0100000000000000008381612615576126146136c0565b5b0492506040810190505b6d04ee2d6d415b85acef8100000000831061265c576d04ee2d6d415b85acef81000000008381612652576126516136c0565b5b0492506020810190505b662386f26fc10000831061268b57662386f26fc100008381612681576126806136c0565b5b0492506010810190505b6305f5e10083106126b4576305f5e10083816126aa576126a96136c0565b5b0492506008810190505b61271083106126d95761271083816126cf576126ce6136c0565b5b0492506004810190505b606483106126fc57606483816126f2576126f16136c0565b5b0492506002810190505b600a831061270b576001810190505b80915050919050565b60007f01ffc9a7000000000000000000000000000000000000000000000000000000007bffffffffffffffffffffffffffffffffffffffffffffffffffffffff1916827bffffffffffffffffffffffffffffffffffffffffffffffffffffffff1916149050919050565b60008061278a846121a9565b9050600073ffffffffffffffffffffffffffffffffffffffff168373ffffffffffffffffffffffffffffffffffffffff16146127cc576127cb818486612c9e565b5b600073ffffffffffffffffffffffffffffffffffffffff168173ffffffffffffffffffffffffffffffffffffffff161461285d5761280e6000856000806121e6565b6001600360008373ffffffffffffffffffffffffffffffffffffffff1673ffffffffffffffffffffffffffffffffffffffff168152602001908152602001600020600082825403925050819055505b600073ffffffffffffffffffffffffffffffffffffffff168573ffffffffffffffffffffffffffffffffffffffff16146128e0576001600360008773ffffffffffffffffffffffffffffffffffffffff1673ffffffffffffffffffffffffffffffffffffffff168152602001908152602001600020600082825401925050819055505b846002600086815260200190815260200160002060006101000a81548173ffffffffffffffffffffffffffffffffffffffff021916908373ffffffffffffffffffffffffffffffffffffffff160217905550838573ffffffffffffffffffffffffffffffffffffffff168273ffffffffffffffffffffffffffffffffffffffff167fddf252ad1be2c89b69c2b068fc378daa952ba7f163c4a11628f55a4df523b3ef60405160405180910390a4809150509392505050565b6008805490506009600083815260200190815260200160002081905550600881908060018154018082558091505060019003906000526020600020016000909190919091505550565b60006129ec83610bfb565b9050600060076000848152602001908152602001600020549050818114612ad1576000600660008673ffffffffffffffffffffffffffffffffffffffff1673ffffffffffffffffffffffffffffffffffffffff168152602001908152602001600020600084815260200190815260200160002054905080600660008773ffffffffffffffffffffffffffffffffffffffff1673ffffffffffffffffffffffffffffffffffffffff168152602001908152602001600020600084815260200190815260200160002081905550816007600083815260200190815260200160002081905550505b6007600084815260200190815260200160002060009055600660008573ffffffffffffffffffffffffffffffffffffffff1673ffffffffffffffffffffffffffffffffffffffff16815260200190815260200160002060008381526020019081526020016000206000905550505050565b60006001600880549050612b569190613a6f565b9050600060096000848152602001908152602001600020549050600060088381548110612b8657612b8561378c565b5b906000526020600020015490508060088381548110612ba857612ba761378c565b5b906000526020600020018190555081600960008381526020019081526020016000208190555060096000858152602001908152602001600020600090556008805480612bf757612bf6613baf565b5b6001900381819060005260206000200160009055905550505050565b60006001612c2084610bfb565b612c2a9190613a6f565b905081600660008573ffffffffffffffffffffffffffffffffffffffff1673ffffffffffffffffffffffffffffffffffffffff168152602001908152602001600020600083815260200190815260200160002081905550806007600084815260200190815260200160002081905550505050565b612ca9838383612d62565b612d5d57600073ffffffffffffffffffffffffffffffffffffffff168373ffffffffffffffffffffffffffffffffffffffff1603612d1e57806040517f7e273289000000000000000000000000000000000000000000000000000000008152600401612d1591906130de565b60405180910390fd5b81816040517f177e802f000000000000000000000000000000000000000000000000000000008152600401612d549291906135d1565b60405180910390fd5b505050565b60008073ffffffffffffffffffffffffffffffffffffffff168373ffffffffffffffffffffffffffffffffffffffff1614158015612e1a57508273ffffffffffffffffffffffffffffffffffffffff168473ffffffffffffffffffffffffffffffffffffffff161480612ddb5750612dda8484611218565b5b80612e1957508273ffffffffffffffffffffffffffffffffffffffff16612e01836113ae565b73ffffffffffffffffffffffffffffffffffffffff16145b5b90509392505050565b6000604051905090565b600080fd5b600080fd5b60007fffffffff0000000000000000000000000000000000000000000000000000000082169050919050565b612e6c81612e37565b8114612e7757600080fd5b50565b600081359050612e8981612e63565b92915050565b600060208284031215612ea557612ea4612e2d565b5b6000612eb384828501612e7a565b91505092915050565b60008115159050919050565b612ed181612ebc565b82525050565b6000602082019050612eec6000830184612ec8565b92915050565b600081519050919050565b600082825260208201905092915050565b60005b83811015612f2c578082015181840152602081019050612f11565b60008484015250505050565b6000601f19601f8301169050919050565b6000612f5482612ef2565b612f5e8185612efd565b9350612f6e818560208601612f0e565b612f7781612f38565b840191505092915050565b60006020820190508181036000830152612f9c8184612f49565b905092915050565b6000819050919050565b612fb781612fa4565b8114612fc257600080fd5b50565b600081359050612fd481612fae565b92915050565b600060208284031215612ff057612fef612e2d565b5b6000612ffe84828501612fc5565b91505092915050565b600073ffffffffffffffffffffffffffffffffffffffff82169050919050565b600061303282613007565b9050919050565b61304281613027565b82525050565b600060208201905061305d6000830184613039565b92915050565b61306c81613027565b811461307757600080fd5b50565b60008135905061308981613063565b92915050565b600080604083850312156130a6576130a5612e2d565b5b60006130b48582860161307a565b92505060206130c585828601612fc5565b9150509250929050565b6130d881612fa4565b82525050565b60006020820190506130f360008301846130cf565b92915050565b600060808201905061310e60008301876130cf565b61311b60208301866130cf565b61312860408301856130cf565b61313560608301846130cf565b95945050505050565b60008060006060848603121561315757613156612e2d565b5b60006131658682870161307a565b93505060206131768682870161307a565b925050604061318786828701612fc5565b9150509250925092565b6000602082840312156131a7576131a6612e2d565b5b60006131b58482850161307a565b91505092915050565b600080604083850312156131d5576131d4612e2d565b5b60006131e385828601612fc5565b92505060206131f485828601612fc5565b9150509250929050565b60008060006060848603121561321757613216612e2d565b5b60006132258682870161307a565b935050602061323686828701612fc5565b925050604061324786828701612fc5565b9150509250925092565b61325a81612ebc565b811461326557600080fd5b50565b60008135905061327781613251565b92915050565b6000806040838503121561329457613293612e2d565b5b60006132a28582860161307a565b92505060206132b385828601613268565b9150509250929050565b600080fd5b600080fd5b7f4e487b7100000000000000000000000000000000000000000000000000000000600052604160045260246000fd5b6132ff82612f38565b810181811067ffffffffffffffff8211171561331e5761331d6132c7565b5b80604052505050565b6000613331612e23565b905061333d82826132f6565b919050565b600067ffffffffffffffff82111561335d5761335c6132c7565b5b61336682612f38565b9050602081019050919050565b82818337600083830152505050565b600061339561339084613342565b613327565b9050828152602081018484840111156133b1576133b06132c2565b5b6133bc848285613373565b509392505050565b600082601f8301126133d9576133d86132bd565b5b81356133e9848260208601613382565b91505092915050565b6000806000806080858703121561340c5761340b612e2d565b5b600061341a8782880161307a565b945050602061342b8782880161307a565b935050604061343c87828801612fc5565b925050606085013567ffffffffffffffff81111561345d5761345c612e32565b5b613469878288016133c4565b91505092959194509250565b6000819050919050565b600061349a61349561349084613007565b613475565b613007565b9050919050565b60006134ac8261347f565b9050919050565b60006134be826134a1565b9050919050565b6134ce816134b3565b82525050565b60006020820190506134e960008301846134c5565b92915050565b6000806040838503121561350657613505612e2d565b5b60006135148582860161307a565b92505060206135258582860161307a565b9150509250929050565b7f4e487b7100000000000000000000000000000000000000000000000000000000600052602260045260246000fd5b6000600282049050600182168061357657607f821691505b6020821081036135895761358861352f565b5b50919050565b60008151905061359e81613063565b92915050565b6000602082840312156135ba576135b9612e2d565b5b60006135c88482850161358f565b91505092915050565b60006040820190506135e66000830185613039565b6135f360208301846130cf565b9392505050565b60008151905061360981612fae565b92915050565b6000806040838503121561362657613625612e2d565b5b6000613634858286016135fa565b9250506020613645858286016135fa565b9150509250929050565b7f4e487b7100000000000000000000000000000000000000000000000000000000600052601160045260246000fd5b600061368982612fa4565b915061369483612fa4565b92508282026136a281612fa4565b915082820484148315176136b9576136b861364f565b5b5092915050565b7f4e487b7100000000000000000000000000000000000000000000000000000000600052601260045260246000fd5b60006136fa82612fa4565b915061370583612fa4565b925082613715576137146136c0565b5b828204905092915050565b7f696e76616c6964206e6674496400000000000000000000000000000000000000600082015250565b6000613756600d83612efd565b915061376182613720565b602082019050919050565b6000602082019050818103600083015261378581613749565b9050919050565b7f4e487b7100000000000000000000000000000000000000000000000000000000600052603260045260246000fd5b60006060820190506137d06000830186613039565b6137dd60208301856130cf565b6137ea6040830184613039565b949350505050565b7f696e76616c69642064656c656761746f72000000000000000000000000000000600082015250565b6000613828601183612efd565b9150613833826137f2565b602082019050919050565b600060208201905081810360008301526138578161381b565b9050919050565b600081905092915050565b600061387482612ef2565b61387e818561385e565b935061388e818560208601612f0e565b80840191505092915050565b60006138a68285613869565b91506138b28284613869565b91508190509392505050565b6000815190506138cd81613251565b92915050565b6000602082840312156138e9576138e8612e2d565b5b60006138f7848285016138be565b91505092915050565b7f696e76616c696420616d6f756e74000000000000000000000000000000000000600082015250565b6000613936600e83612efd565b915061394182613900565b602082019050919050565b6000602082019050818103600083015261396581613929565b9050919050565b60006060820190506139816000830186613039565b61398e6020830185613039565b61399b60408301846130cf565b949350505050565b60006040820190506139b860008301856130cf565b6139c56020830184613039565b9392505050565b60006060820190506139e160008301866130cf565b6139ee60208301856130cf565b6139fb60408301846130cf565b949350505050565b7f696e76616c6964206f776e657200000000000000000000000000000000000000600082015250565b6000613a39600d83612efd565b9150613a4482613a03565b602082019050919050565b60006020820190508181036000830152613a6881613a2c565b9050919050565b6000613a7a82612fa4565b9150613a8583612fa4565b9250828203905081811115613a9d57613a9c61364f565b5b92915050565b6000604082019050613ab860008301856130cf565b613ac560208301846130cf565b9392505050565b600081519050919050565b600082825260208201905092915050565b6000613af382613acc565b613afd8185613ad7565b9350613b0d818560208601612f0e565b613b1681612f38565b840191505092915050565b6000608082019050613b366000830187613039565b613b436020830186613039565b613b5060408301856130cf565b8181036060830152613b628184613ae8565b905095945050505050565b600081519050613b7c81612e63565b92915050565b600060208284031215613b9857613b97612e2d565b5b6000613ba684828501613b6d565b91505092915050565b7f4e487b7100000000000000000000000000000000000000000000000000000000600052603160045260246000fdfea264697066735822122069b504981b113b81ec8d7a425eb53b0da6df919f6363bba94b9381e80342fd6664736f6c63430008140033",
  "linkReferences": {},
  "deployedLinkReferences": {}
}