{
  "_format": "hh-sol-artifact-1",
  "contractName": "ZILNFT",
  "sourceName": "contracts/ZILNFT.sol",
  "abi": [
    {
      "inputs": [
        {
          "internalType": "string",
          "name": "_name",
          "type": "string"
        },
        {
          "internalType": "string",
          "name": "_symbol",
          "type": "string"
        },
        {
          "internalType": "address",
          "name": "_cfg",
          "type": "address"
        }
      ],
      "stateMutability": "nonpayable",
      "type": "constructor"
    },
    {
      "inputs": [],
      "name": "ERC721EnumerableForbiddenBatchMint",
      "type": "error"
    },
    {
      "inputs": [
        {
          "internalType": "address",
          "name": "sender",
          "type": "address"
        },
        {
          "internalType": "uint256",
          "name": "tokenId",
          "type": "uint256"
        },
        {
          "internalType": "address",
          "name": "owner",
          "type": "address"
        }
      ],
      "name": "ERC721IncorrectOwner",
      "type": "error"
    },
    {
      "inputs": [
        {
          "internalType": "address",
          "name": "operator",
          "type": "address"
        },
        {
          "internalType": "uint256",
          "name": "tokenId",
          "type": "uint256"
        }
      ],
      "name": "ERC721InsufficientApproval",
      "type": "error"
    },
    {
      "inputs": [
        {
          "internalType": "address",
          "name": "approver",
          "type": "address"
        }
      ],
      "name": "ERC721InvalidApprover",
      "type": "error"
    },
    {
      "inputs": [
        {
          "internalType": "address",
          "name": "operator",
          "type": "address"
        }
      ],
      "name": "ERC721InvalidOperator",
      "type": "error"
    },
    {
      "inputs": [
        {
          "internalType": "address",
          "name": "owner",
          "type": "address"
        }
      ],
      "name": "ERC721InvalidOwner",
      "type": "error"
    },
    {
      "inputs": [
        {
          "internalType": "address",
          "name": "receiver",
          "type": "address"
        }
      ],
      "name": "ERC721InvalidReceiver",
      "type": "error"
    },
    {
      "inputs": [
        {
          "internalType": "address",
          "name": "sender",
          "type": "address"
        }
      ],
      "name": "ERC721InvalidSender",
      "type": "error"
    },
    {
      "inputs": [
        {
          "internalType": "uint256",
          "name": "tokenId",
          "type": "uint256"
        }
      ],
      "name": "ERC721NonexistentToken",
      "type": "error"
    },
    {
      "inputs": [
        {
          "internalType": "address",
          "name": "owner",
          "type": "address"
        },
        {
          "internalType": "uint256",
          "name": "index",
          "type": "uint256"
        }
      ],
      "name": "ERC721OutOfBoundsIndex",
      "type": "error"
    },
    {
      "anonymous": false,
      "inputs": [
        {
          "indexed": true,
          "internalType": "address",
          "name": "owner",
          "type": "address"
        },
        {
          "indexed": true,
          "internalType": "address",
          "name": "approved",
          "type": "address"
        },
        {
          "indexed": true,
          "internalType": "uint256",
          "name": "tokenId",
          "type": "uint256"
        }
      ],
      "name": "Approval",
      "type": "event"
    },
    {
      "anonymous": false,
      "inputs": [
        {
          "indexed": true,
          "internalType": "address",
          "name": "owner",
          "type": "address"
        },
        {
          "indexed": true,
          "internalType": "address",
          "name": "operator",
          "type": "address"
        },
        {
          "indexed": false,
          "internalType": "bool",
          "name": "approved",
          "type": "bool"
        }
      ],
      "name": "ApprovalForAll",
      "type": "event"
    },
    {
      "anonymous": false,
      "inputs": [
        {
          "indexed": true,
          "internalType": "address",
          "name": "from",
          "type": "address"
        },
        {
          "indexed": true,
          "internalType": "address",
          "name": "to",
          "type": "address"
        },
        {
          "indexed": true,
          "internalType": "uint256",
          "name": "tokenId",
          "type": "uint256"
        }
      ],
      "name": "Transfer",
      "type": "event"
    },
    {
      "inputs": [],
      "name": "CONFIG",
      "outputs": [
        {
          "internalType": "contract Config",
          "name": "",
          "type": "address"
        }
      ],
      "stateMutability": "view",
      "type": "function"
    },
    {
      "inputs": [
        {
          "internalType": "address",
          "name": "to",
          "type": "address"
        },
        {
          "internalType": "uint256",
          "name": "tokenId",
          "type": "uint256"
        }
      ],
      "name": "approve",
      "outputs": [],
      "stateMutability": "nonpayable",
      "type": "function"
    },
    {
      "inputs": [
        {
          "internalType": "address",
          "name": "owner",
          "type": "address"
        }
      ],
      "name": "balanceOf",
      "outputs": [
        {
          "internalType": "uint256",
          "name": "",
          "type": "uint256"
        }
      ],
      "stateMutability": "view",
      "type": "function"
    },
    {
      "inputs": [
        {
          "internalType": "address",
          "name": "user",
          "type": "address"
        },
        {
          "internalType": "uint256",
          "name": "amountToken",
          "type": "uint256"
        }
      ],
      "name": "calcMaxBorrow",
      "outputs": [
        {
          "internalType": "uint256",
          "name": "",
          "type": "uint256"
        }
      ],
      "stateMutability": "view",
      "type": "function"
    },
    {
      "inputs": [
        {
          "internalType": "uint256",
          "name": "tokenId",
          "type": "uint256"
        }
      ],
      "name": "getApproved",
      "outputs": [
        {
          "internalType": "address",
          "name": "",
          "type": "address"
        }
      ],
      "stateMutability": "view",
      "type": "function"
    },
    {
      "inputs": [
        {
          "internalType": "address",
          "name": "owner",
          "type": "address"
        },
        {
          "internalType": "address",
          "name": "operator",
          "type": "address"
        }
      ],
      "name": "isApprovedForAll",
      "outputs": [
        {
          "internalType": "bool",
          "name": "",
          "type": "bool"
        }
      ],
      "stateMutability": "view",
      "type": "function"
    },
    {
      "inputs": [],
      "name": "name",
      "outputs": [
        {
          "internalType": "string",
          "name": "",
          "type": "string"
        }
      ],
      "stateMutability": "view",
      "type": "function"
    },
    {
      "inputs": [
        {
          "internalType": "uint256",
          "name": "nftId",
          "type": "uint256"
        }
      ],
      "name": "nftInfo",
      "outputs": [
        {
          "internalType": "uint256",
          "name": "",
          "type": "uint256"
        },
        {
          "internalType": "uint256",
          "name": "",
          "type": "uint256"
        }
      ],
      "stateMutability": "view",
      "type": "function"
    },
    {
      "inputs": [
        {
          "internalType": "uint256",
          "name": "tokenId",
          "type": "uint256"
        }
      ],
      "name": "ownerOf",
      "outputs": [
        {
          "internalType": "address",
          "name": "",
          "type": "address"
        }
      ],
      "stateMutability": "view",
      "type": "function"
    },
    {
      "inputs": [
        {
          "internalType": "uint256",
          "name": "nftId",
          "type": "uint256"
        },
        {
          "internalType": "uint256",
          "name": "amountCoin",
          "type": "uint256"
        }
      ],
      "name": "payLoan",
      "outputs": [
        {
          "internalType": "uint256",
          "name": "",
          "type": "uint256"
        }
      ],
      "stateMutability": "nonpayable",
      "type": "function"
    },
    {
      "inputs": [
        {
          "internalType": "address",
          "name": "user",
          "type": "address"
        },
        {
          "internalType": "uint256",
          "name": "nftId",
          "type": "uint256"
        },
        {
          "internalType": "uint256",
          "name": "amountCoin",
          "type": "uint256"
        }
      ],
      "name": "payLoanByDelegator",
      "outputs": [
        {
          "internalType": "uint256",
          "name": "",
          "type": "uint256"
        }
      ],
      "stateMutability": "nonpayable",
      "type": "function"
    },
    {
      "inputs": [],
      "name": "reset",
      "outputs": [],
      "stateMutability": "nonpayable",
      "type": "function"
    },
    {
      "inputs": [
        {
          "internalType": "address",
          "name": "from",
          "type": "address"
        },
        {
          "internalType": "address",
          "name": "to",
          "type": "address"
        },
        {
          "internalType": "uint256",
          "name": "tokenId",
          "type": "uint256"
        }
      ],
      "name": "safeTransferFrom",
      "outputs": [],
      "stateMutability": "nonpayable",
      "type": "function"
    },
    {
      "inputs": [
        {
          "internalType": "address",
          "name": "from",
          "type": "address"
        },
        {
          "internalType": "address",
          "name": "to",
          "type": "address"
        },
        {
          "internalType": "uint256",
          "name": "tokenId",
          "type": "uint256"
        },
        {
          "internalType": "bytes",
          "name": "data",
          "type": "bytes"
        }
      ],
      "name": "safeTransferFrom",
      "outputs": [],
      "stateMutability": "nonpayable",
      "type": "function"
    },
    {
      "inputs": [
        {
          "internalType": "address",
          "name": "operator",
          "type": "address"
        },
        {
          "internalType": "bool",
          "name": "approved",
          "type": "bool"
        }
      ],
      "name": "setApprovalForAll",
      "outputs": [],
      "stateMutability": "nonpayable",
      "type": "function"
    },
    {
      "inputs": [
        {
          "internalType": "bytes4",
          "name": "interfaceId",
          "type": "bytes4"
        }
      ],
      "name": "supportsInterface",
      "outputs": [
        {
          "internalType": "bool",
          "name": "",
          "type": "bool"
        }
      ],
      "stateMutability": "view",
      "type": "function"
    },
    {
      "inputs": [],
      "name": "symbol",
      "outputs": [
        {
          "internalType": "string",
          "name": "",
          "type": "string"
        }
      ],
      "stateMutability": "view",
      "type": "function"
    },
    {
      "inputs": [
        {
          "internalType": "uint256",
          "name": "amountToken",
          "type": "uint256"
        }
      ],
      "name": "takeLoan",
      "outputs": [
        {
          "internalType": "uint256",
          "name": "",
          "type": "uint256"
        }
      ],
      "stateMutability": "nonpayable",
      "type": "function"
    },
    {
      "inputs": [
        {
          "internalType": "address",
          "name": "user",
          "type": "address"
        },
        {
          "internalType": "uint256",
          "name": "amountToken",
          "type": "uint256"
        }
      ],
      "name": "takeLoanByDelegator",
      "outputs": [
        {
          "internalType": "uint256",
          "name": "",
          "type": "uint256"
        }
      ],
      "stateMutability": "nonpayable",
      "type": "function"
    },
    {
      "inputs": [
        {
          "internalType": "uint256",
          "name": "index",
          "type": "uint256"
        }
      ],
      "name": "tokenByIndex",
      "outputs": [
        {
          "internalType": "uint256",
          "name": "",
          "type": "uint256"
        }
      ],
      "stateMutability": "view",
      "type": "function"
    },
    {
      "inputs": [
        {
          "internalType": "address",
          "name": "owner",
          "type": "address"
        },
        {
          "internalType": "uint256",
          "name": "index",
          "type": "uint256"
        }
      ],
      "name": "tokenOfOwnerByIndex",
      "outputs": [
        {
          "internalType": "uint256",
          "name": "",
          "type": "uint256"
        }
      ],
      "stateMutability": "view",
      "type": "function"
    },
    {
      "inputs": [
        {
          "internalType": "uint256",
          "name": "tokenId",
          "type": "uint256"
        }
      ],
      "name": "tokenURI",
      "outputs": [
        {
          "internalType": "string",
          "name": "",
          "type": "string"
        }
      ],
      "stateMutability": "view",
      "type": "function"
    },
    {
      "inputs": [],
      "name": "totalSupply",
      "outputs": [
        {
          "internalType": "uint256",
          "name": "",
          "type": "uint256"
        }
      ],
      "stateMutability": "view",
      "type": "function"
    },
    {
      "inputs": [
        {
          "internalType": "address",
          "name": "from",
          "type": "address"
        },
        {
          "internalType": "address",
          "name": "to",
          "type": "address"
        },
        {
          "internalType": "uint256",
          "name": "tokenId",
          "type": "uint256"
        }
      ],
      "name": "transferFrom",
      "outputs": [],
      "stateMutability": "nonpayable",
      "type": "function"
    }
  ],
  "bytecode": "0x60806040523480156200001157600080fd5b5060405162003ec538038062003ec58339818101604052810190620000379190620002f9565b828281600090816200004a9190620005de565b5080600190816200005c9190620005de565b505050600c604051806040016040528060008152602001600081525090806001815401808255809150506001900390600052602060002090600202016000909190919091506000820151816000015560208201518160010155505080600a60006101000a81548173ffffffffffffffffffffffffffffffffffffffff021916908373ffffffffffffffffffffffffffffffffffffffff160217905550505050620006c5565b6000604051905090565b600080fd5b600080fd5b600080fd5b600080fd5b6000601f19601f8301169050919050565b7f4e487b7100000000000000000000000000000000000000000000000000000000600052604160045260246000fd5b6200016a826200011f565b810181811067ffffffffffffffff821117156200018c576200018b62000130565b5b80604052505050565b6000620001a162000101565b9050620001af82826200015f565b919050565b600067ffffffffffffffff821115620001d257620001d162000130565b5b620001dd826200011f565b9050602081019050919050565b60005b838110156200020a578082015181840152602081019050620001ed565b60008484015250505050565b60006200022d6200022784620001b4565b62000195565b9050828152602081018484840111156200024c576200024b6200011a565b5b62000259848285620001ea565b509392505050565b600082601f83011262000279576200027862000115565b5b81516200028b84826020860162000216565b91505092915050565b600073ffffffffffffffffffffffffffffffffffffffff82169050919050565b6000620002c18262000294565b9050919050565b620002d381620002b4565b8114620002df57600080fd5b50565b600081519050620002f381620002c8565b92915050565b6000806000606084860312156200031557620003146200010b565b5b600084015167ffffffffffffffff81111562000336576200033562000110565b5b620003448682870162000261565b935050602084015167ffffffffffffffff81111562000368576200036762000110565b5b620003768682870162000261565b92505060406200038986828701620002e2565b9150509250925092565b600081519050919050565b7f4e487b7100000000000000000000000000000000000000000000000000000000600052602260045260246000fd5b60006002820490506001821680620003e657607f821691505b602082108103620003fc57620003fb6200039e565b5b50919050565b60008190508160005260206000209050919050565b60006020601f8301049050919050565b600082821b905092915050565b600060088302620004667fffffffffffffffffffffffffffffffffffffffffffffffffffffffffffffffff8262000427565b62000472868362000427565b95508019841693508086168417925050509392505050565b6000819050919050565b6000819050919050565b6000620004bf620004b9620004b3846200048a565b62000494565b6200048a565b9050919050565b6000819050919050565b620004db836200049e565b620004f3620004ea82620004c6565b84845462000434565b825550505050565b600090565b6200050a620004fb565b62000517818484620004d0565b505050565b5b818110156200053f576200053360008262000500565b6001810190506200051d565b5050565b601f8211156200058e57620005588162000402565b620005638462000417565b8101602085101562000573578190505b6200058b620005828562000417565b8301826200051c565b50505b505050565b600082821c905092915050565b6000620005b36000198460080262000593565b1980831691505092915050565b6000620005ce8383620005a0565b9150826002028217905092915050565b620005e98262000393565b67ffffffffffffffff81111562000605576200060462000130565b5b620006118254620003cd565b6200061e82828562000543565b600060209050601f83116001811462000656576000841562000641578287015190505b6200064d8582620005c0565b865550620006bd565b601f198416620006668662000402565b60005b82811015620006905784890151825560018201915060208501945060208101905062000669565b86831015620006b05784890151620006ac601f891682620005a0565b8355505b6001600288020188555050505b505050505050565b6137f080620006d56000396000f3fe608060405234801561001057600080fd5b50600436106101585760003560e01c806370a08231116100c3578063a22cb4651161007c578063a22cb4651461044c578063b88d4fde14610468578063c87b56dd14610484578063d826f88f146104b4578063d92e82e4146104be578063e985e9c5146104dc57610158565b806370a082311461033e57806385ca1c431461036e57806389306e611461039e5780638c803fc2146103ce5780638eba1ea7146103fe57806395d89b411461042e57610158565b80631f8bc790116101155780631f8bc7901461024557806323b872dd146102765780632f745c591461029257806342842e0e146102c25780634f6ccce7146102de5780636352211e1461030e57610158565b806301ffc9a71461015d578063026ea49e1461018d57806306fdde03146101bd578063081812fc146101db578063095ea7b31461020b57806318160ddd14610227575b600080fd5b61017760048036038101906101729190612b53565b61050c565b6040516101849190612b9b565b60405180910390f35b6101a760048036038101906101a29190612c4a565b61051e565b6040516101b49190612c99565b60405180910390f35b6101c5610651565b6040516101d29190612d44565b60405180910390f35b6101f560048036038101906101f09190612d66565b6106e3565b6040516102029190612da2565b60405180910390f35b61022560048036038101906102209190612c4a565b6106ff565b005b61022f610715565b60405161023c9190612c99565b60405180910390f35b61025f600480360381019061025a9190612d66565b610722565b60405161026d929190612dbd565b60405180910390f35b610290600480360381019061028b9190612de6565b61076f565b005b6102ac60048036038101906102a79190612c4a565b610871565b6040516102b99190612c99565b60405180910390f35b6102dc60048036038101906102d79190612de6565b61091a565b005b6102f860048036038101906102f39190612d66565b61093a565b6040516103059190612c99565b60405180910390f35b61032860048036038101906103239190612d66565b6109b0565b6040516103359190612da2565b60405180910390f35b61035860048036038101906103539190612e39565b6109c2565b6040516103659190612c99565b60405180910390f35b61038860048036038101906103839190612c4a565b610a7c565b6040516103959190612c99565b60405180910390f35b6103b860048036038101906103b39190612e66565b610b8e565b6040516103c59190612c99565b60405180910390f35b6103e860048036038101906103e39190612d66565b610ba3565b6040516103f59190612c99565b60405180910390f35b61041860048036038101906104139190612ea6565b610bb6565b6040516104259190612c99565b60405180910390f35b610436610cca565b6040516104439190612d44565b60405180910390f35b61046660048036038101906104619190612f25565b610d5c565b005b610482600480360381019061047d919061309a565b610d72565b005b61049e60048036038101906104999190612d66565b610d8f565b6040516104ab9190612d44565b60405180910390f35b6104bc610df8565b005b6104c6610fb9565b6040516104d3919061317c565b60405180910390f35b6104f660048036038101906104f19190613197565b610fdf565b6040516105039190612b9b565b60405180910390f35b600061051782611073565b9050919050565b600080600a60009054906101000a900473ffffffffffffffffffffffffffffffffffffffff1673ffffffffffffffffffffffffffffffffffffffff1663eecccaab6040518163ffffffff1660e01b8152600401602060405180830381865afa15801561058e573d6000803e3d6000fd5b505050506040513d601f19601f820116820180604052508101906105b291906131ec565b73ffffffffffffffffffffffffffffffffffffffff16636b6c041e85856040518363ffffffff1660e01b81526004016105ec929190613219565b6040805180830381865afa158015610608573d6000803e3d6000fd5b505050506040513d601f19601f8201168201806040525081019061062c9190613257565b5090506064605f8261063e91906132c6565b6106489190613337565b91505092915050565b60606000805461066090613397565b80601f016020809104026020016040519081016040528092919081815260200182805461068c90613397565b80156106d95780601f106106ae576101008083540402835291602001916106d9565b820191906000526020600020905b8154815290600101906020018083116106bc57829003601f168201915b5050505050905090565b60006106ee826110ed565b506106f882611175565b9050919050565b610711828261070c6111b2565b6111ba565b5050565b6000600880549050905090565b6000806000600b6000858152602001908152602001600020604051806040016040529081600082015481526020016001820154815250509050806000015181602001519250925050915091565b600073ffffffffffffffffffffffffffffffffffffffff168273ffffffffffffffffffffffffffffffffffffffff16036107e15760006040517f64a0ae920000000000000000000000000000000000000000000000000000000081526004016107d89190612da2565b60405180910390fd5b60006107f583836107f06111b2565b6111cc565b90508373ffffffffffffffffffffffffffffffffffffffff168173ffffffffffffffffffffffffffffffffffffffff161461086b578382826040517f64283d7b000000000000000000000000000000000000000000000000000000008152600401610862939291906133c8565b60405180910390fd5b50505050565b600061087c836109c2565b82106108c15782826040517fa57d13dc0000000000000000000000000000000000000000000000000000000081526004016108b8929190613219565b60405180910390fd5b600660008473ffffffffffffffffffffffffffffffffffffffff1673ffffffffffffffffffffffffffffffffffffffff168152602001908152602001600020600083815260200190815260200160002054905092915050565b61093583838360405180602001604052806000815250610d72565b505050565b6000610944610715565b821061098a576000826040517fa57d13dc000000000000000000000000000000000000000000000000000000008152600401610981929190613219565b60405180910390fd5b6008828154811061099e5761099d6133ff565b5b90600052602060002001549050919050565b60006109bb826110ed565b9050919050565b60008073ffffffffffffffffffffffffffffffffffffffff168273ffffffffffffffffffffffffffffffffffffffff1603610a355760006040517f89c62b64000000000000000000000000000000000000000000000000000000008152600401610a2c9190612da2565b60405180910390fd5b600360008373ffffffffffffffffffffffffffffffffffffffff1673ffffffffffffffffffffffffffffffffffffffff168152602001908152602001600020549050919050565b6000600a60009054906101000a900473ffffffffffffffffffffffffffffffffffffffff1673ffffffffffffffffffffffffffffffffffffffff1663248804d86040518163ffffffff1660e01b8152600401602060405180830381865afa158015610aeb573d6000803e3d6000fd5b505050506040513d601f19601f82011682018060405250810190610b0f91906131ec565b73ffffffffffffffffffffffffffffffffffffffff163373ffffffffffffffffffffffffffffffffffffffff1614610b7c576040517f08c379a0000000000000000000000000000000000000000000000000000000008152600401610b739061347a565b60405180910390fd5b610b8683836111e2565b905092915050565b6000610b9b3384846114b7565b905092915050565b6000610baf33836111e2565b9050919050565b6000600a60009054906101000a900473ffffffffffffffffffffffffffffffffffffffff1673ffffffffffffffffffffffffffffffffffffffff1663248804d86040518163ffffffff1660e01b8152600401602060405180830381865afa158015610c25573d6000803e3d6000fd5b505050506040513d601f19601f82011682018060405250810190610c4991906131ec565b73ffffffffffffffffffffffffffffffffffffffff163373ffffffffffffffffffffffffffffffffffffffff1614610cb6576040517f08c379a0000000000000000000000000000000000000000000000000000000008152600401610cad9061347a565b60405180910390fd5b610cc18484846114b7565b90509392505050565b606060018054610cd990613397565b80601f0160208091040260200160405190810160405280929190818152602001828054610d0590613397565b8015610d525780601f10610d2757610100808354040283529160200191610d52565b820191906000526020600020905b815481529060010190602001808311610d3557829003601f168201915b5050505050905090565b610d6e610d676111b2565b8383611980565b5050565b610d7d84848461076f565b610d8984848484611aef565b50505050565b6060610d9a826110ed565b506000610da5611ca6565b90506000815111610dc55760405180602001604052806000815250610df0565b80610dcf84611cbd565b604051602001610de09291906134d6565b6040516020818303038152906040525b915050919050565b600a60009054906101000a900473ffffffffffffffffffffffffffffffffffffffff1673ffffffffffffffffffffffffffffffffffffffff1663165310c56040518163ffffffff1660e01b8152600401602060405180830381865afa158015610e65573d6000803e3d6000fd5b505050506040513d601f19601f82011682018060405250810190610e8991906131ec565b73ffffffffffffffffffffffffffffffffffffffff1663095ea7b3600a60009054906101000a900473ffffffffffffffffffffffffffffffffffffffff1673ffffffffffffffffffffffffffffffffffffffff1663eecccaab6040518163ffffffff1660e01b8152600401602060405180830381865afa158015610f11573d6000803e3d6000fd5b505050506040513d601f19601f82011682018060405250810190610f3591906131ec565b7fffffffffffffffffffffffffffffffffffffffffffffffffffffffffffffffff6040518363ffffffff1660e01b8152600401610f73929190613219565b6020604051808303816000875af1158015610f92573d6000803e3d6000fd5b505050506040513d601f19601f82011682018060405250810190610fb6919061350f565b50565b600a60009054906101000a900473ffffffffffffffffffffffffffffffffffffffff1681565b6000600560008473ffffffffffffffffffffffffffffffffffffffff1673ffffffffffffffffffffffffffffffffffffffff16815260200190815260200160002060008373ffffffffffffffffffffffffffffffffffffffff1673ffffffffffffffffffffffffffffffffffffffff16815260200190815260200160002060009054906101000a900460ff16905092915050565b60007f780e9d63000000000000000000000000000000000000000000000000000000007bffffffffffffffffffffffffffffffffffffffffffffffffffffffff1916827bffffffffffffffffffffffffffffffffffffffffffffffffffffffff191614806110e657506110e582611d8b565b5b9050919050565b6000806110f983611e6d565b9050600073ffffffffffffffffffffffffffffffffffffffff168173ffffffffffffffffffffffffffffffffffffffff160361116c57826040517f7e2732890000000000000000000000000000000000000000000000000000000081526004016111639190612c99565b60405180910390fd5b80915050919050565b60006004600083815260200190815260200160002060009054906101000a900473ffffffffffffffffffffffffffffffffffffffff169050919050565b600033905090565b6111c78383836001611eaa565b505050565b60006111d984848461206f565b90509392505050565b6000808211611226576040517f08c379a000000000000000000000000000000000000000000000000000000000815260040161121d90613588565b60405180910390fd5b600a60009054906101000a900473ffffffffffffffffffffffffffffffffffffffff1673ffffffffffffffffffffffffffffffffffffffff1663b9cfe2a86040518163ffffffff1660e01b8152600401602060405180830381865afa158015611293573d6000803e3d6000fd5b505050506040513d601f19601f820116820180604052508101906112b791906131ec565b73ffffffffffffffffffffffffffffffffffffffff166323b872dd8430856040518463ffffffff1660e01b81526004016112f3939291906135a8565b6020604051808303816000875af1158015611312573d6000803e3d6000fd5b505050506040513d601f19601f82011682018060405250810190611336919061350f565b506000611343848461051e565b90506000600c805490509050600c6040518060400160405280868152602001848152509080600181540180825580915050600190039060005260206000209060020201600090919091909150600082015181600001556020820151816001015550506113af858261218c565b600a60009054906101000a900473ffffffffffffffffffffffffffffffffffffffff1673ffffffffffffffffffffffffffffffffffffffff1663eecccaab6040518163ffffffff1660e01b8152600401602060405180830381865afa15801561141c573d6000803e3d6000fd5b505050506040513d601f19601f8201168201806040525081019061144091906131ec565b73ffffffffffffffffffffffffffffffffffffffff166394fb89ab83876040518363ffffffff1660e01b815260040161147a9291906135df565b600060405180830381600087803b15801561149457600080fd5b505af11580156114a8573d6000803e3d6000fd5b50505050819250505092915050565b60006114c2836109b0565b73ffffffffffffffffffffffffffffffffffffffff168473ffffffffffffffffffffffffffffffffffffffff161461152f576040517f08c379a000000000000000000000000000000000000000000000000000000000815260040161152690613654565b60405180910390fd5b6000600b6000858152602001908152602001600020604051806040016040529081600082015481526020016001820154815250509050600083118015611579575080602001518311155b6115b8576040517f08c379a00000000000000000000000000000000000000000000000000000000081526004016115af90613588565b60405180910390fd5b600a60009054906101000a900473ffffffffffffffffffffffffffffffffffffffff1673ffffffffffffffffffffffffffffffffffffffff1663165310c56040518163ffffffff1660e01b8152600401602060405180830381865afa158015611625573d6000803e3d6000fd5b505050506040513d601f19601f8201168201806040525081019061164991906131ec565b73ffffffffffffffffffffffffffffffffffffffff166323b872dd61166d866109b0565b30866040518463ffffffff1660e01b815260040161168d939291906135a8565b6020604051808303816000875af11580156116ac573d6000803e3d6000fd5b505050506040513d601f19601f820116820180604052508101906116d0919061350f565b5082600b6000868152602001908152602001600020600101546116f39190613674565b600b600086815260200190815260200160002060010181905550600a60009054906101000a900473ffffffffffffffffffffffffffffffffffffffff1673ffffffffffffffffffffffffffffffffffffffff1663eecccaab6040518163ffffffff1660e01b8152600401602060405180830381865afa15801561177a573d6000803e3d6000fd5b505050506040513d601f19601f8201168201806040525081019061179e91906131ec565b73ffffffffffffffffffffffffffffffffffffffff166344e02dbc846040518263ffffffff1660e01b81526004016117d69190612c99565b600060405180830381600087803b1580156117f057600080fd5b505af1158015611804573d6000803e3d6000fd5b50505050600080600b6000878152602001908152602001600020600101540361197457600b60008681526020019081526020016000206000015490506000600b600087815260200190815260200160002060000181905550600a60009054906101000a900473ffffffffffffffffffffffffffffffffffffffff1673ffffffffffffffffffffffffffffffffffffffff1663b9cfe2a86040518163ffffffff1660e01b8152600401602060405180830381865afa1580156118c9573d6000803e3d6000fd5b505050506040513d601f19601f820116820180604052508101906118ed91906131ec565b73ffffffffffffffffffffffffffffffffffffffff1663a9059cbb611911876109b0565b836040518363ffffffff1660e01b815260040161192f929190613219565b6020604051808303816000875af115801561194e573d6000803e3d6000fd5b505050506040513d601f19601f82011682018060405250810190611972919061350f565b505b80925050509392505050565b600073ffffffffffffffffffffffffffffffffffffffff168273ffffffffffffffffffffffffffffffffffffffff16036119f157816040517f5b08ba180000000000000000000000000000000000000000000000000000000081526004016119e89190612da2565b60405180910390fd5b80600560008573ffffffffffffffffffffffffffffffffffffffff1673ffffffffffffffffffffffffffffffffffffffff16815260200190815260200160002060008473ffffffffffffffffffffffffffffffffffffffff1673ffffffffffffffffffffffffffffffffffffffff16815260200190815260200160002060006101000a81548160ff0219169083151502179055508173ffffffffffffffffffffffffffffffffffffffff168373ffffffffffffffffffffffffffffffffffffffff167f17307eab39ab6107e8899845ad3d59bd9653f200f220920489ca2b5937696c3183604051611ae29190612b9b565b60405180910390a3505050565b60008373ffffffffffffffffffffffffffffffffffffffff163b1115611ca0578273ffffffffffffffffffffffffffffffffffffffff1663150b7a02611b336111b2565b8685856040518563ffffffff1660e01b8152600401611b5594939291906136fd565b6020604051808303816000875af1925050508015611b9157506040513d601f19601f82011682018060405250810190611b8e919061375e565b60015b611c15573d8060008114611bc1576040519150601f19603f3d011682016040523d82523d6000602084013e611bc6565b606091505b506000815103611c0d57836040517f64a0ae92000000000000000000000000000000000000000000000000000000008152600401611c049190612da2565b60405180910390fd5b805181602001fd5b63150b7a0260e01b7bffffffffffffffffffffffffffffffffffffffffffffffffffffffff1916817bffffffffffffffffffffffffffffffffffffffffffffffffffffffff191614611c9e57836040517f64a0ae92000000000000000000000000000000000000000000000000000000008152600401611c959190612da2565b60405180910390fd5b505b50505050565b606060405180602001604052806000815250905090565b606060006001611ccc84612285565b01905060008167ffffffffffffffff811115611ceb57611cea612f6f565b5b6040519080825280601f01601f191660200182016040528015611d1d5781602001600182028036833780820191505090505b509050600082602001820190505b600115611d80578080600190039150507f3031323334353637383961626364656600000000000000000000000000000000600a86061a8153600a8581611d7457611d73613308565b5b04945060008503611d2b575b819350505050919050565b60007f80ac58cd000000000000000000000000000000000000000000000000000000007bffffffffffffffffffffffffffffffffffffffffffffffffffffffff1916827bffffffffffffffffffffffffffffffffffffffffffffffffffffffff19161480611e5657507f5b5e139f000000000000000000000000000000000000000000000000000000007bffffffffffffffffffffffffffffffffffffffffffffffffffffffff1916827bffffffffffffffffffffffffffffffffffffffffffffffffffffffff1916145b80611e665750611e65826123d8565b5b9050919050565b60006002600083815260200190815260200160002060009054906101000a900473ffffffffffffffffffffffffffffffffffffffff169050919050565b8080611ee35750600073ffffffffffffffffffffffffffffffffffffffff168273ffffffffffffffffffffffffffffffffffffffff1614155b15612017576000611ef3846110ed565b9050600073ffffffffffffffffffffffffffffffffffffffff168373ffffffffffffffffffffffffffffffffffffffff1614158015611f5e57508273ffffffffffffffffffffffffffffffffffffffff168173ffffffffffffffffffffffffffffffffffffffff1614155b8015611f715750611f6f8184610fdf565b155b15611fb357826040517fa9fbf51f000000000000000000000000000000000000000000000000000000008152600401611faa9190612da2565b60405180910390fd5b811561201557838573ffffffffffffffffffffffffffffffffffffffff168273ffffffffffffffffffffffffffffffffffffffff167f8c5be1e5ebec7d5bd14f71427d1e84f3dd0314c0f7b2291e5b200ac8c7c3b92560405160405180910390a45b505b836004600085815260200190815260200160002060006101000a81548173ffffffffffffffffffffffffffffffffffffffff021916908373ffffffffffffffffffffffffffffffffffffffff16021790555050505050565b60008061207d858585612442565b9050600073ffffffffffffffffffffffffffffffffffffffff168173ffffffffffffffffffffffffffffffffffffffff16036120c1576120bc8461265c565b612100565b8473ffffffffffffffffffffffffffffffffffffffff168173ffffffffffffffffffffffffffffffffffffffff16146120ff576120fe81856126a5565b5b5b600073ffffffffffffffffffffffffffffffffffffffff168573ffffffffffffffffffffffffffffffffffffffff16036121425761213d84612806565b612181565b8473ffffffffffffffffffffffffffffffffffffffff168173ffffffffffffffffffffffffffffffffffffffff16146121805761217f85856128d7565b5b5b809150509392505050565b600073ffffffffffffffffffffffffffffffffffffffff168273ffffffffffffffffffffffffffffffffffffffff16036121fe5760006040517f64a0ae920000000000000000000000000000000000000000000000000000000081526004016121f59190612da2565b60405180910390fd5b600061220c838360006111cc565b9050600073ffffffffffffffffffffffffffffffffffffffff168173ffffffffffffffffffffffffffffffffffffffff16146122805760006040517f73c6ac6e0000000000000000000000000000000000000000000000000000000081526004016122779190612da2565b60405180910390fd5b505050565b600080600090507a184f03e93ff9f4daa797ed6e38ed64bf6a1f01000000000000000083106122e3577a184f03e93ff9f4daa797ed6e38ed64bf6a1f01000000000000000083816122d9576122d8613308565b5b0492506040810190505b6d04ee2d6d415b85acef81000000008310612320576d04ee2d6d415b85acef8100000000838161231657612315613308565b5b0492506020810190505b662386f26fc10000831061234f57662386f26fc10000838161234557612344613308565b5b0492506010810190505b6305f5e1008310612378576305f5e100838161236e5761236d613308565b5b0492506008810190505b612710831061239d57612710838161239357612392613308565b5b0492506004810190505b606483106123c057606483816123b6576123b5613308565b5b0492506002810190505b600a83106123cf576001810190505b80915050919050565b60007f01ffc9a7000000000000000000000000000000000000000000000000000000007bffffffffffffffffffffffffffffffffffffffffffffffffffffffff1916827bffffffffffffffffffffffffffffffffffffffffffffffffffffffff1916149050919050565b60008061244e84611e6d565b9050600073ffffffffffffffffffffffffffffffffffffffff168373ffffffffffffffffffffffffffffffffffffffff16146124905761248f818486612962565b5b600073ffffffffffffffffffffffffffffffffffffffff168173ffffffffffffffffffffffffffffffffffffffff1614612521576124d2600085600080611eaa565b6001600360008373ffffffffffffffffffffffffffffffffffffffff1673ffffffffffffffffffffffffffffffffffffffff168152602001908152602001600020600082825403925050819055505b600073ffffffffffffffffffffffffffffffffffffffff168573ffffffffffffffffffffffffffffffffffffffff16146125a4576001600360008773ffffffffffffffffffffffffffffffffffffffff1673ffffffffffffffffffffffffffffffffffffffff168152602001908152602001600020600082825401925050819055505b846002600086815260200190815260200160002060006101000a81548173ffffffffffffffffffffffffffffffffffffffff021916908373ffffffffffffffffffffffffffffffffffffffff160217905550838573ffffffffffffffffffffffffffffffffffffffff168273ffffffffffffffffffffffffffffffffffffffff167fddf252ad1be2c89b69c2b068fc378daa952ba7f163c4a11628f55a4df523b3ef60405160405180910390a4809150509392505050565b6008805490506009600083815260200190815260200160002081905550600881908060018154018082558091505060019003906000526020600020016000909190919091505550565b60006126b0836109c2565b9050600060076000848152602001908152602001600020549050818114612795576000600660008673ffffffffffffffffffffffffffffffffffffffff1673ffffffffffffffffffffffffffffffffffffffff168152602001908152602001600020600084815260200190815260200160002054905080600660008773ffffffffffffffffffffffffffffffffffffffff1673ffffffffffffffffffffffffffffffffffffffff168152602001908152602001600020600084815260200190815260200160002081905550816007600083815260200190815260200160002081905550505b6007600084815260200190815260200160002060009055600660008573ffffffffffffffffffffffffffffffffffffffff1673ffffffffffffffffffffffffffffffffffffffff16815260200190815260200160002060008381526020019081526020016000206000905550505050565b6000600160088054905061281a9190613674565b905060006009600084815260200190815260200160002054905060006008838154811061284a576128496133ff565b5b90600052602060002001549050806008838154811061286c5761286b6133ff565b5b9060005260206000200181905550816009600083815260200190815260200160002081905550600960008581526020019081526020016000206000905560088054806128bb576128ba61378b565b5b6001900381819060005260206000200160009055905550505050565b600060016128e4846109c2565b6128ee9190613674565b905081600660008573ffffffffffffffffffffffffffffffffffffffff1673ffffffffffffffffffffffffffffffffffffffff168152602001908152602001600020600083815260200190815260200160002081905550806007600084815260200190815260200160002081905550505050565b61296d838383612a26565b612a2157600073ffffffffffffffffffffffffffffffffffffffff168373ffffffffffffffffffffffffffffffffffffffff16036129e257806040517f7e2732890000000000000000000000000000000000000000000000000000000081526004016129d99190612c99565b60405180910390fd5b81816040517f177e802f000000000000000000000000000000000000000000000000000000008152600401612a18929190613219565b60405180910390fd5b505050565b60008073ffffffffffffffffffffffffffffffffffffffff168373ffffffffffffffffffffffffffffffffffffffff1614158015612ade57508273ffffffffffffffffffffffffffffffffffffffff168473ffffffffffffffffffffffffffffffffffffffff161480612a9f5750612a9e8484610fdf565b5b80612add57508273ffffffffffffffffffffffffffffffffffffffff16612ac583611175565b73ffffffffffffffffffffffffffffffffffffffff16145b5b90509392505050565b6000604051905090565b600080fd5b600080fd5b60007fffffffff0000000000000000000000000000000000000000000000000000000082169050919050565b612b3081612afb565b8114612b3b57600080fd5b50565b600081359050612b4d81612b27565b92915050565b600060208284031215612b6957612b68612af1565b5b6000612b7784828501612b3e565b91505092915050565b60008115159050919050565b612b9581612b80565b82525050565b6000602082019050612bb06000830184612b8c565b92915050565b600073ffffffffffffffffffffffffffffffffffffffff82169050919050565b6000612be182612bb6565b9050919050565b612bf181612bd6565b8114612bfc57600080fd5b50565b600081359050612c0e81612be8565b92915050565b6000819050919050565b612c2781612c14565b8114612c3257600080fd5b50565b600081359050612c4481612c1e565b92915050565b60008060408385031215612c6157612c60612af1565b5b6000612c6f85828601612bff565b9250506020612c8085828601612c35565b9150509250929050565b612c9381612c14565b82525050565b6000602082019050612cae6000830184612c8a565b92915050565b600081519050919050565b600082825260208201905092915050565b60005b83811015612cee578082015181840152602081019050612cd3565b60008484015250505050565b6000601f19601f8301169050919050565b6000612d1682612cb4565b612d208185612cbf565b9350612d30818560208601612cd0565b612d3981612cfa565b840191505092915050565b60006020820190508181036000830152612d5e8184612d0b565b905092915050565b600060208284031215612d7c57612d7b612af1565b5b6000612d8a84828501612c35565b91505092915050565b612d9c81612bd6565b82525050565b6000602082019050612db76000830184612d93565b92915050565b6000604082019050612dd26000830185612c8a565b612ddf6020830184612c8a565b9392505050565b600080600060608486031215612dff57612dfe612af1565b5b6000612e0d86828701612bff565b9350506020612e1e86828701612bff565b9250506040612e2f86828701612c35565b9150509250925092565b600060208284031215612e4f57612e4e612af1565b5b6000612e5d84828501612bff565b91505092915050565b60008060408385031215612e7d57612e7c612af1565b5b6000612e8b85828601612c35565b9250506020612e9c85828601612c35565b9150509250929050565b600080600060608486031215612ebf57612ebe612af1565b5b6000612ecd86828701612bff565b9350506020612ede86828701612c35565b9250506040612eef86828701612c35565b9150509250925092565b612f0281612b80565b8114612f0d57600080fd5b50565b600081359050612f1f81612ef9565b92915050565b60008060408385031215612f3c57612f3b612af1565b5b6000612f4a85828601612bff565b9250506020612f5b85828601612f10565b9150509250929050565b600080fd5b600080fd5b7f4e487b7100000000000000000000000000000000000000000000000000000000600052604160045260246000fd5b612fa782612cfa565b810181811067ffffffffffffffff82111715612fc657612fc5612f6f565b5b80604052505050565b6000612fd9612ae7565b9050612fe58282612f9e565b919050565b600067ffffffffffffffff82111561300557613004612f6f565b5b61300e82612cfa565b9050602081019050919050565b82818337600083830152505050565b600061303d61303884612fea565b612fcf565b90508281526020810184848401111561305957613058612f6a565b5b61306484828561301b565b509392505050565b600082601f83011261308157613080612f65565b5b813561309184826020860161302a565b91505092915050565b600080600080608085870312156130b4576130b3612af1565b5b60006130c287828801612bff565b94505060206130d387828801612bff565b93505060406130e487828801612c35565b925050606085013567ffffffffffffffff81111561310557613104612af6565b5b6131118782880161306c565b91505092959194509250565b6000819050919050565b600061314261313d61313884612bb6565b61311d565b612bb6565b9050919050565b600061315482613127565b9050919050565b600061316682613149565b9050919050565b6131768161315b565b82525050565b6000602082019050613191600083018461316d565b92915050565b600080604083850312156131ae576131ad612af1565b5b60006131bc85828601612bff565b92505060206131cd85828601612bff565b9150509250929050565b6000815190506131e681612be8565b92915050565b60006020828403121561320257613201612af1565b5b6000613210848285016131d7565b91505092915050565b600060408201905061322e6000830185612d93565b61323b6020830184612c8a565b9392505050565b60008151905061325181612c1e565b92915050565b6000806040838503121561326e5761326d612af1565b5b600061327c85828601613242565b925050602061328d85828601613242565b9150509250929050565b7f4e487b7100000000000000000000000000000000000000000000000000000000600052601160045260246000fd5b60006132d182612c14565b91506132dc83612c14565b92508282026132ea81612c14565b9150828204841483151761330157613300613297565b5b5092915050565b7f4e487b7100000000000000000000000000000000000000000000000000000000600052601260045260246000fd5b600061334282612c14565b915061334d83612c14565b92508261335d5761335c613308565b5b828204905092915050565b7f4e487b7100000000000000000000000000000000000000000000000000000000600052602260045260246000fd5b600060028204905060018216806133af57607f821691505b6020821081036133c2576133c1613368565b5b50919050565b60006060820190506133dd6000830186612d93565b6133ea6020830185612c8a565b6133f76040830184612d93565b949350505050565b7f4e487b7100000000000000000000000000000000000000000000000000000000600052603260045260246000fd5b7f696e76616c69642064656c656761746f72000000000000000000000000000000600082015250565b6000613464601183612cbf565b915061346f8261342e565b602082019050919050565b6000602082019050818103600083015261349381613457565b9050919050565b600081905092915050565b60006134b082612cb4565b6134ba818561349a565b93506134ca818560208601612cd0565b80840191505092915050565b60006134e282856134a5565b91506134ee82846134a5565b91508190509392505050565b60008151905061350981612ef9565b92915050565b60006020828403121561352557613524612af1565b5b6000613533848285016134fa565b91505092915050565b7f696e76616c696420616d6f756e74000000000000000000000000000000000000600082015250565b6000613572600e83612cbf565b915061357d8261353c565b602082019050919050565b600060208201905081810360008301526135a181613565565b9050919050565b60006060820190506135bd6000830186612d93565b6135ca6020830185612d93565b6135d76040830184612c8a565b949350505050565b60006040820190506135f46000830185612c8a565b6136016020830184612d93565b9392505050565b7f696e76616c6964206f776e657200000000000000000000000000000000000000600082015250565b600061363e600d83612cbf565b915061364982613608565b602082019050919050565b6000602082019050818103600083015261366d81613631565b9050919050565b600061367f82612c14565b915061368a83612c14565b92508282039050818111156136a2576136a1613297565b5b92915050565b600081519050919050565b600082825260208201905092915050565b60006136cf826136a8565b6136d981856136b3565b93506136e9818560208601612cd0565b6136f281612cfa565b840191505092915050565b60006080820190506137126000830187612d93565b61371f6020830186612d93565b61372c6040830185612c8a565b818103606083015261373e81846136c4565b905095945050505050565b60008151905061375881612b27565b92915050565b60006020828403121561377457613773612af1565b5b600061378284828501613749565b91505092915050565b7f4e487b7100000000000000000000000000000000000000000000000000000000600052603160045260246000fdfea26469706673582212203200b9a427af3eac6a8ebb6f8261c87f6c02048505da807ef927581fa80ecf0964736f6c63430008140033",
  "linkReferences": {},
  "deployedLinkReferences": {}
}